:100000000C94E4000C941E180C944B180C940C01E6
:100010000C940C010C940C010C940C010C94000A2F
:100020000C940C010C940C010C940C010C940C011C
:100030000C940C010C940C010C940C010C940C010C
:100040000C9478180C940C010C94A71A0C94F91ABF
:100050000C940C010C940C010C940C010C940C01EC
:100060000C940C010C940C01005EBCE2613FDD833A
:10007000C29C7E20A3FD1F419DC3217FFCA2401E88
:100080005F01E3BD3E6082DC237D9FC1421CFEA078
:10009000E1BF5D0380DE3C62BEE0025CDF81633D68
:1000A0007C22C09E1D43A1FF4618FAA427799BC558
:1000B00084DA3866E5BB5907DB856739BAE4065848
:1000C0001947A5FB7826C49A653BD987045AB8E638
:1000D000A7F91B45C6987A24F8A6441A99C7257B28
:1000E0003A6486D85B05E7B98CD2306EEDB3510F18
:1000F0004E10F2AC2F7193CD114FADF3702ECC9208
:10010000D38D6F31B2EC0E50AFF1134DCE90722CF7
:100110006D33D18F0C52B0EE326C8ED0530DEFB1E7
:10012000F0AE4C1291CF2D73CA947628ABF51749D7
:100130000856B4EA6937D58B5709EBB536688AD4C7
:1001400095CB2977F4AA4816E9B7550B88D6346AB7
:100150002B7597C94A14F6A8742AC896154BA9F7A7
:10016000B6E80A54D7896B35000000002400270048
:100170002A0000000000250028002B0000000000DD
:1001800023002600290004040404040404040202D9
:100190000202020203030303030301020408102006
:1001A0004080010204081020010204081020000011
:1001B0000007000201000003040600000000000028
:1001C00000006F01F712E11B11241FBECFEFD8E032
:1001D000DEBFCDBF11E0A0E0B1E0EEE1FCE302C084
:1001E00005900D92A036B107D9F715E0A0E6B1E071
:1001F00001C01D92A139B107E1F711E0C8ECD1E0CF
:1002000004C02297FE010E94D21DC23CD107C9F74B
:100210000E94381C0C940D1E0C940000A0E0B0E06D
:10022000E4E1F1E00C94DE1DEC01A880B980CA8005
:10023000DB80A114B104C104D10441F484E2A82EEE
:1002400089EDB82E8BE5C82E87E0D82EC601B50102
:100250002DE133EF41E050E00E94B51D27EA31E483
:1002600040E050E00E94411D7B018C01C601B501B8
:100270002DE133EF41E050E00E94B51DCA01B90104
:100280002CEE34EF4FEF5FEF0E94411D6E0D7F1D8E
:10029000801F911F97FF04C06150704080409048BC
:1002A000688379838A839B839B01AC015F77B90163
:1002B000CA01CDB7DEB7EAE00C94FA1D0E940E0128
:1002C000089581E391E00E940E0108956093310149
:1002D00070933201809333019093340108950F930A
:1002E0001F9300E611E0C80162E00E94F4058EE66B
:1002F00091E0B8010E9460068DE791E00E94BC1277
:1003000083E68093B0031F910F91089504C08DE799
:1003100091E00E9455128DE791E00E94F31088232E
:10032000B1F708950F931F938C01085F1F4F8EE65E
:1003300091E065E771E00E94A207F801958384834C
:10034000085010400E949402F801918780871F9105
:100350000F9108950F931F938DE791E00E94C10ABA
:10036000882329F18DE791E00E94C90A8823D1F002
:100370008DE791E00E94EB0B109204040DEF13E067
:1003800080E2F80111928A95E9F7C8010E94920172
:100390008DE791E0B8010E941D0F8DE791E00E946A
:1003A000F30B09C08DE791E00E94C80A04C08DE7F5
:1003B00091E00E94950B1F910F9108958EE691E0B8
:1003C0000E94710708958DE791E00E94C10A882379
:1003D00041F08DE791E00E94C90A882311F00E9444
:1003E000DE0108958530F9F0863038F4833099F0D5
:1003F0008430B0F4823009F507C08536C9F08636FE
:10040000B9F08436D1F417C08DE791E00E94950BC6
:100410000E94E30108958DE791E00E94071008957E
:100420000E94AA0108958DE791E00E942E0B089585
:100430000E94860108950E94860108951F938CE50D
:1004400093E00E94430A182F0E94F2011123B9F78A
:100450001F9108950F931F9382E062E00E94C019DC
:100460000EE611E0C8010E943B08C80160E00E944E
:100470006F06C80165E771E040E00E940D08209119
:100480007B0130E040E050E0542F432F322F2227F1
:1004900080917C01280F311D411D511DB901CA01F8
:1004A0001F910F91089584E062E00E94C0198AE0D4
:1004B00061E00E94C0198AE061E00E94FF1986E0B5
:1004C00061E00E94C01986E061E00E94FF1986E0A9
:1004D00060E00E94FF1988E10FB6F89480936000F5
:1004E000109260000FBE8DE061E00E94C0198DE0A7
:1004F00060E00E94FF190E942A02789460507040C8
:10050000894E9F4F609398037093990380939A0349
:1005100090939B038DE791E069EA73E00E94951246
:1005200087E08093A40308958EE480937C008091FB
:1005300064008E7F8093640088EC90E00197F1F76F
:1005400080917A00806880937A0080917A0084FF9D
:1005500005C080917A00806180937A0080917A0052
:10056000806480937A0080917A0086FDFCCF609150
:1005700078009091790080917A00806180937A0070
:10058000392F20E070E0262B372B442737FD40958C
:10059000542F64EB7BE281E190E00E94B51DC9011C
:1005A000089520911D0430911E0440911F04509124
:1005B0002004B901CA01089520911D0430911E0440
:1005C00040911F04509120042F5F3F4F4F4F5F4FCA
:1005D00020931D0430931E0440931F045093200465
:1005E0002150304040405040B901CA01089583B7BE
:1005F000817F866083BF089580911D0490911E04C1
:10060000A0911F04B09120040196A11DB11D8093FB
:100610001D0490931E04A0931F04B09320048091A6
:100620001D0490911E04A0911F04B0912004019616
:10063000A11DB11D80931D0490931E04A0931F045F
:10064000B093200483B7816083BF7894889583B783
:100650008E7F83BF78940895EF92FF920F931F933C
:100660007B018C0120911D0430911E0440911F04D8
:100670005091200483B7817F866083BF80911D04E1
:1006800090911E04A0911F04B09120040196A11D19
:10069000B11D80931D0490931E04A0931F04B0937A
:1006A000200480911D0490911E04A0911F04B0911C
:1006B00020040196A11DB11D80931D0490931E047A
:1006C000A0931F04B093200483B7816083BF789404
:1006D000889583B78E7F83BF789480911D04909115
:1006E0001E04A0911F04B0912004821B930BA40B45
:1006F000B50BE816F9060A071B0708F0BFCF1F91D4
:100700000F91FF90EF900895A1EBB0E01C9217BA03
:1007100020E730E0F90180818E7F8083E0EBF0E01C
:1007200080818C7F80838081826080838C91877FB1
:100730008C93E6EBF0E080818F7D8083F9018081EE
:100740008D7F80838C9185608C938C918D7F8C9331
:100750008C918E7F8C938CE78093B3008081826034
:1007600080830895AF92BF92CF92DF92EF92FF9273
:100770000F931F935B016C010E94CC187B018C01CD
:1007800083B7817F83BF83B7816083BF889583B739
:100790008E7F83BF0E94CC186E197F09800B910B4E
:1007A000A616B706C806D90670F71F910F91FF90DD
:1007B000EF90DF90CF90BF90AF900895EF92FF92AF
:1007C0000F931F930E9494027C010E94DA1800E0AC
:1007D00010E0E60EF71E081F191F80E00E949E1908
:1007E0009C01442737FD4095542F2E0D3F1D401F7F
:1007F000511F87E015950795F794E7948A95D1F7EF
:100800002E0D3F1D401F511FC9011F910F91FF90D9
:10081000EF900895FC0113861586148687E090E01A
:1008200012863197009711F00197FACF0895DC01F5
:1008300080E00BC0E82FF0E08D9190E0E827F927E9
:10084000E859FF4FE49161508E2F662399F7089580
:10085000DF92EF92FF920F931F93FC01E0800181E2
:100860001281F894F80181818E2981838281DE2CA6
:10087000D0948D21828383E090E00E945919F80181
:1008800081818D2181838AE090E00E945919F801CD
:100890000081789485E390E00E94591980E010E08F
:1008A000FF240E211F21012B09F081E01F910F91E0
:1008B000FF90EF90DF900895EF92FF920F931F93B8
:1008C000CF93DF937C0101E010E0C0E0D0E0C701EE
:1008D0000E9428048111102B000F2196C830D105E9
:1008E000B1F7812FDF91CF911F910F91FF90EF9082
:1008F00008951F93CF93DF93FC011081C181D281B2
:10090000912F909560FF12C0F8948A8189238A8381
:100910008981812B89838AE090E00E9459198A811C
:10092000812B8A83789487E390E011C0F8948A81C0
:1009300089238A838981812B898381E490E00E94C5
:1009400059198A81812B8A83789485E090E00E94EE
:100950005919DF91CF911F910895CF92DF92EF92B5
:10096000FF920F931F93CF93DF938C01E42EFF240C
:10097000F394C0E0D0E0C62EDD2460E08F2D90E03F
:100980008C219D21892B09F061E0C8010E94790426
:10099000FF0C2196C830D10581F7EE20A9F4F89418
:1009A000D8011196ED91FC91129791818C918095CF
:1009B000982391831196ED91FC91129792818C91DD
:1009C0008095982392837894DF91CF911F910F9116
:1009D000FF90EF90DF90CF9008956CEC40E00E9484
:1009E000AD040895EF92FF920F931F93CF93DF937F
:1009F0008C017B0165E540E00E94AD04C0E0D0E0E1
:100A0000F701EC0FFD1FC801608140E00E94AD04BA
:100A10002196C830D105A1F7DF91CF911F910F9199
:100A2000FF90EF900895DF92EF92FF920F931F9344
:100A3000CF93DF93FC010081C181D281F894898139
:100A4000D02ED0948D21898378941DE7E02EFF2449
:100A5000115059F182E090E00E945919888190E08C
:100A60008E219F21892BA1F3F8948A818D218A837D
:100A70008981802B8983789480EE91E00E945919B6
:100A8000F89489818D21898386E490E00E94591928
:100A9000888110E090E0E822F922EF2809F411E0C3
:100AA00078948AE991E00E945919812FDF91CF91C2
:100AB0001F910F91FF90EF90DF900895AF92BF923A
:100AC000DF92EF92FF920F931F93CF93DF93EC018E
:100AD0005B018D85882309F061C0CE010E9413055A
:100AE000882329F41B861D861C8690E06BC0CE01EE
:100AF00060EF40E00E94AD0401E0DD24EE24FF241D
:100B0000F394CE010E942804182FCE010E942804DD
:100B1000113019F48130E1F439C0181709F58B85CB
:100B2000081770F460E0FE01EE0DF11D838190E086
:100B30002F2D30E082239323181619064CF003C0A2
:100B400060E0081729F0093008F04CC00C874AC053
:100B5000FE01EE0DF11D83818F29838361E009C0C1
:100B6000612FFE01EE0DF11D9F2D9095838189234C
:100B70008383CE010E9479040F5FFF0C19F4E39484
:100B8000FF24F39487E08E1508F0BBCF013430F0DA
:100B9000DB86DD2011F581E08D871FC01B861D8659
:100BA0001C8690E0DE0120E030E0F501E20FF31F4B
:100BB00013968C91139780832F5F3F4F11962830A7
:100BC000310599F7892FDF91CF911F910F91FF90F8
:100BD000EF90DF90BF90AF9008958B818823F1F262
:100BE00091E0E0CFD02EBDCFFF920F931F938C01E9
:100BF000F62E862F60E00E94C0198F2D90E0FC0138
:100C0000E656FE4FE491D801EC938A579E4FFC01C3
:100C10006491E62FF0E0EE0FFF1FE458FE4F859140
:100C2000949112969C938E9311971B961C921B97EE
:100C30001D961C921D971C961C92F80187E090E06F
:100C400012863197009711F00197FACF1F910F91FB
:100C5000FF900895882319F48CB5806202C08CB58A
:100C60008F7D8CBD08959CB5937F982B9CBD089576
:100C70002CB5382F33702C7F322B3CBD2DB590E036
:100C8000959587959595879581702E7F822B8DBD43
:100C900008958AE061E00E94FF198AE061E00E9405
:100CA000C0198CB580618CBD8CB580648CBD8DE025
:100CB00061E00E94C0198BE061E00E94C0190895B4
:100CC000FC0182E796E0928B818B768365831482A8
:100CD00010828AE0818381E0828383830895FC010E
:100CE000628308950895EF92FF920F931F938C01F2
:100CF0007B01FC01858196810E941305F8018581A5
:100D00009681B7010E94F204F8018581968164EB17
:100D100040E00E94AD04F801858196810E9428047C
:100D2000F82EF801858196810E94130580E0FF204E
:100D300009F481E01F910F91FF90EF900895CF92F9
:100D4000DF92EF92FF920F931F938C016B017A0158
:100D5000FC01858196810E941305F80185819681A9
:100D6000B6010E94F204F801858196816EEB40E0A5
:100D70000E94AD04F801858196810E945C04F70110
:100D80008083F801858196810E945C04F70181834C
:100D9000F801858196810E945C04F7018283F80145
:100DA000858196810E945C04F7018383F801858127
:100DB00096810E945C04F7018483F8018581968105
:100DC0000E945C04F7018583F801858196810E9469
:100DD0005C04F7018683F801858196810E945C049A
:100DE000F7018783F801858196810E945C04F701F1
:100DF0008087F801858196810E9413051F910F91CC
:100E0000FF90EF90DF90CF900895DF93CF93CDB711
:100E1000DEB729970FB6F894DEBF0FBECDBFAE0187
:100E20004F5F5F4F0E949F068981811181E0299663
:100E30000FB6F894DEBF0FBECDBFCF91DF910895FE
:100E4000CF92DF92EF92FF920F931F93CF93DF9396
:100E5000EC016B01452BE1F08B818823C9F088817F
:100E60008823B1F40E94CC187B018C01CE0160E094
:100E700070E00E940507882359F40E94CC186E196F
:100E80007F09800B910B6E5E72408040904070F342
:100E9000F6016081693039F06930A0F06A3041F0C4
:100EA0006B3081F40AC06EE570E080E090E00EC027
:100EB0006CEB70E080E090E009C067E771E080E0F3
:100EC00090E004C06EEE72E080E090E00E940019B5
:100ED000DF91CF911F910F91FF90EF90DF90CF9016
:100EE0000895CF93DF93EC018D819E810E941305BD
:100EF0008D819E810E94ED048D819E8164E44881F4
:100F00000E94AD048A81882339F0CE012196BE016A
:100F100040E050E00E942007DF91CF9108950F93A9
:100F20001F938A010E949F06C80168E00E9417046F
:100F300020E0F8019085891709F421E0822F1F91A4
:100F40000F910895DF93CF93CDB7DEB729970FB6F2
:100F5000F894DEBF0FBECDBFAE014F5F5F4F0E9462
:100F60008F07882319F428E13CEF06C09A8180E0BE
:100F7000298130E0282B392BC90129960FB6F89426
:100F8000DEBF0FBECDBFCF91DF910895DF93CF932A
:100F9000CDB7DEB729970FB6F894DEBF0FBECDBF31
:100FA0009C01FB0180818031D9F0C901AE014F5F06
:100FB0005F4F0E948F078823A9F08D818F3371F0D6
:100FC000803418F48F3171F40BC08F3519F08F37DE
:100FD00049F402C08BE007C08CE005C08AE003C082
:100FE00089E001C080E029960FB6F894DEBF0FBEFD
:100FF000CDBFCF91DF9108950F931F938B01CB014C
:1010000067E00E94170420E0F8019781891709F42E
:1010100021E0822F1F910F910895EF92FF920F937D
:101020001F93CF93DF93EC017B01042F8D819E8171
:101030000E940A0410E007C0CE01B7010E94FC071D
:101040008823A9F00AC08D819E81B7010E945E05A8
:10105000882329F0101759F4EFCF81E001C080E018
:10106000DF91CF911F910F91FF90EF9008951F5F37
:101070000117A8F3E8CFAF92BF92CF92DF92EF9221
:10108000FF920F931F93DF93CF93CDB7DEB7619796
:101090000FB6F894DEBF0FBECDBF7C01FC01858189
:1010A00096810E940A04F70114826E010894C11C03
:1010B000D11C79E0A72EB12CAC0EBD1E01E02BC0D7
:1010C000C701B6010E94FC07882329F1F70180813E
:1010D000882341F4C701B6010E947306882311F0EA
:1010E000F7010083C701B601A5010E949F06F70121
:1010F0001181C701B6010E94C607811718F4F701D4
:10110000818104C0C701B6010E94C607F70181832F
:1011100084818F5F8483F70185819681B6010E9467
:101120005E05882369F661960FB6F894DEBF0FBEA0
:10113000CDBFCF91DF911F910F91FF90EF90DF9086
:10114000CF90BF90AF900895DC014D915C911197C5
:1011500021E00FC0FD01E80FF91FEE5BFF4F80811A
:10116000E254F040861721F4EE57FE4F8081089537
:101170002F5F822F90E08417950764F380E0089535
:101180000F931F93CF93DF938C01FC01C081D1811A
:1011900031E012C0EE0FFF1FEE0FFF1FE00FF11F37
:1011A000EE57FF4F80819181A281B381841795070B
:1011B000A607B70739F03F5FE32FF0E0EC17FD0714
:1011C0004CF302C0332301F5C034D1053CF080E27A
:1011D00090E0F8019183808380E017C0CC0FDD1F81
:1011E000CC0FDD1FC00FD11FCE57DF4F488359836F
:1011F0006A837B83F80180819181E80FF91F228344
:101200000196F8019183808381E0DF91CF911F9156
:101210000F910895CF92DF92EF92FF920F93CF93A9
:10122000DF93EC016A017B01522F6881798141E0F3
:1012300013C0F901EE0FFF1FEE0FFF1FEC0FFD1F94
:10124000EE57FF4F80819181A281B3818C159D055E
:10125000AE05BF0539F04F5F242F30E02617370762
:1012600044F30FC0442369F0FE01E20FF31FEE5B6D
:10127000FF4F5083E05CFE4F0083E258F1408281D3
:1012800001C08FEFDF91CF910F91FF90EF90DF9032
:10129000CF900895FC01118210820895CF93DF93BF
:1012A000EC018A859B85AC85BD854A875B876C8709
:1012B0007D87481B590B6A0B7B0BCB01BA0128EECB
:1012C00033E040E050E00E94931D9B01AC01243FBD
:1012D00081E0380780E0480780E0580738F48EA99D
:1012E0009FA9820F931F9FAB8EAB08C088AD99ADAD
:1012F00088519C4F821B930B99AF88AFDF91CF91A0
:101300000895FC0164817581868197810895FC01AF
:10131000118610860895FC0180859185019691873C
:10132000808720E06817790708F421E0822F08956C
:10133000EF92FF920F931F93CF93DF93FC01E2880C
:10134000F3880489158986899789A08DB18D0A97BC
:10135000A109B109E816F9060A071B0728F021E0E0
:10136000E22EF12C012D112D828B938BA48BB58B4A
:10137000118A108AEF0161E070E02A8D3B8D4C8D5F
:101380005D8D82899389A489B589281739074A0711
:101390005B0758F4E216F3060407150730F4228BB6
:1013A000338B448B558B718B608B24966F5F7F4F93
:1013B0006830710511F7DF91CF911F910F91FF9068
:1013C000EF900895E62FF0E0EE0FFF1FEE0FFF1FE6
:1013D000E80FF91F268B378B408F518F0E94980999
:1013E0000895FC0166870895E0912104F09122049C
:1013F00087858F5F878710821182128213820895FA
:101400001F920F920FB60F9211242F933F934F9379
:101410005F936F937F938F939F93AF93BF93EF935C
:10142000FF930E94DC026091230460956093230483
:1014300086E00E94FF19FF91EF91BF91AF919F91BC
:101440008F917F916F915F914F913F912F910F906D
:101450000FBE0F901F9018950F931F938C010E9441
:10146000D102F8012285338544855585621B730BB3
:10147000840B950B26893789408D518D0E94931DD1
:101480001F910F910895EF92FF920F931F93CF93A7
:10149000DF93EC010E94F702789413C08881998150
:1014A000AA81BB810196A11DB11D88839983AA835E
:1014B000BB830E94FC028F85882319F01F861E853E
:1014C00040C0EA88FB880C891D89CE010E942C0A45
:1014D0006E157F058007910708F37894188911230A
:1014E00069F58C819D81AE81BF810196A11DB11DE1
:1014F0008C839D83AE83BF836EE170E080E090E0DB
:101500000E942C032E893F89488D598D60E87EEE1C
:1015100086E390E00E94931D40E050E06C817D8165
:101520008E819F810E94B51D611571058105910510
:1015300009F419EC188219821A821B82CE010E94CA
:101540009809812FDF91CF911F910F91FF90EF901C
:1015500008950F931F938C0190932204809321048C
:10156000F8940E948403F80117AA16AA11AE10AECF
:101570001186108614821582168217821F910F9190
:101580000895FC01EB53FE4F8081811181E00895A5
:101590000895FF920F931F938C0181529E4F0E94DA
:1015A0008109FF2409521E4FF801219131918F01C9
:1015B00040E050E00E94B51DF8012081318140E0FB
:1015C00050E0621773078407950711F4FF24F39422
:1015D0008F2D1F910F91FF900895CF92DF92EF9280
:1015E000FF920F931F93CF93DF93EC01CB53DE4F0A
:1015F0008881C55CD140882341F1C653DE4FE88025
:10160000F9800A811B81CA5CD14086E090E0A0E0AD
:10161000B0E0E80EF91E0A1F1B1F8FEDC82E81E0F7
:10162000D82ECC0EDD1EC6010E948109E616F706F3
:101630000807190754F0CD53DE4F888199810E9425
:101640002213C60164E60E94F109DF91CF911F9138
:101650000F91FF90EF90DF90CF900895CF92DF929F
:10166000EF92FF920F931F93CF93DF93EC01CB5335
:10167000DE4F8881C55CD140882341F1C653DE4FDF
:10168000E880F9800A811B81CA5CD14086E090E045
:10169000A0E0B0E0E80EF91E0A1F1B1F9FEDC92E47
:1016A00091E0D92ECC0EDD1EC6010E948109E616FE
:1016B000F7060807190754F0CD53DE4F888199814A
:1016C0000E942213C60164E60E94F109DF91CF91C6
:1016D0001F910F91FF90EF90DF90CF9008950F939F
:1016E0001F93CF93DF93EC01C55DDD4F8881CB5213
:1016F000D2408823A9F08E010D531E4FC153DE4FF7
:10170000F8018081918168810E94F512CE01409696
:1017100066E60E94F109F801808191810E942F13F1
:10172000DF91CF911F910F910895EF92FF920F9348
:101730001F93CF93DF93EC01CB53DE4F8881C55CC1
:10174000D140882359F12FEDE22E21E0F22EEC0E4C
:10175000FD1EC7010E9481098E0106531E4FF8012C
:101760002081318142815381621B730B840B950B65
:10177000613071058105910539F1C7010E94810928
:10178000F8012081318142815381621B730B840BEC
:10179000950B6230710581059105B1F0CE01815242
:1017A0009E4F65E60E94F1098E010D531E4FC75DE5
:1017B000DD4FF8018081918168810E94F512F80166
:1017C000808191810E942F13DF91CF911F910F9102
:1017D000FF90EF900895FC01ED53FE4F80819181C1
:1017E0000E94161308950F931F938C0161E070E01F
:1017F00080E090E00E942C03C8010E946F0B1F91B3
:101800000F910895CF93DF93FC01EB01E65DFD4F4F
:101810008081EA52F240882311F080E026C0E05334
:10182000FE4F8081E05DF1408A831E82DB019AE2F7
:1018300021E030E08D91980F2F5F3F4F213231052D
:10184000C9F791959E83ED53FE4FA081B181E35C72
:10185000F1409C9680E209900D928150E1F7ED53A2
:10186000FE4F808191810E946D13DF91CF91089589
:10187000DF93CF93CDB7DEB7A0970FB6F894DEBF56
:101880000FBECDBFFC01AB019E012F5F3F4F80E239
:10189000DB010D90BD01D9010D929D018150C1F771
:1018A00088E08983DA0111968C918D83E053FE4F95
:1018B0008081E05DF1408A83CF01BE016F5F7F4F81
:1018C0000E94020CA0960FB6F894DEBF0FBECDBFEB
:1018D000CF91DF9108956F927F928F929F92AF92F6
:1018E000BF92CF92DF92EF92FF920F931F93DF93FD
:1018F000CF93CDB7DEB764970FB6F894DEBF0FBEB7
:10190000CDBF7C015B01DE011196FB01389684E1BD
:1019100001900D928150E1F77E2C6F2C49815A8104
:101920006B817C81C7012F850A890E940A09682F73
:101930008F3F11F480E047C02FEC31E0E20EF31E40
:10194000F701808121E33EEFE20EF31E898BDE0179
:101950001196F5019E012B5E3F4F8D918087319648
:10196000A217B307D1F743ECC42E41E0D42ECE0C1E
:10197000DF1C39E2832E32E0932E8E0C9F1C6623EF
:1019800051F4F60180819181F40160810E94F51289
:10199000F501138214C0F5016383F6010081118102
:1019A000872D962D0E94A408682FC8010E94F51269
:1019B000F60180819181F40160810E94F512C701D6
:1019C000B5010E94020C64960FB6F894DEBF0FBEFC
:1019D000CDBFCF91DF911F910F91FF90EF90DF90DE
:1019E000CF90BF90AF909F908F907F906F90089511
:1019F000EF92FF920F931F93DF93CF93CDB7DEB794
:101A0000A0970FB6F894DEBF0FBECDBF8C017B014F
:101A1000DE011196FB0180E201900D928150E1F709
:101A2000F801ED53FE4F085D1D4F80819181F80153
:101A300060810E94F512F7018081806289830F50D6
:101A40001040F8018081095112408C83C801BE0109
:101A50006F5F7F4F0E94020CA0960FB6F894DEBF16
:101A60000FBECDBFCF91DF911F910F91FF90EF90EF
:101A70000895FC01DB01E053FE4F9081E05DF140F1
:101A800014968C911497891799F0992389F0EB5348
:101A9000FE4F8081E55CF140882361F013968C91C4
:101AA0001397891739F4CF010E94F80C81E008954B
:101AB00080E0089581E00895AF92BF92CF92DF92C7
:101AC000EF92FF920F931F93DF93CF93CDB7DEB7C3
:101AD000A0970FB6F894DEBF0FBECDBF7C015B01AF
:101AE0008C010A531E4FD8012D913C9111972F5F05
:101AF0003F4F2D933C93E5ECF1E0EE0EFF1ED70136
:101B00008C91EBE3FEEFEE0EFF1E8823C9F147ED4B
:101B100051E0E40EF51ED7016D917C91E9E2FEEFF4
:101B2000EE0EFF1EE4E0660F771FEA95E1F7C901AC
:101B30000E946C1D892B79F048EC51E0E40EF51EF3
:101B4000D7018D919C91E8E3FEEFEE0EFF1E281762
:101B500039070CF4DCC048EC51E0E40EF51E2D5FB3
:101B60003F4FD7012D933C93E8E3FEEFEE0EFF1EAF
:101B700064E670E080E090E00E94171D645C1DC088
:101B800058ECC52E51E0D52ECE0CDF1CD6018D9120
:101B90009C91281739070CF4BAC06CE370E080E020
:101BA00090E00E94171D262F2370F80180819181FB
:101BB000820F911DD6018D939C9370E080E090E0A0
:101BC0000E94B203F50138964FE152E0E40EF51E93
:101BD000D50118962D913D914D915C911B97D701A0
:101BE0002D933D934D935C93139741EE5DEFE40E7F
:101BF000F51E87010D5D1D4F24813581468157817A
:101C0000D8012D933D934D935C9313974EEC51E087
:101C1000E40EF51E86858F5FD7018C934BE050E074
:101C2000E40EF51E81E090E0D7018D939C9340E493
:101C300050E0E40EF51ED50111968C91D7018C93DE
:101C40006089EFE0F0E0EE0EFF1ED7016C93EBE948
:101C5000FFEFEE0EFF1ED7018D919C910E94F512B1
:101C6000FE01399618869E012F5F3F4F80E2D90111
:101C70001D928A95E9F74DE050E0E40EF51ED7017C
:101C80008C918A8385E08983D50112968C91129775
:101C90008C8311968C9111978D8315968C918E83E0
:101CA0004BE450E0E40EF51ED7014D915D916D912E
:101CB0007C9149875A876B877C87D8014D915D91CC
:101CC0006D917C91448355836683778346EB5FEF08
:101CD000E40EF51ED7018D919C91958784874EEF78
:101CE0005FEFE40EF51ED7018C91808B4FE050E042
:101CF000E40EF51ED7018C9142E25EEFE40EF51E74
:101D00008787C701B9010E94020C81E001C080E011
:101D1000A0960FB6F894DEBF0FBECDBFCF91DF9176
:101D20001F910F91FF90EF90DF90CF90BF90AF90F9
:101D30000895EF92FF921F93DF93CF93CDB7DEB755
:101D4000A0970FB6F894DEBF0FBECDBF7C01162F53
:101D5000FC01ED53FE4FDC01A75DBD4F80819181F9
:101D60006C910E94F512AE01475F5F4F1886FE012D
:101D7000319680E2DF011D928A95E9F7F701E4527E
:101D8000FE4F20812F5F20832150E0EDF1E0EE0E29
:101D9000FF1ED7013C91EBE4F0E0EE0EFF1EF701D1
:101DA00080819181A281B38189879A87AB87BC8723
:101DB00068E070E0E60EF71EF70180819181A28154
:101DC000B381FA0184839583A683B7836EEA7FEF9C
:101DD000E60EF71ED7018D919C9195878487EEEFD3
:101DE000FFEFEE0EFF1ED7018C91FA01808B8E91D2
:101DF0007D01E2E3FEEFEE0EFF1EDA011E968C93EC
:101E00001E97112321F01D961C921E921C973A8357
:101E10002E8384E08983C701BE016F5F7F4F0E94DC
:101E2000020CA0960FB6F894DEBF0FBECDBFCF91C7
:101E3000DF911F91FF90EF900895EF92FF920F9323
:101E40001F938C017B01FC01ED53FE4F085D1D4F7C
:101E500080819181D8016C910E94F51289E0F7018F
:101E6000808308551040D8018C918183075B1F4FF8
:101E7000F801808109511240D70113968C93139772
:101E8000F801E552FE4F808115968C9315978F5F70
:101E90008083065E1D4FF80180810A51124014961E
:101EA0008C93C801B7010E94020C1F910F91FF9003
:101EB000EF9008950F931F938C010B531E4FF80161
:101EC0001082045F1F4F81E090E0F80191838083CE
:101ED00012928F01075B1F4FF801108202541040CD
:101EE00083E090E0F8019183808301511040F80174
:101EF000119211928F0111821082095F1F4FF80118
:101F000010820F5C1140C8010E944A09055E1D4FF6
:101F1000F80140815181628173810B511240C801E7
:101F20002FEF0E94C008C80181529E4F0E9487096E
:101F3000C80161E00E94990E64E170E080E090E0E9
:101F40000E942C03C8010E94950B1F910F910895C8
:101F5000EF92FF920F931F93DF93CF93CDB7DEB72E
:101F600064970FB6F894DEBF0FBECDBF8C017B0126
:101F7000AB01485F5F4FDE011196FA0184E10190E9
:101F80000D928150E1F7D70112962C9112978C9106
:101F900085FF19C0065E1D4FF801808114968C9351
:101FA0000A541040D8018C91F70181830D501040E4
:101FB000D801ED91FC91035C1140EE5AFF4F8081F6
:101FC000FA01878720E049815A816B817C81C801B1
:101FD0000E94C008882351F4C8010E945A0FF801DA
:101FE000ED53FE4F808191810E941113C801B7010A
:101FF0000E94F80C64960FB6F894DEBF0FBECDBFFA
:10200000CF91DF911F910F91FF90EF9008950F9363
:102010001F93CF93DF93EC018C0101521E4FC952E5
:10202000DE4F68817981C75DD140F6E0660F771F8A
:10203000FA95E1F7645C7F4FC8010E948B09882301
:1020400051F0CE010E945A0FFE01ED53FE4F8081E8
:1020500091810E941113CB53DE4F8881C55CD14022
:10206000882309F1C55DDD4F8881CB52D24088239A
:10207000B1F0C8010E9481092AE030E040E050E060
:102080000E94B51D611571058105910521F4CE01F0
:1020900060E00E94990ECE010E946F0B23C0CE011A
:1020A0000E94ED0A1FC0C8010E9481092AE030E0A9
:1020B00040E050E00E94B51D611571058105910554
:1020C00071F4FE01E752FE4F80819181892B19F056
:1020D0001182108204C0CE0161E00E94990ECE01EF
:1020E0000E94950BDF91CF911F910F910895EF9270
:1020F000FF920F931F93CF93DF93EC017B018B0132
:10210000085F1F4FCB53DE4F8881C55CD1408823C9
:1021100079F1C15EDD4F288139814A815B81CF51E0
:10212000D240FB0180859185A285B38528173907A8
:102130004A075B0709F04FC0CF52DE4FF8012485F4
:10214000358588819981C15DD1402817390719F0FB
:10215000CE010E945A0F0E94D102AB01BC01405F28
:10216000504060407040CE0181529E4F0E944E0907
:10217000F80184859585892B71F1CE0181529E4F9E
:102180000E948109C653DE4F688379838A839B83CB
:102190002796F8018485958599838883C15DD14010
:1021A000DE01A252BE4FCD53DE4FE881F981C35C00
:1021B000D140EE5AFF4F80818C93CE01B7010E942F
:1021C0005C0D882329F0CE010E94950B81E004C0AC
:1021D000CE010E94ED0A80E0DF91CF911F910F9117
:1021E000FF90EF900895CF93DF93EC01CD53DE4F36
:1021F000888199810E943713882329F088819981E9
:102200000E94F61281E0DF91CF910895CF92DF9284
:10221000EF92FF920F931F938C01DB01CA019A0189
:10222000B5EDEB2EB1E0FB2EE00EF11EF701918330
:102230008083AFEDCA2EA1E0DA2EC00ED11E0D5262
:102240001E4FF80180819181281B390B2C573C4F80
:1022500040E050E0C60164E00E94E209F7012081FD
:10226000318120553B4FF80180819181281B390B2A
:1022700040E050E0C60165E00E94E209F7012081DC
:10228000318120573E4F40E050E0C60163E00E949C
:10229000E2091F910F91FF90EF90DF90CF9008958A
:1022A000CF92DF92EF92FF920F931F93CF93DF9322
:1022B000EC018B0198E0E92EF12CE60EF71EC55ECD
:1022C000DD4FDB0118962D913D914D915C911B974F
:1022D00088819981AA81BB81CB51D24028173907C7
:1022E0004A075B0721F0CE010E946B0C94C0FE01EF
:1022F000E853FE4FCA53DE4F88819981C65CD140B6
:1023000088539F4F918380838FEDC82E81E0D82E14
:10231000CC0EDD1EC6010E948709C65EDD4FF801A6
:1023200081818883CA54D040D7011E968C911E9714
:102330008883C05DD140FE01E153FE4F51969C91D0
:1023400051979083C352DE4F1F969C9198836B9751
:102350008883CA59DF4F18821082C356D04011E0DB
:102360001883C55CD14069E00E94601D88E2989F97
:10237000A0011124662757FD6095762FCE010E949B
:102380000611F70182899389FE01E55DFD4F1082F8
:1023900097FD1083813029F4C952DE4F84E190E02B
:1023A00006C0823049F4C952DE4F84E690E099833A
:1023B0008883C75DD1400CC0FE01E952FE4F8330D7
:1023C00019F480EB94E002C083E090E09183808375
:1023D000C253DE4F8881CE5CD140823041F4CD5271
:1023E000DE4F88EC90E099838883C35DD140C601BD
:1023F0000E948109C053DE4F2881620F711D811D2B
:10240000911D27962991399140E050E00E94B51D19
:102410007983688381E0DF91CF911F910F91FF90C5
:10242000EF90DF90CF9008950F931F93CF93DF939A
:10243000EC018B01FB019081892F8F70843021F496
:10244000CE010E9477102BC0953021F4CE010E945E
:10245000A80F17C0963021F4CE010E94501111C070
:10246000CE010E94390D882361F4F8018081883003
:1024700041F0807CA9F0CE01B8010E94380C80E0C8
:102480000FC0CB53DE4F8881C55CD140882321F03B
:10249000CE010E946F0B03C0CE010E94950B81E01C
:1024A000DF91CF911F910F910895CF93DF93DC01BE
:1024B000AD53BE4FED91FC911197A35CB140C6E2C4
:1024C000D4E0399680E2019009928150E1F7E6E28A
:1024D000F4E09AE28191980F84E0E634F807D1F7AE
:1024E000992311F080E006C0CD01BF016052704019
:1024F0000E941412DF91CF9108950F931F938C01C6
:1025000001521E4FC80162E028EC30E040E050E08C
:102510000E94E209C80160E028EB3BE040E050E0A7
:102520000E94E2091F910F910895EF92FF920F937D
:102530001F938C01CB0123ECE22E21E0F22EE00E62
:10254000F11EF701718360830E947B13F701808184
:10255000918164EF79E00E94F012C80140E050E000
:1025600060E070E00E940611C8010E945A0F1F919E
:102570000F91FF90EF9008950F931F938C0181525C
:102580009E4F0E94A90AF8940E94DE030E94391D02
:102590001093250400932404085D1D4FF801108258
:1025A00009551040F8011082065A1F4FF801108299
:1025B00004551040F801119211928F0183E090E0D0
:1025C0009183808304501040F80111821082035DD2
:1025D0001140C8010E947D121F910F910895089526
:1025E00070934904609348040895089508958AE318
:1025F00091E090934704809346048AE080934A04D4
:1026000091E09093D00410924D048CE180934E049D
:1026100090934F048FEE92E1909349048093480485
:10262000089586E494E00E940A1508950F931F937D
:102630008C0186E494E00E949813F80116821F91A1
:102640000F9108950F931F938C0186E494E00E94EC
:102650008D1389E0F80186831F910F910895FC0185
:1026600081E0868386E494E00E947F140895CF93EE
:10267000DF93EC0186E494E00E94B113482F882395
:1026800041F18091D6049091D704CE5ADF4F9983BF
:102690008883249780E290E0998388839091D40482
:1026A0009295990F90768091D4048F5F8093D40493
:1026B000DE01A554B04020E030E0E92FE20FF0E069
:1026C000E05BFB4F80818D932F5F3F4F20323105C0
:1026D000A1F7842FDF91CF910895FC01848182E0DE
:1026E000868380E283A7BC9686E494E0BF0140E243
:1026F0000E94EF1508950F931F9306E414E0C8019C
:1027000066E541E024E60E94B416C80161E00E943B
:1027100019151F910F9108950895FC01A081B181B1
:102720001E962D913C911F9760E0F901099508953F
:10273000FC01A081B1811E962D913C911F9761E013
:10274000F90109950895E091D804F091D904A08188
:10275000B18118962D913C911997CF01F9010995F6
:1027600008959091D3048091D40420E0981321E03F
:10277000822F0895DC018091D0048330C9F48091C8
:10278000D5048823A9F0ED91FC9111970684F78573
:10279000E02DCD0161E0099581E00895ED91FC9176
:1027A00011970280F381E02DCD01099580E0089515
:1027B0008091D004833091F780E008951F93CF93E8
:1027C000DF93EC01162FE881F9810288F389E02D6F
:1027D00009951F771EBD0DB407FEFDCF8EB51EBC3B
:1027E0000DB407FEFDCF1EB5E881F9810488F58997
:1027F000E02DCE010995812FDF91CF911F91089592
:102800000F931F93CF93DF93EC01162F042FE881D2
:10281000F9810288F389E02D099510681EBD0DB479
:1028200007FEFDCF8EB50EBD0DB407FEFDCF8EB5F4
:10283000E881F9810488F589E02DCE010995DF91C1
:10284000CF911F910F9108950F931F93CF93DF9313
:10285000EC018B01E881F9810684F785E02D61E0C8
:1028600009950115110521F1E881F9810288F389A3
:10287000E02DCE0109958EEB8EBD0DB407FEFDCF88
:102880008EB520E030E0F801E20FF31F80818EBDAD
:102890000DB407FEFDCF8EB52F5F3F4F20313105C0
:1028A00091F7E881F9810488F589E02DCE01099539
:1028B000CE016DE30E94DE13482F4E7F80E0012B96
:1028C00009F081E0482BCE016DE30E940014DF91F6
:1028D000CF911F910F9108950F931F938C0165E283
:1028E00040E40E940014D801ED91FC910684F78524
:1028F000E02DC80163E009951F910F9108950E9492
:102900006C140895CF93DF93EC01603208F06FE10F
:1029100068878985882311F066956887CE0161E113
:102920000E94DE13482F407E8885482BCE0161E14E
:102930000E940014DF91CF9108951F93CF93DF93EE
:10294000EC01162F8091D004681709F45FC0623043
:10295000D9F1633038F4662309F442C0613009F0DC
:1029600055C03AC06330C9F0643009F04FC0CE01A1
:1029700061E00E94DE13482F437E4C60CE0161E08F
:102980000E94001489858823A9F1E881F9810088D3
:10299000F189E02DCE0161E015C0CE0161E00E9419
:1029A000DE13482F437E4061CE0161E00E94001497
:1029B00089858823F9F0E881F9810088F189E02D83
:1029C000CE0160E0099516C0CE0161E00E94DE13E1
:1029D000482F437E48600AC0CE0161E044E008C051
:1029E000CE0161E00E94DE13482F437ECE0161E0FC
:1029F0000E9400148091D004882331F4CE0167E254
:102A00000E94DE138823B4F71093D004DF91CF9196
:102A10001F9108950F931F938C0161E044E00E9481
:102A20000014C80168E240E10E9400141F910F9158
:102A30000895FC0167830895CF93DF93EC016987C4
:102A4000662311F44AE101C04FE0CE0163E10E9428
:102A500000148985882341F0CE0161E10E94DE13D4
:102A6000482F4F71406602C048854068CE0161E141
:102A70000E940014DF91CF9108951F93CF93DF93AD
:102A8000EC01162F662311F445E501C04DE5CE019A
:102A90006AE50E940014112311F440E701C04CE7DD
:102AA000CE016CE50E940014DF91CF911F91089533
:102AB000CF93DF93EC01662389F08FE695E060E029
:102AC00071E00E94141DCE0163E241E00E940014F7
:102AD000CE0163E20E94DE1381FFFACFCE0164E2F1
:102AE0000E94DE13CE0164E20E94DE1390E0DF91CB
:102AF000CF9108951F93CF93DF93EC018091D2047F
:102B00008F5F8093D2048091D004833009F057C046
:102B1000CE0160E00E9458159093D7048093D604AC
:102B200010E0CE0168E20E94DE131F5F82FFF9CF42
:102B30001D31B8F7CE0168E20E94DE13182FE8813C
:102B4000F9810684F785E02DCE0161E0099580E2E8
:102B50008093D504E881F9810288F389E02DCE01C4
:102B600009951EBC0DB407FEFDCF8EB59091D30420
:102B70009295990F907620E030E0E92FE20F1EBC8D
:102B80000DB407FEFDCF8EB5F0E0E05BFB4F808318
:102B90002F5F3F4F2032310581F78091D3048F5F43
:102BA0008093D304E881F9810488F589E02DCE0172
:102BB00009951093D104EA81FB8180E20995DF91A8
:102BC000CF911F910895FC01848161E00E94FF195B
:102BD0000895FC01848160E00E94FF190895BF926E
:102BE000CF92DF92EF92FF920F931F93CF93DF93D9
:102BF000EC016B01B42E6091D2048FE695E04AE0BF
:102C000050E00E94021D8FE695E06AE171E00E94AB
:102C1000141DCE016DE30E94DE13482F4460CE01E7
:102C20006DE30E9400140E94D1027B018C0180910F
:102C3000D004813079F08091D004833059F00E9423
:102C4000D1026E197F09800B910B685E7340804042
:102C5000904068F3E881F9810484F585E02DCE0188
:102C600060E0A6012B2D099581E0DF91CF911F91A6
:102C70000F91FF90EF90DF90CF90BF900895EF926B
:102C8000FF920F931F93CF93DF93EC01042FF52E48
:102C9000122FE881F9810684F785E02D61E009951E
:102CA000CE0167E20E94DE1387FFFACFCE0165E214
:102CB00040E00E9400141E3308F01DE3E881F98112
:102CC0000288F389E02DCE01099580E88EBD0DB410
:102CD00007FEFDCF8EB5802F9F2D9C01F90190E05E
:102CE00008C080818EBD0DB407FEFDCF8EB59F5FFD
:102CF00031969117B0F3E881F9810488F589E02DC8
:102D0000CE010995E881F9810684F785E02DCE0191
:102D100064E009950E94D1027B018C0183E00E944E
:102D2000531A892B59F40E94D1026E197F09800B26
:102D3000910B643671058105910580F3E881F98175
:102D40000684F785E02DCE0161E00995E881F981DF
:102D50000280F381E02DCE010995DF91CF911F9183
:102D60000F91FF90EF900895BF92CF92DF92EF9274
:102D7000FF920F931F93DF93CF93CDB7DEB7E49706
:102D80000FB6F894DEBF0FBECDBF6C01B42E522F2C
:102D90006F3119F430EC4EE40EC06B3211F44CE696
:102DA00028C1663509F021C149ED04C0663511F02E
:102DB00030EC01C030E0FE01319684E3DF011D926A
:102DC0008A95E9F791E0998324E02A8382E08B8356
:102DD0009C8383E08D839E832F8380E4888785E0B6
:102DE000898786E08A878B8786E68C8797E09D8730
:102DF00028E02F8789E0898B81E18B8B8BED8C8B91
:102E000089E18D8B82E48E8B85E28F8B80EC888FBD
:102E100086E2898F9A8F88E28B8F80E18C8F89E29E
:102E20008D8F84EB8E8F9DE29F8F28A38EE289A3E6
:102E300080E98AA38FE28BA39CA390E39DA381E307
:102E40008FA38AEA88A787E389A788E18AA788E30E
:102E50008BA780E28CA78CE38DA78FE88EA78DE3EC
:102E60008FA782E188AB8FE689AB9AAB8FEF8BABF4
:102E70004E87388B5EA3F601848161E00E94FF19C2
:102E8000D60114968C9161E00E94C0190E944906F7
:102E900080E00E94330681E00E942A0680E00E94C2
:102EA00038060E94CC187B018C01C6016FE24AEA09
:102EB0000E940014C6016FE20E94DE138A3A09F4F0
:102EC0007CC00E94CC186E197F09800B910B623375
:102ED00071058105910508F070C0E7CFC6016FE26A
:102EE00045E50E940014C6016FE20E94DE1385359D
:102EF00009F468C00E94CC186E197F09800B910BF1
:102F0000623371058105910508F05CC0E7CFC60109
:102F100041810E9400141F5FE12FF0E0EE0FFF1FC0
:102F2000EE0DFF1D60816F3F91F7C60160E070E01C
:102F30000E942414D601ED91FC910684F785E02DC2
:102F4000C60161E009950E94CC187B018C01C60185
:102F500067E20E94DE1387FD3BC00E94CC186E1909
:102F60007F09800B910B623371058105910580F516
:102F7000EECF8FE695E062E271E00E94141D81E0E1
:102F800063EA73E143E050E00E94FB17D092D9045A
:102F9000C092D804F601B68281E0E4960FB6F894A8
:102FA000DEBF0FBECDBFCF91DF911F910F91FF907C
:102FB000EF90DF90CF90BF9008950E94CC187B01D6
:102FC0008C018CCF10E07E010894E11CF11CA4CF91
:102FD0000E94CC186E197F09800B910B623371052A
:102FE0008105910530F280E0D8CF44EE6B3209F0D4
:102FF000DDCE30E4E0CE823000F5E82FF0E0EE0FD9
:10300000FF1FE652FB4F71836083882319F08130E4
:10301000A1F408C0809169008C7F842B80936900A3
:10302000E89A089580916900440F551F440F551F79
:10303000837F842B80936900E99A08951F920F92F1
:103040000FB60F9211242F933F934F935F936F937B
:103050007F938F939F93AF93BF93EF93FF93809151
:10306000DA049091DB04892B29F0E091DA04F091E5
:10307000DB040995FF91EF91BF91AF919F918F91E3
:103080007F916F915F914F913F912F910F900FBE64
:103090000F901F9018951F920F920FB60F92112448
:1030A0002F933F934F935F936F937F938F939F9350
:1030B000AF93BF93EF93FF938091DC049091DD0475
:1030C000892B29F0E091DC04F091DD040995FF9152
:1030D000EF91BF91AF919F918F917F916F915F9190
:1030E0004F913F912F910F900FBE0F901F90189509
:1030F0001F920F920FB60F9211242F933F934F936D
:103100005F936F937F938F939F93AF93BF93209120
:10311000E2043091E3044091E4045091E50470919D
:10312000E604DA01C9010296A11DB11D672F6A5F8D
:103130006D3730F06D57DA01C9010396A11DB11D3D
:103140006093E6048093E2049093E304A093E40484
:10315000B093E5048091DE049091DF04A091E00437
:10316000B091E1040196A11DB11D8093DE049093FE
:10317000DF04A093E004B093E104BF91AF919F916D
:103180008F917F916F915F914F913F912F910F9010
:103190000FBE0F901F9018958FB7F8942091E204FE
:1031A0003091E3044091E4045091E5048FBFB901EC
:1031B000CA0108959FB7F8942091DE043091DF048E
:1031C0004091E0045091E10486B5A89B06C08F3F72
:1031D00021F02F5F3F4F4F4F5F4F9FBF542F432F23
:1031E000322F2227280F311D411D511D83E0220F50
:1031F000331F441F551F8A95D1F7B901CA0108959D
:103200009B01AC017FB7F8948091DE049091DF04BC
:10321000A091E004B091E10466B5A89B05C06F3FA2
:1032200019F00196A11DB11D7FBFBA2FA92F982FAC
:103230008827860F911DA11DB11D63E0880F991F7E
:10324000AA1FBB1F6A95D1F7BC012DC0FFB7F89428
:103250008091DE049091DF04A091E004B091E1043C
:10326000E6B5A89B05C0EF3F19F00196A11DB11D61
:10327000FFBFBA2FA92F982F88278E0F911DA11D50
:10328000B11DE3E0880F991FAA1FBB1FEA95D1F774
:10329000861B970B885E9340C8F221503040404017
:1032A000504068517C4F211531054105510571F69B
:1032B0000895019739F0019729F0880F991F019718
:1032C0000197F1F70895789484B5826084BD84B540
:1032D000816084BD85B5826085BD85B5816085BD11
:1032E000EEE6F0E0808181608083E1E8F0E010822A
:1032F000808182608083808181608083E0E8F0E06B
:10330000808181608083E1EBF0E080818460808354
:10331000E0EBF0E0808181608083EAE7F0E080818B
:1033200084608083808182608083808181608083EB
:103330008081806880831092C1000895982F8E301C
:1033400008F09E509770809135018295880F880F04
:10335000807C892B80937C0080917A0080648093AC
:103360007A0080917A0086FDFCCF20917800409110
:103370007900942F80E030E0282B392BC901089583
:10338000CF93DF93482F50E0CA0186569E4FFC0131
:1033900034914A575E4FFA018491882369F190E095
:1033A000880F991FFC01E859FE4FA591B491FC01CB
:1033B000EE58FE4FC591D491662351F42FB7F8947F
:1033C0008C91932F909589238C93888189230BC0AE
:1033D000623061F42FB7F8948C91932F90958923E4
:1033E0008C938881832B88832FBF06C09FB7F89466
:1033F0008C91832B8C939FBFDF91CF910895482FA1
:1034000050E0CA0182559E4FFC012491CA018656A4
:103410009E4FFC0194914A575E4FFA013491332339
:1034200009F440C0222351F1233071F0243028F4F4
:103430002130A1F0223011F514C02630B1F0273030
:10344000C1F02430D9F404C0809180008F7703C08C
:10345000809180008F7D8093800010C084B58F772D
:1034600002C084B58F7D84BD09C08091B0008F7784
:1034700003C08091B0008F7D8093B000E32FF0E017
:10348000EE0FFF1FEE58FE4FA591B4912FB7F894A1
:10349000662321F48C919095892302C08C91892B0D
:1034A0008C932FBF0895682F70E0CB0182559E4FFB
:1034B000FC012491CB0186569E4FFC0144916A5732
:1034C0007E4FFB019491992319F420E030E03CC039
:1034D000222351F1233071F0243028F42130A1F05F
:1034E000223011F514C02630B1F02730C1F024305D
:1034F000D9F404C0809180008F7703C08091800050
:103500008F7D8093800010C084B58F7702C084B512
:103510008F7D84BD09C08091B0008F7703C08091FA
:10352000B0008F7D8093B000892F90E0880F991FA5
:1035300084589E4FFC01A591B4918C9120E030E01D
:10354000842311F021E030E0C901089508951F920D
:103550000F920FB60F9211242F933F934F938F9397
:103560009F93EF93FF938091C00082FD1DC0409117
:10357000C60020912705309128052F5F3F4F2F73FC
:1035800030708091290590912A052817390771F02C
:10359000E0912705F0912805E951FB4F40833093D6
:1035A00028052093270502C08091C600FF91EF9166
:1035B0009F918F914F913F912F910F900FBE0F9040
:1035C0001F901895E0917B05F0917C05E05CFF4F22
:1035D0008191919120813181805C9F4F821B930B5F
:1035E00060E470E00E94801D892B11F00E94A61AF1
:1035F00008951F920F920FB60F9211242F933F93AD
:103600008F939F93EF93FF9320916B0530916C05FF
:1036100080916D0590916E052817390731F48091DE
:10362000C1008F7D8093C10014C0E0916D05F091C1
:103630006E05E55DFA4F208180916D0590916E05D4
:1036400001968F73907090936E0580936D05209313
:10365000C600FF91EF919F918F913F912F910F9015
:103660000FBE0F901F901895DC011C96ED91FC91F8
:103670001D97E05CFF4F8191919120813181805CA9
:103680009F4F821B930B60E470E00E94801D0895A1
:10369000DC011C96ED91FC911D97E05CFF4F2081B1
:1036A0003181E054F040DF01AE5BBF4F8D919C91C2
:1036B00011972817390719F42FEF3FEF07C08D91A5
:1036C0009C91E80FF91F8081282F30E0C9010895EF
:1036D000DC011C96ED91FC911D97E05CFF4F208171
:1036E0003181E054F040DF01AE5BBF4F8D919C9182
:1036F00011972817390719F42FEF3FEF10C08D915C
:103700009C911197E80FF91F20818D919C91119741
:1037100001968F73907011969C938E9330E0C9013F
:103720000895DC0191968C919197882339F05496F5
:10373000ED91FC915597808186FFF9CF91961C926F
:103740000895CF93DF93EC01EE85FF85E05CFF4F9A
:1037500020813181E054F0402F5F3F4F2F73307054
:10376000DF01AE5BBF4F8D919C91119728173907F0
:10377000D1F3E05CFF4F80819181E054F040E80F8D
:10378000F91F6083EE85FF85E05CFF4F3183208366
:10379000EE89FF89208181E090E00F8C02C0880FC4
:1037A000991F0A94E2F7282B208381E089A3EC89F2
:1037B000FD8980818064808381E090E0DF91CF91FA
:1037C0000895109272051092710588EE93E0A0E0C2
:1037D000B0E08093730590937405A0937505B09342
:1037E000760584E591E09093700580936F0587EEF0
:1037F00094E090937C0580937B058BE295E0909319
:103800007E0580937D0585EC90E090938005809304
:103810007F0584EC90E0909382058093810580EC95
:1038200090E0909384058093830581EC90E09093E1
:1038300086058093850582EC90E0909388058093BF
:10384000870586EC90E090938A058093890584E053
:1038500080938B0583E080938C0587E080938D05B2
:1038600085E080938E0581E080938F05089508950B
:10387000CF93DF930E9463190E94371C0E9453026A
:10388000C2EEDAE10E941E022097E1F30E94E21AE2
:10389000F9CFCF92DF92EF92FF920F931F93CF93C6
:1038A000DF937C016B018A01C0E0D0E00FC0D6013C
:1038B0006D916D01D701ED91FC910190F081E02DAA
:1038C000C7010995C80FD91F0150104001151105F6
:1038D00071F7CE01DF91CF911F910F91FF90EF9083
:1038E000DF90CF900895CF93DF93EC0161157105C0
:1038F00019F420E030E00FC0DB010D900020E9F763
:103900001197A61BB70BE881F9810280F381E02DA6
:10391000AD0109959C01C901DF91CF9108954F92A6
:103920005F927F928F929F92AF92BF92CF92DF92DF
:10393000EF92FF920F931F93DF93CF93CDB7DEB734
:10394000A1970FB6F894DEBF0FBECDBF2C01742E29
:10395000CB01223008F42AE019A231E2C32ED12C87
:10396000CC0EDD1E822E9924AA24BB24672D752F30
:10397000A50194010E94931D79018A01C801B70134
:10398000A50194010E94411D472D461B0894C108C2
:10399000D1084A3014F4405D01C0495CF60140830F
:1039A000E114F1040105110521F07E2C5F2DC80101
:1039B000DDCFC201B6010E94731CA1960FB6F89428
:1039C000DEBF0FBECDBFCF91DF911F910F91FF9052
:1039D000EF90DF90CF90BF90AF909F908F907F90AF
:1039E0005F904F900895DC012115310541F4ED9170
:1039F000FC910190F081E02D642F099508950E94BB
:103A00008F1C0895EF92FF920F931F939A01E62E59
:103A1000FF2400E010E0B801A7010E94F31C1F91F1
:103A20000F91FF90EF9008950E94731C0895EF92FC
:103A3000FF920F931F937B018C0161157105810526
:103A4000910529F420E030E040E050E00BC00E94F6
:103A50006101A80197010E94B51DAC01CB01DA01FB
:103A60009C01AD01B901CA011F910F91FF90EF9028
:103A70000895009729F0BC0180E090E00E94660163
:103A80000895629FD001739FF001829FE00DF11DA8
:103A9000649FE00DF11D929FF00D839FF00D749FC8
:103AA000F00D659FF00D9927729FB00DE11DF91F74
:103AB000639FB00DE11DF91FBD01CF0111240895D1
:103AC000991B79E004C0991F961708F0961B881F70
:103AD0007A95C9F780950895AA1BBB1B51E107C0D1
:103AE000AA1FBB1FA617B70710F0A61BB70B881F8E
:103AF000991F5A95A9F780959095BC01CD0108951D
:103B000097FB092E07260AD077FD04D0E5DF06D003
:103B100000201AF4709561957F4F0895F6F79095FF
:103B200081959F4F0895A1E21A2EAA1BBB1BFD0190
:103B30000DC0AA1FBB1FEE1FFF1FA217B307E4078C
:103B4000F50720F0A21BB30BE40BF50B661F771FE4
:103B5000881F991F1A9469F76095709580959095C4
:103B60009B01AC01BD01CF01089597FB092E0526ED
:103B70000ED057FD04D0D7DF0AD0001C38F4509582
:103B80004095309521953F4F4F4F5F4F0895F6F781
:103B900090958095709561957F4F8F4F9F4F0895B9
:103BA000EE0FFF1F0590F491E02D09942F923F92A4
:103BB0004F925F926F927F928F929F92AF92BF923D
:103BC000CF92DF92EF92FF920F931F93CF93DF93E9
:103BD000CDB7DEB7CA1BDB0B0FB6F894DEBF0FBE46
:103BE000CDBF09942A88398848885F846E847D8493
:103BF0008C849B84AA84B984C884DF80EE80FD8095
:103C00000C811B81AA81B981CE0FD11D0FB6F8940A
:0E3C1000DEBF0FBECDBFED010895F894FFCFCB
:103C1E002A0041646472657373202D204845582034
:103C2E002D2042494E00202D200049524E4E40403C
:103C3E00400052464D20696E697469616C697A65FF
:103C4E0000010000000100000000BA137F141C15D3
:103C5E0082147A158C133F169D143D15E915E31544
:103C6E0000000000A11B491C341B681B481B911B44
:00000001FF
