:100000000C94E3000C940C1D0C94391D0C940B0102
:100010000C940B010C940B010C940B010C945E0CD2
:100020000C940B010C940B010C940B010C940B0120
:100030000C940B010C940B010C940B010C940B0110
:100040000C94661D0C940B010C940B010C940B0189
:100050000C940B010C940B010C940B010C940B01F0
:100060000C940B010C940B01005EBCE2613FDD833C
:10007000C29C7E20A3FD1F419DC3217FFCA2401E88
:100080005F01E3BD3E6082DC237D9FC1421CFEA078
:10009000E1BF5D0380DE3C62BEE0025CDF81633D68
:1000A0007C22C09E1D43A1FF4618FAA427799BC558
:1000B00084DA3866E5BB5907DB856739BAE4065848
:1000C0001947A5FB7826C49A653BD987045AB8E638
:1000D000A7F91B45C6987A24F8A6441A99C7257B28
:1000E0003A6486D85B05E7B98CD2306EEDB3510F18
:1000F0004E10F2AC2F7193CD114FADF3702ECC9208
:10010000D38D6F31B2EC0E50AFF1134DCE90722CF7
:100110006D33D18F0C52B0EE326C8ED0530DEFB1E7
:10012000F0AE4C1291CF2D73CA947628ABF51749D7
:100130000856B4EA6937D58B5709EBB536688AD4C7
:1001400095CB2977F4AA4816E9B7550B88D6346AB7
:100150002B7597C94A14F6A8742AC896154BA9F7A7
:10016000B6E80A54D7896B35000000002400270048
:100170002A0000000000250028002B0000000000DD
:1001800023002600290004040404040404040202D9
:100190000202020203030303030301020408102006
:1001A0004080010204081020010204081020000011
:1001B0000007000201000003040600000000000028
:1001C00000006E01A31711241FBECFEFD8E0DEBFE1
:1001D000CDBF11E0A0E0B1E0EEEFF0E402C0059089
:1001E0000D92A032B107D9F714E0A0E2B1E001C04E
:1001F0001D92A53DB107E1F711E0C6ECD1E004C0C6
:100200002297FE010E944220C23CD107C9F70E94FA
:10021000951F0C947D200C940000A0E0B0E0E3E179
:10022000F1E00C944E20EC01A880B980CA80DB80FC
:10023000A114B104C104D10441F484E2A82E89EDD3
:10024000B82E8BE5C82E87E0D82EC601B5012DE16A
:1002500033EF41E050E00E94252027EA31E440E0FE
:1002600050E00E94D01F7B018C01C601B5012DE139
:1002700033EF41E050E00E942520CA01B9012CEE85
:1002800034EF4FEF5FEF0E94D01F6E0D7F1D801F78
:10029000911F97FF04C06150704080409048688370
:1002A00079838A839B839B01AC015F77B901CA0183
:1002B000CDB7DEB7EAE00C946A200E940D010895E4
:1002C00080E091E00E940D01089560930001709319
:1002D0000101809302019093030108950F931F93EE
:1002E00080E291E00E94621783E6809360030DEA4A
:1002F00013E0C80162E00E9430088BEB93E0B80184
:100300000E949C081F910F91089504C080E291E023
:100310000E94061780E291E00E946D158823B1F7D4
:1003200008950F931F93CF93DF93EC018091CE0339
:100330009091CF0387709070892BD9F40E940905A2
:100340000E9404039093CB038093CA030E94D003BE
:100350009093CD038093CC030E94D0039093CD0360
:100360008093CC030E940405809164008160809397
:1003700064008091CE039091CF0301969093CF03B8
:100380008093CE038E01085F1F4F8BEB93E062ECEE
:1003900073E00E94DE09F8019583848380E291E096
:1003A0000E94E80DF801848715868091CC03909116
:1003B000CD03938382838091CA039091CB03998765
:1003C0008887DF91CF911F910F9108950F931F930D
:1003D00080E291E00E94430E8823C9F080E291E020
:1003E0000E948B0E1092D70300ED13E080E2F8011B
:1003F00011928A95E9F7C8010E94910180E291E08B
:10040000B8010E94511380E291E00E94790F1F9180
:100410000F9108958BEB93E00E94AD09089580E25F
:1004200091E00E94430E882351F089E061E00E9430
:10043000ED1E0E940A0289E060E00E94ED1E089510
:100440008530F9F0863038F4833099F08430B0F498
:10045000823009F507C08536C9F08636B9F0843692
:10046000D1F417C080E291E00E9465140E940F024F
:10047000089580E291E00E942D1308950E94E60104
:10048000089580E291E00E94C90E08950E948501BE
:1004900008950E94850108951F93A89588E093E030
:1004A0000E94240D182F0E9420021123B9F71F91DA
:1004B00008950F931F9382E062E00E94AE1E0BEB43
:1004C00013E0C8010E94770AC80160E00E94AB08EF
:1004D000C80162EC73E040E00E94490A2091C80321
:1004E00030E040E050E0542F432F322F22278091FC
:1004F000C903280F311D411D511DB901CA011F91AA
:100500000F910895EF92FF920F931F930E94CA05D7
:1005100086E061E00E94AE1E86E061E00E94ED1E72
:100520008AE061E00E94AE1E8AE061E00E94ED1E5A
:100530005D9A5D988DE061E00E94AE1E8DE060E006
:100540000E94ED1E0E943905809164008F7D80938A
:1005500064000E940905789468EE73E080E090E002
:100560000E94EE1D0E9459027B018C010E9414051D
:1005700029E288E190E00FB6F894A8958093600096
:100580000FBE2093600080E090E0A7E1B0E0E80EAD
:10059000F91E0A1F1B1FE0924803F09249030093C3
:1005A0004A0310934B0380E090E0A9EEBFEFE80E02
:1005B000F91E0A1F1B1F80E291E069E573E00E94AB
:1005C000211787E0809354038091640080628093B8
:1005D0006400E114F1040105110579F45D9A6AE003
:1005E00070E080E090E00E94C1045D9861E070E0FE
:1005F00080E090E00E94C104F1CF0E9439051F9174
:100600000F91FF90EF9008950F931F93CF93DF9377
:100610008EE480937C0080917A00806880937A00D9
:100620006091F0037091F1038091F2039091F303D4
:100630002BE030E040E050E00E940320DC01CB01E1
:10064000EC0161E270E00E94EF1F8C016091F00309
:100650007091F1038091F2039091F3032DE030E06B
:1006600040E050E00E940320C60FD71FC00FD11FEB
:10067000C934D10529F4809164008E7F8093640091
:10068000CE0161E270E00E94EF1F8C016091F003E7
:100690007091F1038091F2039091F3032FE030E029
:1006A00040E050E00E940320C60FD71FC00FD11FAB
:1006B000C934D10529F4809164008E7F8093640051
:1006C000CE0161E270E00E94EF1F8C016091F003A7
:1006D0007091F1038091F2039091F3032DE030E0EB
:1006E00040E050E00E940320C60FD71FC00FD11F6B
:1006F000C934D10529F4809164008E7F8093640011
:10070000CE0161E270E00E94EF1F8C016091F00366
:100710007091F1038091F2039091F3032DE030E0AA
:1007200040E050E00E940320C60FD71FC00FD11F2A
:10073000C934D10529F4809164008E7F80936400D0
:1007400080917A0084FF05C080917A008061809357
:100750007A0080917A00806480937A0080917A0098
:1007600086FDFCCF609178009091790080917A00AD
:10077000806180937A00392F20E070E0262B372BA0
:10078000442737FD4095542F64EB7BE281E190E0F4
:100790000E942520C901DF91CF911F910F910895EB
:1007A0000F931F93CF93DF9388EC80937C0080910D
:1007B0007A00806880937A006091F0037091F10371
:1007C0008091F2039091F3032BE030E040E050E0A1
:1007D0000E940320DC01CB01EC0161E270E00E9489
:1007E000EF1F8C016091F0037091F1038091F2038F
:1007F0009091F3032DE030E040E050E00E940320B0
:10080000C60FD71FC00FD11FC934D10529F480915D
:1008100064008E7F80936400CE0161E270E00E94EC
:10082000EF1F8C016091F0037091F1038091F2034E
:100830009091F3032FE030E040E050E00E9403206D
:10084000C60FD71FC00FD11FC934D10529F480911D
:1008500064008E7F80936400CE0161E270E00E94AC
:10086000EF1F8C016091F0037091F1038091F2030E
:100870009091F3032DE030E040E050E00E9403202F
:10088000C60FD71FC00FD11FC934D10529F48091DD
:1008900064008E7F80936400CE0161E270E00E946C
:1008A000EF1F8C016091F0037091F1038091F203CE
:1008B0009091F3032DE030E040E050E00E940320EF
:1008C000C60FD71FC00FD11FC934D10529F480919D
:1008D00064008E7F8093640080917A0084FF05C05D
:1008E00080917A00806180937A0080917A008064A0
:1008F00080937A0080917A0086FDFCCF2091780069
:100900004091790080917A00806180937A00942FE1
:1009100080E030E0282B392BC901DF91CF911F9166
:100920000F9108952091F0033091F1034091F2036B
:100930005091F303B901CA0108952091F003309159
:10094000F1034091F2035091F3038091B200280F1C
:10095000311D411D511DB901CA01089583B7817F21
:10096000866083BF08958091B60083FDFCCF83B776
:10097000816083BF7894889583B78E7F83BF789496
:100980000895EF92FF920F931F937B018C012091AA
:10099000F0033091F1034091F2035091F303DC0135
:1009A000CB01820F931FA41FB51F8093F403909374
:1009B000F503A093F603B093F70383B7817F8660B6
:1009C00083BF8091B60083FDFCCF83B7816083BF76
:1009D0007894889583B78E7F83BF78948091F00355
:1009E0009091F103A091F203B091F303821B930B5A
:1009F000A40BB50BE816F9060A071B0710F71F91A1
:100A00000F91FF90EF90089580E880BF10927A00D8
:100A10000895E4E6F0E080818E7F808380E380BFEC
:100A200086E880937A00089580E880BFEAE7F0E0E6
:100A3000108210828FEF80937E0083E080937F008E
:100A400080E685BF80E485BFE4E6F0E080818160D8
:100A500080838081826080838081886080838081C0
:100A60008068808380818F7B808380818B7F80837F
:100A7000089521EB30E0F901108217BAA0E7B0E049
:100A80008C918E7F8C938C918D7F8C93E0EBF0E03A
:100A900080818C7F8083808182608083F901808166
:100AA000877F8083E6EBF0E080818062808383E053
:100AB000F901808381E08093B3008C9182608C93F4
:100AC00008952091F0033091F1034091F203509189
:100AD000F30390E00196AA2797FDA095BA2F820F05
:100AE000931FA41FB51F8093F0039093F103A0936D
:100AF000F203B093F3032091F0033091F10340919E
:100B0000F2035091F3038091F4039091F503A091C7
:100B1000F603B091F703281739074A075B0710F06F
:100B200080E008958091F0039091F103A091F20389
:100B3000B091F3032091F4033091F5034091F60353
:100B40005091F70384529F4FAF4FBF4F82179307C7
:100B5000A407B50710F482ED08952091F4033091B5
:100B6000F5034091F6035091F7038091F0039091C3
:100B7000F103A091F203B091F303622F681B862F5B
:100B800008956093F4037093F5038093F6039093B4
:100B9000F70308951F9314BE88E10FB6F89480936D
:100BA0006000109260000FBE10E0812F60E00E9494
:100BB000AE1E812F61E00E94AE1E812F60E00E9478
:100BC000ED1E1F5F143189F71F910895EF92FF9278
:100BD0000F931F930E94C81D7B018C0180E00E942F
:100BE0008C1E9C01442737FD4095542F2E0D3F1D30
:100BF000401F511F67E015950795F794E7946A9594
:100C0000D1F72E0D3F1D401F511FC9011F910F919C
:100C1000FF90EF900895CF93DF93C0E0D0E0FE0106
:100C2000E850FC4F83E094E0BE0140810E943A0608
:100C30002196CB30D10599F7DF91CF910895CF93CD
:100C4000DF93C0E0D0E083E094E0BE010E94330671
:100C5000FE01E850FC4F80832196CB30D10599F7F7
:100C6000DF91CF910895F999FECF72BD61BDF89AD9
:100C700080B50895F999FECF1FBA72BD61BD40BD20
:100C80000FB6F894FA9AF99A0FBE0895FC011386EC
:100C90001586148687E090E012863197009711F050
:100CA0000197FACF0895DC0180E00BC0E82FF0E057
:100CB0008D9190E0E827F927E859FF4FE4916150C2
:100CC0008E2F662399F70895DF92EF92FF920F938C
:100CD0001F93FC01E08001811281F894F801818169
:100CE0008E2981838281DE2CD0948D21828383E0C2
:100CF00090E00E94471EF80181818D2181838AE066
:100D000090E00E94471EF8010081789485E390E00E
:100D10000E94471E80E010E0FF240E211F21012BBE
:100D200009F081E01F910F91FF90EF90DF900895FF
:100D3000EF92FF920F931F93CF93DF937C0101E01B
:100D400010E0C0E0D0E0C7010E9464068111102BC2
:100D5000000F2196C830D105B1F7812FDF91CF91D7
:100D60001F910F91FF90EF9008951F93CF93DF9302
:100D7000FC011081C181D281912F909560FF12C03A
:100D8000F8948A8189238A838981812B89838AE0E7
:100D900090E00E94471E8A81812B8A83789487E3A2
:100DA00090E011C0F8948A8189238A838981812BFC
:100DB000898381E490E00E94471E8A81812B8A8387
:100DC000789485E090E00E94471EDF91CF911F91BB
:100DD0000895CF92DF92EF92FF920F931F93CF93DC
:100DE000DF938C01E42EFF24F394C0E0D0E0C62E04
:100DF000DD2460E08F2D90E08C219D21892B09F06E
:100E000061E0C8010E94B506FF0C2196C830D105EB
:100E100081F7EE20A9F4F894D8011196ED91FC9198
:100E2000129791818C918095982391831196ED91E1
:100E3000FC91129792818C9180959823928378945B
:100E4000DF91CF911F910F91FF90EF90DF90CF90A6
:100E500008956CEC40E00E94E9060895EF92FF923D
:100E60000F931F93CF93DF938C017B0165E540E0E7
:100E70000E94E906C0E0D0E0F701EC0FFD1FC801B9
:100E8000608140E00E94E9062196C830D105A1F7B3
:100E9000DF91CF911F910F91FF90EF900895DF9216
:100EA000EF92FF920F931F93CF93DF93FC0100818A
:100EB000C181D281F8948981D02ED0948D218983EB
:100EC00078941DE7E02EFF24115059F182E090E064
:100ED0000E94471E888190E08E219F21892BA1F3DB
:100EE000F8948A818D218A838981802B89837894E3
:100EF00080EE91E00E94471EF89489818D218983BC
:100F000086E490E00E94471E888110E090E0E8228D
:100F1000F922EF2809F411E078948AE991E00E941F
:100F2000471E812FDF91CF911F910F91FF90EF907E
:100F3000DF900895AF92BF92DF92EF92FF920F93EE
:100F40001F93CF93DF93EC015B018D85882309F01C
:100F500061C0CE010E944F07882329F41B861D869D
:100F60001C8690E06BC0CE0160EF40E00E94E90675
:100F700001E0DD24EE24FF24F394CE010E946406F8
:100F8000182FCE010E946406113019F48130E1F46B
:100F900039C0181709F58B85081770F460E0FE0159
:100FA000EE0DF11D838190E02F2D30E082239323FD
:100FB000181619064CF003C060E0081729F0093034
:100FC00008F04CC00C874AC0FE01EE0DF11D838174
:100FD0008F29838361E009C0612FFE01EE0DF11DB1
:100FE0009F2D9095838189238383CE010E94B5062E
:100FF0000F5FFF0C19F4E394FF24F39487E08E1540
:1010000008F0BBCF013430F0DB86DD2011F581E044
:101010008D871FC01B861D861C8690E0DE0120E0A8
:1010200030E0F501E20FF31F13968C911397808344
:101030002F5F3F4F11962830310599F7892FDF91A7
:10104000CF911F910F91FF90EF90DF90BF90AF90E5
:1010500008958B818823F1F291E0E0CFD02EBDCFAF
:10106000FF920F931F938C01F62E862F60E00E9453
:10107000AE1E8F2D90E0FC01E656FE4FE491D801A4
:10108000EC938A579E4FFC016491E62FF0E0EE0F3F
:10109000FF1FE458FE4F8591949112969C938E9376
:1010A00011971B961C921B971D961C921D971C96C0
:1010B0001C92F80187E090E012863197009711F0BA
:1010C0000197FACF1F910F91FF900895882319F48B
:1010D0008CB5806202C08CB58F7D8CBD08959CB5A7
:1010E000937F982B9CBD08952CB5382F33702C7F9F
:1010F000322B3CBD2DB590E09595879595958795BC
:1011000081702E7F822B8DBD08958AE061E00E9460
:10111000ED1E8AE061E00E94AE1E8CB580618CBD40
:101120008CB580648CBD8DE061E00E94AE1E8BE0CA
:1011300061E00E94AE1E0895FC018EEA98E0928B59
:10114000818B76836583148210828AE0818381E0BB
:10115000828383830895FC01628308950895EF924A
:10116000FF920F931F938C017B01FC018581968177
:101170000E944F07F80185819681B7010E942E07D2
:10118000F8018581968164EB40E00E94E906F80150
:10119000858196810E946406F82EF80185819681EA
:1011A0000E944F0780E0FF2009F481E01F910F911A
:1011B000FF90EF900895CF92DF92EF92FF920F93FE
:1011C0001F938C016B017A01FC01858196810E943D
:1011D0004F07F80185819681B6010E942E07F8011C
:1011E000858196816EEB40E00E94E906F8018581D9
:1011F00096810E949806F7018083F8018581968187
:101200000E949806F7018183F801858196810E94EA
:101210009806F7018283F801858196810E949806DD
:10122000F7018383F801858196810E949806F70172
:101230008483F801858196810E949806F701858351
:10124000F801858196810E949806F7018683F8014E
:10125000858196810E949806F7018783F801858130
:1012600096810E949806F7018087F8018581968112
:101270000E944F071F910F91FF90EF90DF90CF904A
:101280000895DF93CF93CDB7DEB729970FB6F894C3
:10129000DEBF0FBECDBFAE014F5F5F4F0E94DB08C8
:1012A0008981811181E029960FB6F894DEBF0FBEC7
:1012B000CDBFCF91DF910895CF92DF92EF92FF9251
:1012C0000F931F93CF93DF93EC016B01452BE1F05C
:1012D0008B818823C9F088818823B1F40E94BA1DCC
:1012E0007B018C01CE0160E070E00E9441098823FF
:1012F00059F40E94BA1D6E197F09800B910B6E5E26
:1013000072408040904070F3F6016081693039F09E
:101310006930A0F06A3041F06B3081F40AC06EE5AC
:1013200070E080E090E00EC06CEB70E080E090E058
:1013300009C067E771E080E090E004C06EEE72E003
:1013400080E090E00E94EE1DDF91CF911F910F9100
:10135000FF90EF90DF90CF900895CF93DF93EC0153
:101360008D819E810E944F078D819E810E94290759
:101370008D819E8164E448810E94E9068A818823E8
:1013800039F0CE012196BE0140E050E00E945C0998
:10139000DF91CF9108950F931F938A010E94DB087C
:1013A000C80168E00E94530620E0F8019085891783
:1013B00009F421E0822F1F910F910895DF93CF93BD
:1013C000CDB7DEB729970FB6F894DEBF0FBECDBFFD
:1013D000AE014F5F5F4F0E94CB09882319F428E1CB
:1013E0003CEF06C09A8180E0298130E0282B392B20
:1013F000C90129960FB6F894DEBF0FBECDBFCF91BD
:10140000DF910895DF93CF93CDB7DEB729970FB65D
:10141000F894DEBF0FBECDBF9C01FB0180818031FF
:10142000D9F0C901AE014F5F5F4F0E94CB098823FD
:10143000A9F08D818F3371F0803418F48F3171F4FD
:101440000BC08F3519F08F3749F402C08BE007C00D
:101450008CE005C08AE003C089E001C080E02996E5
:101460000FB6F894DEBF0FBECDBFCF91DF910895C8
:101470000F931F938B01CB0167E00E94530620E07E
:10148000F8019781891709F421E0822F1F910F91AC
:101490000895EF92FF920F931F93CF93DF93EC0188
:1014A0007B01042F8D819E810E94460610E007C0BB
:1014B000CE01B7010E94380A8823A9F00AC08D81A5
:1014C0009E81B7010E949A07882329F0101759F4CA
:1014D000EFCF81E001C080E0DF91CF911F910F91AC
:1014E000FF90EF9008951F5F0117A8F3E8CFAF9228
:1014F000BF92CF92DF92EF92FF920F931F93DF93F1
:10150000CF93CDB7DEB761970FB6F894DEBF0FBEAD
:10151000CDBF7C01FC01858196810E944606F701C2
:1015200014826E010894C11CD11C79E0A72EB12C45
:10153000AC0EBD1E01E02BC0C701B6010E94380AE7
:10154000882329F1F7018081882341F4C701B6017E
:101550000E94AF08882311F0F7010083C701B6018C
:10156000A5010E94DB08F7011181C701B6010E94A5
:10157000020A811718F4F701818104C0C701B6017E
:101580000E94020AF701818384818F5F8483F701BF
:1015900085819681B6010E949A07882369F6619633
:1015A0000FB6F894DEBF0FBECDBFCF91DF911F9174
:1015B0000F91FF90EF90DF90CF90BF90AF90089584
:1015C000DC014D915C91119721E00FC0FD01E80F06
:1015D000F91FEE5BFF4F8081E254F040861721F443
:1015E000EE57FE4F808108952F5F822F90E0841781
:1015F000950764F380E008950F931F93CF93DF93D3
:101600008C01FC01C081D18131E012C0EE0FFF1FBF
:10161000EE0FFF1FE00FF11FEE57FF4F808191810A
:10162000A281B38184179507A607B70739F03F5FFA
:10163000E32FF0E0EC17FD074CF302C0332301F574
:10164000C034D1053CF080E290E0F80191838083C2
:1016500080E017C0CC0FDD1FCC0FDD1FC00FD11FE6
:10166000CE57DF4F488359836A837B83F80180819B
:101670009181E80FF91F22830196F80191838083FD
:1016800081E0DF91CF911F910F910895CF92DF926A
:10169000EF92FF920F93CF93DF93EC016A017B01EE
:1016A000522F6881798141E013C0F901EE0FFF1FCD
:1016B000EE0FFF1FEC0FFD1FEE57FF4F8081918152
:1016C000A281B3818C159D05AE05BF0539F04F5F32
:1016D000242F30E02617370744F30FC0442369F066
:1016E000FE01E20FF31FEE5BFF4F5083E05CFE4F05
:1016F0000083E258F140828101C08FEFDF91CF91EA
:101700000F91FF90EF90DF90CF900895FC01118230
:1017100010820895CF92DF92EF92FF920F931F9362
:10172000CF93DF93EC010A851B852C853D854A8785
:101730005B876C877D87413187E2580780E06807C7
:1017400080E0780770F08E899F89A88DB98D6A0135
:101750007B01C81AD90AEA0AFB0ACA86DB86EC862C
:10176000FD86401B510B620B730BCB01BA0128EEB7
:1017700033E040E050E00E9403209B01AC01243F95
:1017800081E0380780E0480780E0580738F48EA9E8
:101790009FA9820F931F9FAB8EAB08C088AD99ADF8
:1017A00088519C4F821B930B99AF88AFDF91CF91EB
:1017B0001F910F91FF90EF90DF90CF900895FC0163
:1017C00064817581868197810895FC011186108658
:1017D0000895FC018085918501969187808720E09E
:1017E0006817790708F421E0822F0895EF92FF929D
:1017F0000F931F93CF93DF93FC01E288F388048952
:10180000158986899789A08DB18D0A97A109B1099B
:10181000E816F9060A071B0728F021E0E22EF12C52
:10182000012D112D828B938BA48BB58B118A108A7D
:10183000EF0161E070E02A8D3B8D4C8D5D8D8289DA
:101840009389A489B589281739074A075B0758F493
:10185000E216F3060407150730F4228B338B448B12
:10186000558B718B608B24966F5F7F4F683071054D
:1018700011F7DF91CF911F910F91FF90EF90089595
:10188000E62FF0E0EE0FFF1FEE0FFF1FE80FF91F2E
:10189000268B378B408F518F0E94F60B0895FC01E9
:1018A00066870895E0910504F091060487858F5FAF
:1018B0008787108211821282138208951F920F92DD
:1018C0000FB60F9211240F931F932F933F934F93B3
:1018D0005F936F937F938F939F93AF93BF93EF9398
:1018E000FF9303EB10E0F80180810E946105F8018D
:1018F00080836091040460956093040486E00E94F4
:10190000ED1EFF91EF91BF91AF919F918F917F91CC
:101910006F915F914F913F912F911F910F910F9078
:101920000FBE0F901F9018950F931F938C010E946C
:101930009204F8012285338544855585621B730B1B
:10194000840B950B26893789408D518D0E94032089
:101950001F910F910895AF92BF92CF92DF92EF92B5
:10196000FF920F931F93CF93DF93EC010E94920499
:101970005B016C018A859B85AC85BD85A81AB90A77
:10198000CA0ADB0A20E0A21620E0B20620E0C20666
:1019900020E1D206A8F08E899F89A88DB98DA80E66
:1019A000B91ECA1EDB1E20E0A21620E0B20620E00F
:1019B000C20620E1D20620F0A80EB91ECA1EDB1E08
:1019C000CE010E94940CEA88FB880C891D89EA0CE0
:1019D000FB1C0C1D1D1DE61AF70A080B190B80E0F5
:1019E000E81680E0F80680E0080780E1180740F07C
:1019F0008E899F89A88DB98DE80EF91E0A1F1B1FBD
:101A0000EA14FB040C051D0540F48E899F89A88DFE
:101A1000B98DE80EF91E0A1F1B1F6A857B858C8510
:101A20009D856E0D7F1D801F911F0E94C105B7010E
:101A3000C801DF91CF911F910F91FF90EF90DF9040
:101A4000CF90BF90AF900895EF92FF920F931F93A6
:101A5000CF93DF93EC010E94AE047894CE010E94F4
:101A6000AB0C7B018C0119C088819981AA81BB8153
:101A70000196A11DB11D88839983AA83BB830E940F
:101A8000B3048F85882349F01F866A857B858C8502
:101A90009D850E94C1051E853BC00E9492042A8537
:101AA0003B854C855D85621B730B840B950B6E1516
:101AB0007F0580079107C0F278941889112329F5D2
:101AC0008C819D81AE81BF810196A11DB11D8C834A
:101AD0009D83AE83BF836EE170E080E090E00E9462
:101AE000C1046C817D818E819F8120EB34E040E0D8
:101AF00050E00E942520611571058105910509F4CA
:101B000019EC188219821A821B82CE010E94F60BF0
:101B1000812FDF91CF911F910F91FF90EF9008954A
:101B20000F931F938C019093060480930504F894FF
:101B30000E943905F80117AA16AA11AE10AE118637
:101B40001086148215821682178280E09CE0A0E045
:101B5000B0E0868B978BA08FB18FC8010E94F60BE7
:101B60001F910F910895CF93DF93FC01EB01ED538B
:101B7000FE4F40815181E35CF1409B01475F5F4F25
:101B800080E2DA010D90AD01D9010D929D018150E5
:101B9000C1F79B81E952FE4F8081981739F0992354
:101BA00029F08C81882311F080E00FC0FE019AE2B9
:101BB00021E030E08191980F2F5F3F4F21323105B6
:101BC000C9F780E0992309F481E0DF91CF9108956E
:101BD000FC01EA53FE4F8081811181E00895FC01F0
:101BE000DC01A85CBD4F1C9277FF02C081E08C93A2
:101BF000613049F4E352FE4F83E090E0819391938A
:101C000087E790E03DC0623049F4E352FE4F84E143
:101C100090E0819391938BE291E032C0633049F47C
:101C2000E352FE4F84E690E08193919387E592E042
:101C300027C0643049F4E352FE4F8CE291E0918377
:101C40008083ED5DF14010C0DF01A352BE4F6530CF
:101C500029F480EB94E08D939C9309C081E090E09F
:101C60008D939C93643019F4E152FE4F04C0E1520D
:101C7000FE4F653019F48FEA94E002C08BE390E0E8
:101C8000918380830895FF920F931F938C01885155
:101C90009E4F0E94DF0BFF2403521E4FF80120814C
:101CA000318140E050E00E9425200C5F1F4FF80179
:101CB0002081318140E050E0621773078407950767
:101CC00011F4FF24F3948F2D1F910F91FF9008952D
:101CD000EF92FF920F931F938C0188519E4F65E600
:101CE0000E944F0C83ECE82E81E0F82EE00EF11EEE
:101CF0000A5C1D4FF70180819181F80160810E948B
:101D0000A117F701808191810E94DB171F910F912C
:101D1000FF90EF900895FC01DC01A853BE4F8C9119
:101D2000882361F01C92809164008B7F8093640013
:101D3000ED53FE4F808191810E94C2170895CF9389
:101D4000DF93EC01FC01E853FE4F8081882391F47E
:101D500081E08083CD53DE4F888199810E94CE1728
:101D6000CE01859664E60E944F0C809164008460E9
:101D700080936400DF91CF910895FC01E953FE4FF9
:101D80008081E75CF140882319F0CF010E949F0E0B
:101D90000895EF92FF920F931F93CF93DF93EC017F
:101DA000CA53DE4F8881C65CD14098EEE92E91E09F
:101DB000F92EEC0EFD1E882309F448C0C7010E94CD
:101DC000DF0BC353DE4F288139814A815B81CD5CB3
:101DD000D140265F3F4F4F4F5F4F261737074807C9
:101DE00059072CF4C953DE4F1882C75CD140C95340
:101DF000DE4F8881C75CD140882319F0CE010E9454
:101E00009F0EC7010E94DF0B8E0103531E4FF80186
:101E10002081318142815381265F3F4F4F4F5F4F79
:101E2000261737074807590784F5C7010E94DF0BBB
:101E3000645D7E4F8F4F9F4FF80160837183828373
:101E40009383C953DE4F81E088831FC0C7010E947E
:101E5000DF0B8E010F521E4FF8012081318142812C
:101E60005381245D3E4F4F4F5F4F2617370748077A
:101E700059075CF4C7010E94DF0BF801608371838E
:101E800082839383C953DE4F1882DF91CF911F91D4
:101E90000F91FF90EF9008950F931F93CF93DF93CF
:101EA000EC01C85CDD4F8881C853D2408823C9F05B
:101EB000CE010E948B0E8E010D531E4FCA52DE4F73
:101EC000F8018081918168810E94A117CE0142961C
:101ED00066E60E944F0CF801808191810E94DB1719
:101EE00003C0CE010E94C90EDF91CF911F910F91C7
:101EF00008950F931F938C0161E070E080E090E003
:101F00000E94C104C8010E944C0F1F910F910895B7
:101F1000CF93DF93FC01EB01E95CFD4F8081E75338
:101F2000F240882311F080E026C0E952FE4F808104
:101F3000E75DF1408A831E82DB019AE221E030E016
:101F40008D91980F2F5F3F4F21323105C9F7919541
:101F50009E83ED53FE4FA081B181E35CF1409C96DE
:101F600080E209900D928150E1F7ED53FE4F8081A0
:101F700091810E941918DF91CF910895DF93CF933B
:101F8000CDB7DEB7A0970FB6F894DEBF0FBECDBFBA
:101F9000FC01AB019E012F5F3F4F80E2DB010D9002
:101FA000BD01D9010D929D018150C1F788E089835F
:101FB000DA0111968C918D83E952FE4F8081E75DA5
:101FC000F1408A83CF01BE016F5F7F4F0E94880F6F
:101FD000A0960FB6F894DEBF0FBECDBFCF91DF91B4
:101FE00008956F927F928F929F92AF92BF92CF92FD
:101FF000DF92EF92FF920F931F93DF93CF93CDB7B2
:10200000DEB764970FB6F894DEBF0FBECDBF7C017C
:102010005B01DE011196FB01389684E101900D927F
:102020008150E1F77E2C6F2C49815A816B817C8134
:10203000C7012F850A890E94460B682F8F3F11F434
:1020400080E047C026ED31E0E20EF31EF70180810B
:102050002AE23EEFE20EF31E898BDE011196F501B6
:102060009E012B5E3F4F8D9180873196A217B3075B
:10207000D1F733ECC32E31E0D32ECE0CDF1C26E398
:10208000822E22E0922E8E0C9F1C662351F4F601C4
:1020900080819181F40160810E94A117F501138272
:1020A00014C0F5016383F60100811181872D962DFF
:1020B0000E94E00A682FC8010E94A117F6018081E2
:1020C0009181F40160810E94A117C701B5010E94AE
:1020D000880F64960FB6F894DEBF0FBECDBFCF91C8
:1020E000DF911F910F91FF90EF90DF90CF90BF9005
:1020F000AF909F908F907F906F900895EF92FF9296
:102100000F931F93DF93CF93CDB7DEB7A0970FB692
:10211000F894DEBF0FBECDBF8C017B01DE011196AE
:10212000FB0180E201900D928150E1F7F801ED533F
:10213000FE4F0B5C1D4F80819181F80160810E94F0
:10214000A117F70180818062898303511040F80153
:102150008081025212408C83C801BE016F5F7F4FA5
:102160000E94880FA0960FB6F894DEBF0FBECDBFB9
:10217000CF91DF911F910F91FF90EF900895FC0197
:10218000DB01E952FE4F9081E75DF14014968C919E
:102190001497891799F0992389F0E85CFD4F8081A5
:1021A000E853F240882361F013968C9113978917B6
:1021B00039F4CF010E947E1081E0089580E00895F7
:1021C00081E008958F929F92AF92BF92DF92EF923B
:1021D000FF920F931F93DF93CF93CDB7DEB7A097F6
:1021E0000FB6F894DEBF0FBECDBF7C014B0126ECCD
:1021F00031E0E20EF31ED7018C91EAE3FEEFEE0E22
:10220000FF1E870108511E4F4DECA42E41E0B42E55
:10221000AE0CBF1C882321F1C8010E94DF0BD50141
:102220002D913D914D915C9162177307840795073D
:102230000CF4F0C0C8010E94DF0B6D5F7F4F8F4F21
:102240009F4FF501608371838283938364E670E01E
:1022500080E090E00E94A61FD62EFCE3DF0E29C08E
:10226000C8010E94DF0BD5012D913D914D915C91EC
:1022700062177307840795070CF4CCC06CE370E019
:1022800080E090E00E94A61FD62EC8010E94DF0BBE
:102290002D2D30E040E050E02170307040705070E3
:1022A000260F371F481F591FF501208331834283B2
:1022B00053836D2D70E080E090E00E94C104F40132
:1022C00038962CE232E0E20EF31ED40118962D91DE
:1022D0003D914D915C911B97D7012D933D934D936B
:1022E0005C93139724ED3DEFE20EF31E8701005D32
:1022F0001D4F2481358146815781D8012D933D930F
:102300004D935C93139725ED31E0E20EF31E868525
:102310008F5FD7018C932DE430E0E20EF31ED401E1
:1023200011968C91D7018C936089E3E1F0E0EE0E79
:10233000FF1ED7016C93EEE8FFEFEE0EFF1ED701F4
:102340008D919C910E94A1179E01275F3F4F188697
:10235000AE014F5F5F4F80E2FA0111928A95E9F773
:1023600064E170E0E60EF71ED7018C918A8385E068
:102370008983F40182818C8381818D8385818E8321
:1023800061E570E0E60EF71EF70180819181A28180
:10239000B38189879A87AB87BC87F8018081918157
:1023A000A281B381F90184839583A683B78361EB0E
:1023B0007FEFE60EF71ED7018D919C91958784875C
:1023C000EDEFFFEFEE0EFF1ED7018C91F901808B30
:1023D00061E170E0E60EF71ED7018C91E9E1FEEFB6
:1023E000EE0EFF1ED9011F968C931F978CE090E094
:1023F00053969C938E935297F701EB51FE4F808139
:1024000051968C938F5F8083C701BA010E94880F19
:1024100081E001C080E0A0960FB6F894DEBF0FBE49
:10242000CDBFCF91DF911F910F91FF90EF90DF9083
:10243000BF90AF909F908F900895EF92FF920F936F
:102440001F93CF93DF93EC018B0158E0E52EF12C25
:10245000E60EF71ECA53DE4F8881C65CD140882342
:1024600009F441C0C45DDD4F288139814A815B8117
:10247000CC52D240FB0180859185A285B385281777
:1024800039074A075B0709F054C0C752DE4FF7010E
:102490002485358588819981C95DD1402817390700
:1024A00069F0CE0188519E4F0E94DF0BC353DE4F6F
:1024B000688379838A839B83CD5CD1405D9A0E9437
:1024C0009D04AB01BC01425D504060407040CE01B4
:1024D00088519E4F0E948A0BC953DE4F81E088834A
:1024E000C75CD1405D98F70184859585009709F117
:1024F000C752DE4F99838883C95DD140FE01E951FF
:10250000FE4FCD53DE4FA881B981C35CD140AE5A96
:10251000BF4F8C918083CE01B8010E94E2108823C6
:1025200029F0CE010E94680E81E004C0CE010E9415
:10253000BD0E80E0DF91CF911F910F91FF90EF9042
:102540000895EF92FF921F93DF93CF93CDB7DEB73D
:10255000A0970FB6F894DEBF0FBECDBF7C01162F3B
:102560000E948B0EF701ED53FE4FD701AA5CBD4FC1
:10257000808191816C910E94A117AE01475F5F4FEE
:102580001886FE01319680E2DF011D928A95E9F7F7
:10259000F701EC51FE4F20812F5F20832150E7EDA2
:1025A000F1E0EE0EFF1ED7013C91E1E5F0E0EE0E0A
:1025B000FF1EF70180819181A281B38189879A876B
:1025C000AB87BC8768E070E0E60EF71EF7018081FC
:1025D0009181A281B381FA0184839583A683B78315
:1025E00069EA7FEFE60EF71ED7018D919C919587E2
:1025F0008487EDEFFFEFEE0EFF1ED7018C91FA01FD
:10260000808B8E917D01EBE2FEEFEE0EFF1EDA0174
:102610001E968C931E97112351F01D961C921E92AC
:102620001C978CE090E053969C938E9352973A833C
:102630002E8384E08983C701BE016F5F7F4F0E94B4
:10264000880FA0960FB6F894DEBF0FBECDBFCF9116
:10265000DF911F91FF90EF900895CF93DF93EC01EE
:10266000C85CDD4F8881C853D2408823B9F0CE01C1
:1026700088519E4F0E94DF0B2AE030E040E050E09E
:102680000E942520611571058105910539F4CE015F
:1026900060E00E94A112CE010E94680EDF91CF91EE
:1026A0000895EF92FF920F931F938C017B01FC0121
:1026B000ED53FE4F0B5C1D4F80819181D8016C91D1
:1026C0000E94A11789E0F70180830E551040D801C0
:1026D0008C918183055B1F4FF8018081025212406B
:1026E000D70113968C931397F801ED51FE4F80811B
:1026F00015968C9315978F5F80830D5D1D4FF801A4
:1027000080810352124014968C93C801B7010E9435
:10271000880F1F910F91FF90EF900895EF92FF9215
:102720000F931F938C010A531E4FF80110820D5E08
:102730001F4F81E090E0F801918380830C5F1F4F71
:1027400083E090E0F8018193919384E190E081939C
:1027500091938F01118210820A511040F80110826A
:102760000A5F1F4FF80110821182128213820D5CE2
:10277000114068EEE62E61E0F62EE00EF11EC70174
:102780000E94DF0B0F521E4FF8016083718382831A
:1027900093830B5F1F4FF80110820E50104081E0B1
:1027A000F8018083085C1140C8010E94860B085D17
:1027B0001D4FF8014081518162817381085212409E
:1027C000C8012FEF0E94FC0A085C1D4FF80110821F
:1027D00008531240C7010E94E50BC80161E00E9446
:1027E000A11264E170E080E090E00E94C104C801A1
:1027F0000E94680E1F910F91FF90EF900895EF9245
:10280000FF920F931F93DF93CF93CDB7DEB76497FB
:102810000FB6F894DEBF0FBECDBF8C017B01085C04
:102820001D4FD8018C9108531240882309F440C0F1
:10283000AB01485F5F4FDE011196FA0184E1019020
:102840000D928150E1F7F7012281808185FF19C047
:102850000D5D1D4FD8018C9184830C541040F801FC
:102860008081D70111968C9304511040D801ED91CD
:10287000FC91035C1140EE5AFF4F8081FA0187877B
:1028800020E049815A816B817C81C8010E94FC0A49
:10289000882351F4C8010E948E13F801ED53FE4FB6
:1028A000808191810E94BD17C801B7010E947E10EE
:1028B00064960FB6F894DEBF0FBECDBFCF91DF9107
:1028C0001F910F91FF90EF900895EF92FF920F9359
:1028D0001F93CF93DF93EC0178EEE72E71E0F72E94
:1028E000E80EF91EC7016CED75E00E94E90B882324
:1028F00051F0CE010E948E13FE01ED53FE4F8081F8
:1029000091810E94BD17CA53DE4F8881C65CD140B9
:10291000882339F1C7010E94DF0B8E0103531E4F3C
:10292000F801208131814281538162177307840746
:1029300095070CF43FC0C7010E94DF0BF80120810E
:10294000318142815381265F3F4F4F4F5F4F621766
:1029500073078407950741F5CE0161E00E94A1123B
:1029600026C0C7010E94DF0BCF52DE4F288139817C
:102970004A815B81C15DD1402C5E3F4F4F4F5F4F1D
:10298000261737074807590754F4C953DE4F81E02B
:102990008883C75CD140CE010E949F0E0BC0C70147
:1029A0000E94DF0B62FF06C0CE010E948B0ECE019B
:1029B0000E94680EDF91CF911F910F91FF90EF90D1
:1029C0000895FC01E852FE4F808180932D041092FF
:1029D0002E04829180932F04829180933204E35BD2
:1029E000FF4F80818093310482918093300436962A
:1029F00080819181A281B3818093290490932A04DC
:102A0000A0932B04B0932C04CF01835690400E94D6
:102A10000B060895EF92FF920F931F93CF93DF93CE
:102A2000EC01FB01A8E0EA2EF12CE60EF71E8C016A
:102A3000085D1D4F2085318542855385F8018081D1
:102A40009181A281B381281739074A075B0711F0EA
:102A500080E016C0CE0188519E4F0E94E50BF70121
:102A600084819581A681B781F80180839183A283B7
:102A7000B383CE010E94E114CE010E94BD0E81E01D
:102A8000DF91CF911F910F91FF90EF9008950F93D9
:102A90001F938C018B539E4F0E941F0609521E4F9D
:102AA00080912F04F8018083055B1F4F80913004D3
:102AB000F80181938F018091310480830B54104081
:102AC00080912D04F80180830250104080913204DF
:102AD000F80180831F910F910895CF93DF93EC014C
:102AE000CD53DE4F888199810E94E317882329F016
:102AF000888199810E94A21781E0DF91CF9108958A
:102B0000AF92BF92CF92DF92EF92FF920F931F93FB
:102B10006C017A018B01B8EEAB2EB1E0BB2EA80E92
:102B2000B91E8BED91E0C80ED91ED6018D919C91F6
:102B3000A0E0B0E09A01AB01281B390B4A0B5B0BFC
:102B4000285A3D4F4F4F5F4FC50164E00E94400C33
:102B5000F60180819181A0E0B0E0A8019701281BD7
:102B6000390B4A0B5B0B205E3C4F4F4F5F4FC5014B
:102B700065E00E94400CD6018D919C91A0E0B0E0F0
:102B8000E81AF90A0A0B1B0B8CE291E0A0E0B0E016
:102B9000E80EF91E0A1F1B1FC50163E0A80197017B
:102BA0000E94400C1F910F91FF90EF90DF90CF900B
:102BB000BF90AF9008950F931F938C01FC01EE53CB
:102BC000FE4F09521E4FD8016C916083025A1F4F6D
:102BD000F80110820F551040D8011C920B5F1F4F57
:102BE000F801118210820B5D114070E080E090E0EE
:102BF00023E0660F771F881F991F2A95D1F728EECB
:102C000033E040E050E00E940320AB01BC01C8016A
:102C10000E94801508521E4FD8016C91085D11402A
:102C2000C80170E00E94EF0D1F910F910895AF92BF
:102C3000BF92CF92DF92EF92FF920F931F93CF93A9
:102C4000DF93EC018B0158E0E52EF12CE60EF71E28
:102C5000C85DDD4FFB012085318542855385888124
:102C60009981AA81BB81C852D240281739074A07E7
:102C70005B0729F0CE010E94F10F80E07CC048EE96
:102C8000C42E41E0D42ECC0EDD1EC6010E94E50B01
:102C9000CD5DDD4FF80181818883C352D24037ED8D
:102CA000A32E31E0B32EAC0EBD1EF7018685F501D3
:102CB0008083CA52DE4FF7018189888322968289F8
:102CC00088832E9687858883C65ED140CE010E9478
:102CD000DB15CA53DE4F8881C65CD1408823C9F416
:102CE000C6010E94DF0B8E010F511E4FF50120819E
:102CF000620F711D811D911DC352DE4F28813981E4
:102D0000CD5DD14040E050E00E942520F801718364
:102D10006083CA53DE4F81E08883C65CD140C60120
:102D20000E94DF0BFE01E353FE4FC152DE4F2881AC
:102D30003981CF5DD14040E050E0260F371F481F5A
:102D4000591F2083318342835383CE010E94E114B3
:102D5000CB52DE4F8881C55DD140823041F4C552EF
:102D6000DE4F88EC90E099838883CB5DD140CE0123
:102D70000E94BD0E81E0DF91CF911F910F91FF90D6
:102D8000EF90DF90CF90BF90AF9008950F931F9377
:102D9000CF93DF938C01EB019881892F8F70843062
:102DA00021F4C8010E941D122BC0953021F4C801E6
:102DB0000E94FF131EC0963021F4C8010E9417160E
:102DC00005C09C3031F4C8010E940A15882389F09F
:102DD00017C0C8010E94BF10882359F48881883029
:102DE00041F0807C71F0C801BE010E94BE0F80E0FE
:102DF00008C00D531E4FF801808191810E94DB179E
:102E000081E0DF91CF911F910F910895CF93DF93D0
:102E1000EC0169E074E00E94B30D882329F0CE0133
:102E200069E074E00E94C616DF91CF910895885141
:102E30009E4F62E028EC30E040E050E00E94400C01
:102E40000895CF93DF93EC01CD53DE4F79836883F0
:102E5000809164008B7F80936400CC58DF4F888121
:102E6000C753D240882319F4CB010E942718FE01D2
:102E7000ED53FE4F8081918162E57CE00E949C17BA
:102E8000CE0140E050E060E070E00E948015CE018D
:102E90000E948E13FE01EC5DFD4FC85DDD4F888101
:102EA0009981AA81BB81C852D24080839183A28339
:102EB000B383CE010E944715CE010E94DB15DF913E
:102EC000CF9108950F931F938C0188519E4F0E94BC
:102ED000900DF8940E94E6050E94C81F1093080404
:102EE000009307040B5C1D4FF80110820F55104032
:102EF000F8011082005A1F4FF80110820F5610403F
:102F0000F80110820A5E1F4F83E090E0F801819380
:102F100091938F0184E190E091838083045010406D
:102F2000F801118210820B5D1140C8010E94171731
:102F30001F910F910895089570933704609336049C
:102F400008950895089589E091E090933504809361
:102F500034048AE08093380491E09093BE04109288
:102F60003B048CE180933C0490933D048BE997E112
:102F70009093370480933604089584E394E00E948C
:102F80006A1A08950F931F938C0184E394E00E94C2
:102F90004E18F80116821F910F9108950F931F93F9
:102FA0008C0184E394E00E94391889E0F80186835B
:102FB0001F910F910895FC0181E0868384E394E0E2
:102FC0000E9456190895CF93DF93EC0184E394E0B7
:102FD0000E947118482F882341F18091C404909178
:102FE000C504CE5ADF4F99838883249780E290E00E
:102FF000998388839091C2049295990F90768091DD
:10300000C2048F5F8093C204DE01A554B04020E06B
:1030100030E0E92FE20FF0E0E25CFB4F80818D931E
:103020002F5F3F4F20323105A1F7842FDF91CF91E1
:103030000895FC01848182E0868380E283A7BC96A8
:1030400084E394E0BF0140E20E94C41A08950F9304
:103050001F9304E314E0C80166E541E024E60E9402
:103060009E1BC80161E00E94791A1F910F9108957B
:103070000895DC018091C3048F5F8093C304ED91B8
:10308000FC9111970684F785E02DCD0160E009954C
:103090008091C30481508093C3040895DC01809122
:1030A000C3048F5F8093C304ED91FC911197068454
:1030B000F785E02DCD0161E009958091C304815031
:1030C0008093C3040895E091C604F091C704A081E1
:1030D000B18118962D913C911997CF01F90109956D
:1030E00008959091C1048091C20420E0981321E0DA
:1030F000822F0895DC018091BE04833059F4ED9154
:10310000FC9111970684F785E02DCD0161E00995CA
:1031100081E008958091BE04833011F480E0089529
:10312000ED91FC9111970280F381E02DCD0109957D
:1031300080E008951F93CF93DF93EC01162FE88171
:10314000F9810288F389E02D09951F771EBD0DB422
:1031500007FEFDCF8EB51EBC0DB407FEFDCF1EB51C
:10316000E881F9810488F589E02DCE010995812F48
:10317000DF91CF911F9108950F931F93CF93DF930A
:10318000EC01162F042FE881F9810288F389E02DE4
:10319000099510681EBD0DB407FEFDCF8EB50EBD9E
:1031A0000DB407FEFDCF8EB5E881F9810488F5895D
:1031B000E02DCE010995DF91CF911F910F910895D8
:1031C000CF93DF93EC01662351F063E241E00E946C
:1031D000BC18CE0163E20E949A1881FFFACFCE019B
:1031E00064E20E949A18CE0164E20E949A1890E06C
:1031F000DF91CF9108950F931F93CF93DF93EC014D
:103200008B01E881F9810684F785E02D61E009955D
:103210000115110521F1E881F9810288F389E02D7A
:10322000CE0109958EEB8EBD0DB407FEFDCF8EB598
:1032300020E030E0F801E20FF31F80818EBD0DB475
:1032400007FEFDCF8EB52F5F3F4F2031310591F73F
:10325000E881F9810488F589E02DCE010995CE0138
:103260006DE30E949A18482F4E7F80E0012B09F0F1
:1032700081E0482BCE016DE30E94BC18DF91CF9115
:103280001F910F9108950F931F938C0165E240E405
:103290000E94BC18D801ED91FC910684F785E02DC1
:1032A000C80163E009951F910F9108950E94431989
:1032B00008951F93CF93DF93EC018091C0048F5F3B
:1032C0008093C0048091BE04833009F066C0809171
:1032D000C304882309F061C08091C3048F5F809389
:1032E000C304CE0160E00E94E0189093C50480936F
:1032F000C40410E0CE0168E20E949A181F5F82FFAA
:10330000F9CF1D31B8F7CE0168E20E949A18182F44
:10331000E881F9810684F785E02DCE0161E0099509
:10332000E881F9810288F389E02DCE0109951EBC60
:103330000DB407FEFDCF8EB59091C1049295990F03
:10334000907620E030E0E92FE20F1EBC0DB407FEBE
:10335000FDCF8EB5F0E0E25CFB4F80832F5F3F4FE7
:103360002032310581F78091C1048F5F8093C104C1
:10337000E881F9810488F589E02DCE010995109343
:10338000BF04CE010E944319EA81FB8180E20995C6
:103390008091C30481508093C304DF91CF911F912A
:1033A0000895CF93DF93EC01603208F06FE16887F6
:1033B0008985882311F066956887CE0161E10E94B6
:1033C0009A18482F407E8885482BCE0161E10E94E3
:1033D000BC18DF91CF910895FF920F931F93CF9365
:1033E000DF93EC01F62E8091BE04681709F46CC0DF
:1033F00082E0681709F440C0861740F0662309F49C
:1034000047C081E0681709F05FC03EC083E06817DD
:10341000E9F084E0681709F057C0CE0161E00E942E
:103420009A18482F437E4C60CE0161E00E94BC1880
:103430008985882341F0E881F9810088F189E02DB0
:10344000CE0161E0099500E010E02DC0CE0161E001
:103450000E949A18482F437E4061CE0161E00E948D
:10346000BC188985882379F3E881F9810088F1897E
:10347000E02DCE0160E0E6CFCE0161E00E949A1817
:10348000482F437E48600AC0CE0161E044E008C096
:10349000CE0161E00E949A18482F437ECE0161E080
:1034A0000E94BC18D0CF8091BE04882359F4CE016D
:1034B00067E20E949A1887FD05C00F5F1F4F05360F
:1034C000110589F7F092BE04DF91CF911F910F9102
:1034D000FF9008950F931F938C0161E044E00E94D8
:1034E000BC18C80168E240E10E94BC181F910F910E
:1034F0000895FC0167830895CF93DF93EC016987FA
:10350000662311F44AE101C04FE0CE0163E10E945D
:10351000BC188985882341F0CE0161E10E949A1888
:10352000482F4F71406602C048854068CE0161E176
:103530000E94BC18DF91CF9108951F93CF93DF9322
:10354000EC01162F662311F445E501C04DE5CE01CF
:103550006AE50E94BC18112311F440E701C04CE752
:10356000CE016CE50E94BC18DF91CF911F910895A8
:10357000FC01848161E00E94ED1E0895FC018481BC
:1035800060E00E94ED1E0895BF92CF92DF92EF920D
:10359000FF920F931F93CF93DF93EC016B01B42E37
:1035A0006DE30E949A18482F4460CE016DE30E949B
:1035B000BC180E9492047B018C018091BE04813072
:1035C00099F08091C304882321F48091BE04833054
:1035D00059F00E9492046E197F09800B910B685E6E
:1035E00073408040904048F38091C3048F5F809384
:1035F000C304E881F9810484F585E02DCE0160E003
:10360000A6012B2D09958091C30481508093C3049A
:1036100081E0DF91CF911F910F91FF90EF90DF90AC
:10362000CF90BF900895CF92DF92EF92FF920F93C9
:103630001F93CF93DF938C01E42ED52EF22EDC0165
:10364000ED91FC910684F785E02D61E00995C0E0DD
:10365000D0E0C80167E20E949A1887FD40C0219619
:10366000B3E0C93EDB07D9F1F4CF0DB407FEFDCFBF
:103670008EB58E2D9D2D9C01F90190E008C08081B2
:103680008EBD0DB407FEFDCF8EB59F5F31969F15A1
:10369000B0F3D801ED91FC910488F589E02DC801C3
:1036A0000995D801ED91FC910684F785E02DC801BC
:1036B00064E009950E9492046B017C0183E00E9402
:1036C000411F892B09F50E9492046C197D098E090E
:1036D0009F096436710581059105B0F4EFCFC801EB
:1036E00065E240E00E94BC18BDE3BF1510F44DE355
:1036F000F42ED801ED91FC910288F389E02DC801E8
:10370000099580E88EBDB1CFD801ED91FC9106847A
:10371000F785E02DC80161E00995D801ED91FC9194
:103720000280F381E02DC8010995DF91CF911F91AF
:103730000F91FF90EF90DF90CF900895BF92CF92BE
:10374000DF92EF92FF920F931F93DF93CF93CDB74A
:10375000DEB7E4970FB6F894DEBF0FBECDBF6C01A5
:10376000B42E522F6F3119F430EC4EE40EC06B3290
:1037700011F44CE62CC1663509F025C149ED04C0B1
:10378000663511F030EC01C030E0FE01319684E383
:10379000DF011D928A95E9F791E0998324E02A835D
:1037A00082E08B839C8383E08D839E832F8380E4E0
:1037B000888785E0898786E08A878B8786E68C877D
:1037C00097E09D8728E02F8789E0898B81E18B8BAB
:1037D00081E58C8B89E18D8B82E48E8B85E28F8BEA
:1037E00080EC888F86E2898F9A8F88E28B8F80E1C8
:1037F0008C8F89E28D8F84EB8E8F9DE29F8F28A323
:103800008EE289A380E98AA38FE28BA39CA390E335
:103810009DA381E38FA38AEA88A787E389A788E12C
:103820008AA788E38BA780E28CA78CE38DA78FE81B
:103830008EA78DE38FA782E188AB8FE689AB9AAB29
:103840008FEF8BAB4E87388B5EA384E060E00E94E5
:10385000ED1E84E061E00E94AE1EF601848161E00D
:103860000E94ED1ED60114968C9161E00E94AE1E5E
:103870000E94850880E00E946F0881E00E9466082F
:1038800080E00E9474081092C3040E94BA1D7B015C
:103890008C01C6016FE24AEA0E94BC18C6016FE2C1
:1038A0000E949A188A3A09F476C00E94BA1D6E19CD
:1038B0007F09800B910B663971058105910508F030
:1038C0006AC0E7CFC6016FE245E50E94BC18C60199
:1038D0006FE20E949A18853509F462C00E94BA1DF1
:1038E0006E197F09800B910B663971058105910571
:1038F00008F056C0E7CFC60141810E94BC181F5F87
:10390000E12FF0E0EE0FFF1FEE0DFF1D60816F3F16
:1039100091F7C60160E070E00E94FB18D601ED91BE
:10392000FC910684F785E02DC60161E009950E94AF
:10393000BA1D7B018C01C60167E20E949A1887FDBF
:1039400035C00E94BA1D6E197F09800B910B663934
:1039500071058105910550F5EECF81E063E678E1D0
:1039600043E050E00E94E91CD092C704C092C60414
:10397000F601B68281E0E4960FB6F894DEBF0FBE82
:10398000CDBFCF91DF911F910F91FF90EF90DF900E
:10399000CF90BF9008950E94BA1D7B018C0192CFF9
:1039A00010E07E010894E11CF11CAACF0E94BA1D10
:1039B0006E197F09800B910B6639710581059105A0
:1039C00060F280E0D8CF44EE6B3209F0D9CE30E41B
:1039D000DCCE823000F5E82FF0E0EE0FFF1FE85359
:1039E000FB4F71836083882319F08130A1F408C0F4
:1039F000809169008C7F842B80936900E89A0895F8
:103A000080916900440F551F440F551F837F842BFD
:103A100080936900E99A08951F920F920FB60F9252
:103A200011242F933F934F935F936F937F938F93C3
:103A30009F93AF93BF93EF93FF938091C8049091AE
:103A4000C904892B29F0E091C804F091C9040995B3
:103A5000FF91EF91BF91AF919F918F917F916F9166
:103A60005F914F913F912F910F900FBE0F901F903C
:103A700018951F920F920FB60F9211242F933F9318
:103A80004F935F936F937F938F939F93AF93BF9366
:103A9000EF93FF938091CA049091CB04892B29F076
:103AA000E091CA04F091CB040995FF91EF91BF9189
:103AB000AF919F918F917F916F915F914F913F91C6
:103AC0002F910F900FBE0F901F9018951F920F927D
:103AD0000FB60F9211242F933F934F935F936F93E1
:103AE0007F938F939F93AF93BF932091D004309196
:103AF000D1044091D2045091D3047091D404DA01DE
:103B0000C9010296A11DB11D672F6A5F6D3730F0A4
:103B10006D57DA01C9010396A11DB11D6093D4044C
:103B20008093D0049093D104A093D204B093D30493
:103B30008091CC049091CD04A091CE04B091CF049B
:103B40000196A11DB11D8093CC049093CD04A09348
:103B5000CE04B093CF04BF91AF919F918F917F918D
:103B60006F915F914F913F912F910F900FBE0F90EA
:103B70001F9018958FB7F8942091D0043091D104FC
:103B80004091D2045091D3048FBFB901CA01089566
:103B90009FB7F8942091CC043091CD044091CE048D
:103BA0005091CF0486B5A89B06C08F3F21F02F5FB0
:103BB0003F4F4F4F5F4F9FBF542F432F322F22272E
:103BC000280F311D411D511D83E0220F331F441F5B
:103BD000551F8A95D1F7B901CA0108959B01AC011F
:103BE0007FB7F8948091CC049091CD04A091CE043D
:103BF000B091CF0466B5A89B05C06F3F19F0019640
:103C0000A11DB11D7FBFBA2FA92F982F8827860F1E
:103C1000911DA11DB11D63E0880F991FAA1FBB1F35
:103C20006A95D1F7BC012DC0FFB7F8948091CC0400
:103C30009091CD04A091CE04B091CF04E6B5A89B9D
:103C400005C0EF3F19F00196A11DB11DFFBFBA2FAE
:103C5000A92F982F88278E0F911DA11DB11DE3E07C
:103C6000880F991FAA1FBB1FEA95D1F7861B970BD8
:103C7000885E9340C8F22150304040405040685127
:103C80007C4F211531054105510571F608950197C5
:103C900039F0019729F0880F991F01970197F1F7E3
:103CA0000895789484B5826084BD84B5816084BDB4
:103CB00085B5826085BD85B5816085BDEEE6F0E0A5
:103CC000808181608083E1E8F0E010828081826001
:103CD0008083808181608083E0E8F0E08081816082
:103CE0008083E1EBF0E0808184608083E0EBF0E0B2
:103CF000808181608083EAE7F0E080818460808356
:103D000080818260808380818160808380818068FF
:103D100080831092C1000895982F8E3008F09E5035
:103D20009770809104018295880F880F807C892B81
:103D300080937C0080917A00806480937A008091E7
:103D40007A0086FDFCCF2091780040917900942F75
:103D500080E030E0282B392BC9010895CF93DF9301
:103D6000482F50E0CA0186569E4FFC0134914A57B5
:103D70005E4FFA018491882369F190E0880F991FC2
:103D8000FC01E859FE4FA591B491FC01EE58FE4F9D
:103D9000C591D491662351F42FB7F8948C91932F49
:103DA000909589238C93888189230BC0623061F4BC
:103DB0002FB7F8948C91932F909589238C938881B9
:103DC000832B88832FBF06C09FB7F8948C91832BD9
:103DD0008C939FBFDF91CF910895482F50E0CA0187
:103DE00082559E4FFC012491CA0186569E4FFC01CC
:103DF00094914A575E4FFA013491332309F440C03D
:103E0000222351F1233071F0243028F42130A1F025
:103E1000223011F514C02630B1F02730C1F0243023
:103E2000D9F404C0809180008F7703C08091800016
:103E30008F7D8093800010C084B58F7702C084B5D9
:103E40008F7D84BD09C08091B0008F7703C08091C1
:103E5000B0008F7D8093B000E32FF0E0EE0FFF1FE6
:103E6000EE58FE4FA591B4912FB7F894662321F434
:103E70008C919095892302C08C91892B8C932FBFB4
:103E80000895682F70E0CB0182559E4FFC0124916C
:103E9000CB0186569E4FFC0144916A577E4FFB0131
:103EA0009491992319F420E030E03CC0222351F191
:103EB000233071F0243028F42130A1F0223011F5A4
:103EC00014C02630B1F02730C1F02430D9F404C03A
:103ED000809180008F7703C0809180008F7D8093D8
:103EE000800010C084B58F7702C084B58F7D84BDFB
:103EF00009C08091B0008F7703C08091B0008F7DA2
:103F00008093B000892F90E0880F991F84589E4FAE
:103F1000FC01A591B4918C9120E030E0842311F054
:103F200021E030E0C90108950895CF93DF930E9406
:103F3000511E0E94941F0E948202C0E0D0E00E94A5
:103F40004C022097E1F30E940000F9CFEF92FF921C
:103F50000F931F937B018C016115710581059105FC
:103F600029F420E030E040E050E00BC00E94600106
:103F7000A80197010E942520AC01CB01DA019C0128
:103F8000AD01B901CA011F910F91FF90EF90089503
:103F9000009729F0BC0180E090E00E94650108953F
:103FA000629FD001739FF001829FE00DF11D649F1D
:103FB000E00DF11D929FF00D839FF00D749FF00DA9
:103FC000659FF00D9927729FB00DE11DF91F639F4A
:103FD000B00DE11DF91FBD01CF0111240895AA1BE9
:103FE000BB1B51E107C0AA1FBB1FA617B70710F0E4
:103FF000A61BB70B881F991F5A95A9F78095909516
:10400000BC01CD010895A1E21A2EAA1BBB1BFD0124
:104010000DC0AA1FBB1FEE1FFF1FA217B307E407A7
:10402000F50720F0A21BB30BE40BF50B661F771FFF
:10403000881F991F1A9469F76095709580959095DF
:104040009B01AC01BD01CF01089597FB092E052608
:104050000ED057FD04D0D7DF0AD0001C38F450959D
:104060004095309521953F4F4F4F5F4F0895F6F79C
:1040700090958095709561957F4F8F4F9F4F0895D4
:10408000EE0FFF1F0590F491E02D09942F923F92BF
:104090004F925F926F927F928F929F92AF92BF9258
:1040A000CF92DF92EF92FF920F931F93CF93DF9304
:1040B000CDB7DEB7CA1BDB0B0FB6F894DEBF0FBE61
:1040C000CDBF09942A88398848885F846E847D84AE
:1040D0008C849B84AA84B984C884DF80EE80FD80B0
:1040E0000C811B81AA81B981CE0FD11D0FB6F89426
:0E40F000DEBF0FBECDBFED010895F894FFCFE7
:1040FE000100000001000000007A1856197C1AD148
:10410E001959193818131BEC199D1ABE1AB81A0032
:00000001FF
