:100000000C94E3000C94AF190C94DC190C940B01C4
:100010000C940B010C940B010C940B010C94CF0A63
:100020000C940B010C940B010C940B010C940B0120
:100030000C940B010C940B010C940B010C940B0110
:100040000C94091A0C940B010C940B010C940B01E9
:100050000C940B010C940B010C940B010C940B01F0
:100060000C940B010C940B01005EBCE2613FDD833C
:10007000C29C7E20A3FD1F419DC3217FFCA2401E88
:100080005F01E3BD3E6082DC237D9FC1421CFEA078
:10009000E1BF5D0380DE3C62BEE0025CDF81633D68
:1000A0007C22C09E1D43A1FF4618FAA427799BC558
:1000B00084DA3866E5BB5907DB856739BAE4065848
:1000C0001947A5FB7826C49A653BD987045AB8E638
:1000D000A7F91B45C6987A24F8A6441A99C7257B28
:1000E0003A6486D85B05E7B98CD2306EEDB3510F18
:1000F0004E10F2AC2F7193CD114FADF3702ECC9208
:10010000D38D6F31B2EC0E50AFF1134DCE90722CF7
:100110006D33D18F0C52B0EE326C8ED0530DEFB1E7
:10012000F0AE4C1291CF2D73CA947628ABF51749D7
:100130000856B4EA6937D58B5709EBB536688AD4C7
:1001400095CB2977F4AA4816E9B7550B88D6346AB7
:100150002B7597C94A14F6A8742AC896154BA9F7A7
:10016000B6E80A54D7896B35000000002400270048
:100170002A0000000000250028002B0000000000DD
:1001800023002600290004040404040404040202D9
:100190000202020203030303030301020408102006
:1001A0004080010204081020010204081020000011
:1001B0000007000201000003040600000000000028
:1001C00000006E01991411241FBECFEFD8E0DEBFEE
:1001D000CDBF11E0A0E0B1E0E4E4FAE302C0059095
:1001E0000D92A032B107D9F714E0A0E2B1E001C04E
:1001F0001D92AE3AB107E1F711E0C6ECD1E004C0C0
:100200002297FE010E94E51CC23CD107C9F70E945B
:10021000381C0C94201D0C940000A0E0B0E0E3E139
:10022000F1E00C94F11CEC01A880B980CA80DB805D
:10023000A114B104C104D10441F484E2A82E89EDD3
:10024000B82E8BE5C82E87E0D82EC601B5012DE16A
:1002500033EF41E050E00E94C81C27EA31E440E05F
:1002600050E00E94731C7B018C01C601B5012DE199
:1002700033EF41E050E00E94C81CCA01B9012CEEE6
:1002800034EF4FEF5FEF0E94731C6E0D7F1D801FD8
:10029000911F97FF04C06150704080409048688370
:1002A00079838A839B839B01AC015F77B901CA0183
:1002B000CDB7DEB7EAE00C940D1D0E940D01089544
:1002C00080E091E00E940D01089560930001709319
:1002D0000101809302019093030108950F931F93EE
:1002E00000E211E0C80162E00E94C3068EE291E0E4
:1002F000B8010E942F078DE391E00E945E1483E60F
:10030000809373031F910F91089504C08DE391E0D2
:100310000E9400148DE391E00E94A0128823B1F79F
:1003200008950F931F938C010E94EF03085F1F4FE6
:100330008EE291E065E371E00E947108F801958317
:100340008483085010400E94B702F801918780878B
:100350000E94E4031F910F9108950F931F938DE363
:1003600091E00E94ED0B882341F18DE391E00E9422
:100370001F0C8823D1F08DE391E00E94660C10924F
:10038000C70300EC13E080E2F80111928A95E9F7C7
:10039000C8010E9491018DE391E0B8010E941510FF
:1003A0008DE391E00E942C1204C08DE391E00E9445
:1003B0001E0C8DE391E00E94FF111F910F91089593
:1003C0008EE291E00E94400808958DE391E00E9442
:1003D000ED0B882341F08DE391E00E941F0C8823F0
:1003E00011F00E94E00108958530F9F0863038F46C
:1003F000833099F08430B0F4823009F507C0853637
:10040000C9F08636B9F08436D1F417C08DE391E097
:100410000E947B0C0E94E50108958DE391E00E940B
:100420003B1208950E94AD0108958DE391E00E9472
:10043000961108950E94850108950E9485010895EE
:100440001F935D9A8FE193E00E941C0B182F5D981B
:100450000E94F4011123A9F71F9108950F931F9390
:1004600082E062E00E94511B0EE211E0C8010E948E
:100470000A09C80160E00E943E07C80165E371E017
:1004800040E00E94DC0820913B0130E040E050E079
:10049000542F432F322F222780913C01280F311DEA
:1004A000411D511DB901CA011F910F910895EF928D
:1004B000FF920F931F9384E062E00E94511B86E03D
:1004C00061E00E94511B86E061E00E94901B8AE07F
:1004D00061E00E94511B8AE061E00E94901B85E070
:1004E00061E00E94511B85E061E00E94901B85E065
:1004F00060E00E94901B88E10FB6F8948093600042
:10050000109260000FBE8DE061E00E94511B8DE0F3
:1005100060E00E94901B0E942E027B018C010E94D1
:10052000FE03789480E090E0A7E1B0E0E80EF91EC9
:100530000A1F1B1FE0925B03F0925C0300935D03B4
:1005400010935E038DE391E06CE673E00E94321439
:1005500087E080936703E4E6F0E080818062808337
:100560000E9423041F910F91FF90EF9008950F9325
:100570001F93CF93DF938EE480937C0080917A0069
:10058000806880937A006091E0037091E10380912C
:10059000E2039091E3032BE030E040E050E00E9462
:1005A000A61CDC01CB01EC0161E270E00E94921C10
:1005B0008C016091E0037091E1038091E2039091DE
:1005C000E3032DE030E040E050E00E94A61CC60F9F
:1005D000D71FC00FD11FC934D10529F48091640001
:1005E0008E7F80936400CE0161E270E00E94921CD5
:1005F0008C016091E0037091E1038091E20390919E
:10060000E3032FE030E040E050E00E94A61CC60F5C
:10061000D71FC00FD11FC934D10529F480916400C0
:100620008E7F80936400CE0161E270E00E94921C94
:100630008C016091E0037091E1038091E20390915D
:10064000E3032DE030E040E050E00E94A61CC60F1E
:10065000D71FC00FD11FC934D10529F48091640080
:100660008E7F80936400CE0161E270E00E94921C54
:100670008C016091E0037091E1038091E20390911D
:10068000E3032DE030E040E050E00E94A61CC60FDE
:10069000D71FC00FD11FC934D10529F48091640040
:1006A0008E7F8093640080917A0084FF05C08091E2
:1006B0007A00806180937A0080917A0080648093D0
:1006C0007A0080917A0086FDFCCF6091780090914D
:1006D000790080917A00806180937A00392F20E040
:1006E00070E0262B372B442737FD4095542F64EBC1
:1006F0007BE281E190E00E94C81CC901DF91CF91AB
:100700001F910F9108952091E0033091E1034091F2
:10071000E2035091E303B901CA01089583B7817FD1
:10072000866083BF08958091B60083FDFCCF83B7B8
:10073000816083BF7894889583B78E7F83BF7894D8
:100740000895EF92FF920F931F937B018C012091EC
:10075000E0033091E1034091E2035091E303DC01B7
:10076000CB01820F931FA41FB51F8093E4039093C6
:10077000E503A093E603B093E70383B7817F866028
:1007800083BF8091B60083FDFCCF83B7816083BFB8
:100790007894889583B78E7F83BF78948091E003A7
:1007A0009091E103A091E203B091E303821B930BCC
:1007B000A40BB50BE816F9060A071B0710F71F91E3
:1007C0000F91FF90EF90089580E880BF10927A001B
:1007D0008FE380937E0083E080937F000895E4E6BA
:1007E000F0E080818E7F808380E380BF87E8809304
:1007F0007A0010927E0010927F00089580E880BFFA
:10080000EAE7F0E010828FE380937E0083E080933C
:100810007F00108280E685BF80E485BFE4E6F0E0DB
:100820008081816080838081826080838081886014
:10083000808380818068808380818F7B80838081BA
:100840008B7F8083089521EB30E0F901108217BA85
:10085000A0E7B0E08C918E7F8C938C918D7F8C93F0
:10086000E0EBF0E080818C7F8083808182608083F8
:10087000F9018081877F8083E6EBF0E080818062F0
:10088000808383E0F901808381E08093B3008C91C1
:1008900082608C9308952091E0033091E1034091B0
:1008A000E2035091E30390E00196AA2797FDA095FB
:1008B000BA2F820F931FA41FB51F8093E00390935C
:1008C000E103A093E203B093E3032091E0033091AE
:1008D000E1034091E2035091E3038091E40390919E
:1008E000E503A091E603B091E703281739074A070B
:1008F0005B0710F080E008958091E0039091E103A0
:10090000A091E203B091E3032091E4033091E50369
:100910004091E6035091E70384529F4FAF4FBF4F82
:1009200082179307A407B50710F482ED089520916C
:10093000E4033091E5034091E6035091E703809191
:10094000E0039091E103A091E203B091E303622FF1
:10095000681B862F08956093E4037093E5038093EA
:10096000E6039093E7030895EF92FF920F931F938E
:100970000E946B1A7B018C0180E00E942F1B9C015E
:10098000442737FD4095542F2E0D3F1D401F511F0A
:1009900087E015950795F794E7948A95D1F72E0D82
:1009A0003F1D401F511FC9011F910F91FF90EF90F4
:1009B0000895FC0113861586148687E090E0128660
:1009C0003197009711F00197FACF0895DC0180E08C
:1009D0000BC0E82FF0E08D9190E0E827F927E85967
:1009E000FF4FE49161508E2F662399F70895DF92AF
:1009F000EF92FF920F931F93FC01E080018112811F
:100A0000F894F80181818E2981838281DE2CD09433
:100A10008D21828383E090E00E94EA1AF8018181AF
:100A20008D2181838AE090E00E94EA1AF80100811A
:100A3000789485E390E00E94EA1A80E010E0FF24B9
:100A40000E211F21012B09F081E01F910F91FF90D2
:100A5000EF90DF900895EF92FF920F931F93CF9343
:100A6000DF937C0101E010E0C0E0D0E0C7010E940C
:100A7000F7048111102B000F2196C830D105B1F772
:100A8000812FDF91CF911F910F91FF90EF900895EB
:100A90001F93CF93DF93FC011081C181D281912FED
:100AA000909560FF12C0F8948A8189238A83898196
:100AB000812B89838AE090E00E94EA1A8A81812B47
:100AC0008A83789487E390E011C0F8948A8189231F
:100AD0008A838981812B898381E490E00E94EA1ACC
:100AE0008A81812B8A83789485E090E00E94EA1ABB
:100AF000DF91CF911F910895CF92DF92EF92FF92F5
:100B00000F931F93CF93DF938C01E42EFF24F39474
:100B1000C0E0D0E0C62EDD2460E08F2D90E08C2177
:100B20009D21892B09F061E0C8010E944805FF0C56
:100B30002196C830D10581F7EE20A9F4F894D801A8
:100B40001196ED91FC91129791818C91809598234B
:100B500091831196ED91FC91129792818C918095E1
:100B6000982392837894DF91CF911F910F91FF90FA
:100B7000EF90DF90CF9008956CEC40E00E947C05F0
:100B80000895EF92FF920F931F93CF93DF938C0101
:100B90007B0165E540E00E947C05C0E0D0E0F70104
:100BA000EC0FFD1FC801608140E00E947C0521968A
:100BB000C830D105A1F7DF91CF911F910F91FF9020
:100BC000EF900895DF92EF92FF920F931F93CF93D0
:100BD000DF93FC010081C181D281F8948981D02EFC
:100BE000D0948D21898378941DE7E02EFF24115045
:100BF00059F182E090E00E94EA1A888190E08E210B
:100C00009F21892BA1F3F8948A818D218A83898180
:100C1000802B8983789480EE91E00E94EA1AF89400
:100C200089818D21898386E490E00E94EA1A888177
:100C300010E090E0E822F922EF2809F411E078941E
:100C40008AE991E00E94EA1A812FDF91CF911F91EA
:100C50000F91FF90EF90DF900895AF92BF92DF92D7
:100C6000EF92FF920F931F93CF93DF93EC015B0101
:100C70008D85882309F061C0CE010E94E20588239A
:100C800029F41B861D861C8690E06BC0CE0160EFA8
:100C900040E00E947C0501E0DD24EE24FF24F39473
:100CA000CE010E94F704182FCE010E94F7041130E4
:100CB00019F48130E1F439C0181709F58B8508174C
:100CC00070F460E0FE01EE0DF11D838190E02F2DA8
:100CD00030E082239323181619064CF003C060E01D
:100CE000081729F0093008F04CC00C874AC0FE01F3
:100CF000EE0DF11D83818F29838361E009C0612F8F
:100D0000FE01EE0DF11D9F2D909583818923838334
:100D1000CE010E9448050F5FFF0C19F4E394FF24F5
:100D2000F39487E08E1508F0BBCF013430F0DB86FA
:100D3000DD2011F581E08D871FC01B861D861C8676
:100D400090E0DE0120E030E0F501E20FF31F1396A2
:100D50008C91139780832F5F3F4F11962830310578
:100D600099F7892FDF91CF911F910F91FF90EF900D
:100D7000DF90BF90AF9008958B818823F1F291E0CE
:100D8000E0CFD02EBDCFFF920F931F938C01F62E94
:100D9000862F60E00E94511B8F2D90E0FC01E656EB
:100DA000FE4FE491D801EC938A579E4FFC01649169
:100DB000E62FF0E0EE0FFF1FE458FE4F859194916F
:100DC00012969C938E9311971B961C921B971D96BF
:100DD0001C921D971C961C92F80187E090E01286E9
:100DE0003197009711F00197FACF1F910F91FF9063
:100DF0000895882319F48CB5806202C08CB58F7D6C
:100E00008CBD08959CB5937F982B9CBD08952CB5FF
:100E1000382F33702C7F322B3CBD2DB590E095954B
:100E200087959595879581702E7F822B8DBD08952E
:100E30008AE061E00E94901B8AE061E00E94511B01
:100E40008CB580618CBD8CB580648CBD8DE061E01B
:100E50000E94511B8BE061E00E94511B0895FC0130
:100E600081E497E0928B818B768365831482108274
:100E70008AE0818381E0828383830895FC01628319
:100E800008950895EF92FF920F931F938C017B01B9
:100E9000FC01858196810E94E205F8018581968199
:100EA000B7010E94C105F8018581968164EB40E09D
:100EB0000E947C05F801858196810E94F704F82E36
:100EC000F801858196810E94E20580E0FF2009F407
:100ED00081E01F910F91FF90EF900895CF92DF92E4
:100EE000EF92FF920F931F938C016B017A01FC012B
:100EF000858196810E94E205F80185819681B6017F
:100F00000E94C105F801858196816EEB40E00E9448
:100F10007C05F801858196810E942B05F70180836D
:100F2000F801858196810E942B05F7018183F801E4
:100F3000858196810E942B05F7018283F8018581C6
:100F400096810E942B05F7018383F80185819681A4
:100F50000E942B05F7018483F801858196810E9408
:100F60002B05F7018583F801858196810E942B0569
:100F7000F7018683F801858196810E942B05F70190
:100F80008783F801858196810E942B05F701808770
:100F9000F801858196810E94E2051F910F91FF90D3
:100FA000EF90DF90CF900895DF93CF93CDB7DEB76A
:100FB00029970FB6F894DEBF0FBECDBFAE014F5FCD
:100FC0005F4F0E946E078981811181E029960FB6DB
:100FD000F894DEBF0FBECDBFCF91DF910895CF92C1
:100FE000DF92EF92FF920F931F93CF93DF93EC0169
:100FF0006B01452BE1F08B818823C9F08881882320
:10100000B1F40E945D1A7B018C01CE0160E070E0BA
:101010000E94D407882359F40E945D1A6E197F0933
:10102000800B910B6E5E72408040904070F3F60131
:101030006081693039F06930A0F06A3041F06B307E
:1010400081F40AC06EE570E080E090E00EC06CEBC9
:1010500070E080E090E009C067E771E080E090E038
:1010600004C06EEE72E080E090E00E94911ADF9181
:10107000CF911F910F91FF90EF90DF90CF90089547
:10108000CF93DF93EC018D819E810E94E2058D81DB
:101090009E810E94BC058D819E8164E448810E94EE
:1010A0007C058A81882339F0CE012196BE0140E07B
:1010B00050E00E94EF07DF91CF9108950F931F93A7
:1010C0008A010E946E07C80168E00E94E60420E0E1
:1010D000F8019085891709F421E0822F1F910F9163
:1010E0000895DF93CF93CDB7DEB729970FB6F89465
:1010F000DEBF0FBECDBFAE014F5F5F4F0E945E08E7
:10110000882319F428E13CEF06C09A8180E0298108
:1011100030E0282B392BC90129960FB6F894DEBF91
:101120000FBECDBFCF91DF910895DF93CF93CDB7A1
:10113000DEB729970FB6F894DEBF0FBECDBF9C0176
:10114000FB0180818031D9F0C901AE014F5F5F4F53
:101150000E945E088823A9F08D818F3371F080345E
:1011600018F48F3171F40BC08F3519F08F3749F4B3
:1011700002C08BE007C08CE005C08AE003C089E0B4
:1011800001C080E029960FB6F894DEBF0FBECDBF38
:10119000CF91DF9108950F931F938B01CB0167E0EF
:1011A0000E94E60420E0F8019781891709F421E004
:1011B000822F1F910F910895EF92FF920F931F932B
:1011C000CF93DF93EC017B01042F8D819E810E94E0
:1011D000D90410E007C0CE01B7010E94CB088823D4
:1011E000A9F00AC08D819E81B7010E942D06882337
:1011F00029F0101759F4EFCF81E001C080E0DF91B2
:10120000CF911F910F91FF90EF9008951F5F0117ED
:10121000A8F3E8CFAF92BF92CF92DF92EF92FF9206
:101220000F931F93DF93CF93CDB7DEB761970FB6C0
:10123000F894DEBF0FBECDBF7C01FC018581968195
:101240000E94D904F70114826E010894C11CD11CBC
:1012500079E0A72EB12CAC0EBD1E01E02BC0C7015A
:10126000B6010E94CB08882329F1F70180818823E9
:1012700041F4C701B6010E944207882311F0F7012B
:101280000083C701B601A5010E946E07F701118115
:10129000C701B6010E949508811718F4F7018181F2
:1012A00004C0C701B6010E949508F70181838481BB
:1012B0008F5F8483F70185819681B6010E942D0698
:1012C000882369F661960FB6F894DEBF0FBECDBFD6
:1012D000CF91DF911F910F91FF90EF90DF90CF9012
:1012E000BF90AF900895DC014D915C91119721E082
:1012F0000FC0FD01E80FF91FEE5BFF4F8081E25444
:10130000F040861721F4EE57FE4F808108952F5F3D
:10131000822F90E08417950764F380E008950F937F
:101320001F93CF93DF938C01FC01C081D18131E009
:1013300012C0EE0FFF1FEE0FFF1FE00FF11FEE5761
:10134000FF4F80819181A281B38184179507A60701
:10135000B70739F03F5FE32FF0E0EC17FD074CF3E0
:1013600002C0332301F5C034D1053CF080E290E0A7
:10137000F8019183808380E017C0CC0FDD1FCC0F74
:10138000DD1FC00FD11FCE57DF4F488359836A83BB
:101390007B83F80180819181E80FF91F22830196F8
:1013A000F8019183808381E0DF91CF911F910F91AC
:1013B0000895CF92DF92EF92FF920F93CF93DF9336
:1013C000EC016A017B01522F6881798141E013C0F1
:1013D000F901EE0FFF1FEE0FFF1FEC0FFD1FEE5781
:1013E000FF4F80819181A281B3818C159D05AE054F
:1013F000BF0539F04F5F242F30E02617370744F33D
:101400000FC0442369F0FE01E20FF31FEE5BFF4FB4
:101410005083E05CFE4F0083E258F140828101C0BE
:101420008FEFDF91CF910F91FF90EF90DF90CF90F2
:101430000895FC01118210820895CF93DF93EC018F
:101440008A859B85AC85BD854A875B876C877D8750
:10145000481B590B6A0B7B0BCB01BA0128EE33E01A
:1014600040E050E00E94A61C9B01AC01243F81E0BB
:10147000380780E0480780E0580738F48EA99FA914
:10148000820F931F9FAB8EAB08C088AD99AD88517A
:101490009C4F821B930B99AF88AFDF91CF9108953A
:1014A000FC0164817581868197810895FC01118614
:1014B00010860895FC01808591850196918780872B
:1014C00020E06817790708F421E0822F0895EF9251
:1014D000FF920F931F93CF93DF93FC01E288F38871
:1014E0000489158986899789A08DB18D0A97A109EC
:1014F000B109E816F9060A071B0728F021E0E22ED9
:10150000F12C012D112D828B938BA48BB58B118A1D
:10151000108AEF0161E070E02A8D3B8D4C8D5D8D6E
:1015200082899389A489B589281739074A075B07F7
:1015300058F4E216F3060407150730F4228B338BB8
:10154000448B558B718B608B24966F5F7F4F683017
:10155000710511F7DF91CF911F910F91FF90EF90DF
:101560000895E62FF0E0EE0FFF1FEE0FFF1FE80FCC
:10157000F91F268B378B408F518F0E94670A089581
:10158000FC0166870895E091E903F091EA038785FD
:101590008F5F8787108211821282138208951F92B3
:1015A0000F920FB60F9211240F931F932F933F9317
:1015B0004F935F936F937F938F939F93AF93BF935B
:1015C000EF93FF9303EB10E0F80180810E944B043E
:1015D000F80180836091E80360956093E80386E0FA
:1015E0000E94901BFF91EF91BF91AF919F918F91BE
:1015F0007F916F915F914F913F912F911F910F912B
:101600000F900FBE0F901F9018950F931F938C0192
:101610000E948303F8012285338544855585621B2A
:10162000730B840B950B26893789408D518D0E9451
:10163000A61C1F910F910895AF92BF92CF92DF9297
:10164000EF92FF920F931F93CF93DF93EC010E94D1
:101650008E0378940E9483037B018C018A859B858D
:10166000AC85BD85E81AF90A0A0B1B0BCE010E9456
:10167000050B57016801A61AB70AC80AD90A8A8950
:101680009B89AC89BD89A80EB91ECA1EDB1EAE148B
:10169000BF04C006D10640F48E899F89A88DB98DFC
:1016A000A80EB91ECA1EDB1E6A857B858C859D85AA
:1016B0006A0D7B1D8C1D9D1D0E94AB041AC0888184
:1016C0009981AA81BB810196A11DB11D888399834F
:1016D000AA83BB830E9493038F85882351F01F86C2
:1016E0006A857B858C859D850E94AB045D9A1E85ED
:1016F00045C00E9483032A853B854C855D85621B1E
:10170000730B840B950B6A157B058C059D05B8F250
:1017100078941889112379F55D9A8C819D81AE8129
:10172000BF810196A11DB11D8C839D83AE83BF83B4
:101730006EE170E080E090E00E94A1032E893F8975
:10174000488D598D60E87EEE86E390E00E94A61CED
:1017500040E050E06C817D818E819F810E94C81C99
:10176000611571058105910509F419EC188219823A
:101770001A821B825D98CE010E94670A812FDF9139
:10178000CF911F910F91FF90EF90DF90CF90BF907E
:10179000AF9008950F931F938C019093EA03809369
:1017A000E903F8940E942304F80117AA16AA11AEBF
:1017B00010AE11861086148215821682178288EB6D
:1017C0009BE0A0E0B0E0868B978BA08FB18FC80123
:1017D0000E94670A1F910F910895FC01EB53FE4F81
:1017E0008081811181E00895FC01DC01A25DBD4F83
:1017F0001C9277FF02C081E08C93613029F4E6529D
:10180000FE4F84E190E017C0623029F4E652FE4FAB
:1018100084E690E010C0633029F4E652FE4F8CE27B
:1018200091E009C0E652FE4F643019F480EB94E079
:1018300002C083E090E09183808308950895FF9231
:101840000F931F938C018E519E4F0E94500AFF24CC
:1018500006521E4FF801219131918F0140E050E076
:101860000E94C81CF8012081318140E050E06217DD
:1018700073078407950711F4FF24F3948F2D1F91AC
:101880000F91FF900895EF92FF920F931F938C0199
:101890008E519E4F65E60E94C00A83ECE82E81E0DF
:1018A000F82EE00EF11E045D1D4FF701808191813D
:1018B000F80160810E949714F701808191810E9454
:1018C000D1141F910F91FF90EF900895FC01DC015E
:1018D000AA53BE4F8C91882369F01C9280916400BA
:1018E0008B7F80936400ED53FE4F808191810E9435
:1018F000B8145D9A0895CF93DF93EC01CB53DE4F7C
:101900008881C55CD1409E012E513E4F882389F0CD
:10191000C9010E94500AC753DE4F288139814A818C
:101920005B81C95CD140621773078407950734F463
:101930000BC0C9010E94500A62FF06C0CE010E947E
:10194000660CCE010E94430CDF91CF910895CF9396
:10195000DF93EC01FC01EA53FE4F8081882399F468
:1019600081E08083CD53DE4F888199810E94C41429
:10197000CE014F9664E60E94C00A809164008460A4
:10198000809364005D98DF91CF910895EF92FF926C
:101990000F931F93CF93DF93EC01CB53DE4F8881DE
:1019A000C55CD1408823E9F0C753DE4FE880F98059
:1019B0000A811B81C95CD14083E190E0A0E0B0E0E6
:1019C000E80EF91E0A1F1B1FCE018E519E4F0E946A
:1019D000500AE616F706080719071CF0CE010E9408
:1019E000A70CDF91CF911F910F91FF90EF90089579
:1019F000CF93DF93FC01EB01E35DFD4F8081ED525E
:101A0000F240882311F080E026C0ED52FE4F808125
:101A1000E35DF1408A831E82DB019AE221E030E03F
:101A20008D91980F2F5F3F4F21323105C9F7919566
:101A30009E83ED53FE4FA081B181E35CF1409C9603
:101A400080E209900D928150E1F7ED53FE4F8081C5
:101A500091810E940F15DF91CF910895DF93CF936D
:101A6000CDB7DEB7A0970FB6F894DEBF0FBECDBFDF
:101A7000FC01AB019E012F5F3F4F80E2DB010D9027
:101A8000BD01D9010D929D018150C1F788E0898384
:101A9000DA0111968C918D83ED52FE4F8081E35DCA
:101AA000F1408A83CF01BE016F5F7F4F0E94F80C27
:101AB000A0960FB6F894DEBF0FBECDBFCF91DF91D9
:101AC00008956F927F928F929F92AF92BF92CF9222
:101AD000DF92EF92FF920F931F93DF93CF93CDB7D7
:101AE000DEB764970FB6F894DEBF0FBECDBF7C01A2
:101AF0005B01DE011196FB01389684E101900D92A5
:101B00008150E1F77E2C6F2C49815A816B817C8159
:101B1000C7012F850A890E94D909682F8F3F11F4C8
:101B200080E047C022ED31E0E20EF31EF701808134
:101B30002EE23EEFE20EF31E898BDE011196F501D7
:101B40009E012B5E3F4F8D9180873196A217B30780
:101B5000D1F723ECC22E21E0D22ECE0CDF1C9CE26A
:101B6000892E92E0992E8E0C9F1C662351F4F6016B
:101B700080819181F40160810E949714F5011382A4
:101B800014C0F5016383F60100811181872D962D24
:101B90000E947309682FC8010E949714F601808182
:101BA0009181F40160810E949714C701B5010E94E0
:101BB000F80C64960FB6F894DEBF0FBECDBFCF9180
:101BC000DF911F910F91FF90EF90DF90CF90BF902A
:101BD000AF909F908F907F906F900895EF92FF92BB
:101BE0000F931F93DF93CF93CDB7DEB7A0970FB6B8
:101BF000F894DEBF0FBECDBF8C017B01DE011196D4
:101C0000FB0180E201900D928150E1F7F801ED5364
:101C1000FE4F055D1D4F80819181F80160810E941A
:101C20009714F7018081806289830F501040F8017A
:101C300080810C5112408C83C801BE016F5F7F4FC1
:101C40000E94F80CA0960FB6F894DEBF0FBECDBF71
:101C5000CF91DF911F910F91FF90EF900895FC01BC
:101C6000DB01ED52FE4F9081E35DF14014968C91C3
:101C70001497891799F0992389F0EB53FE4F8081CF
:101C8000E55CF140882361F013968C9113978917D6
:101C900039F4CF010E94EE0D81E0089580E00895AF
:101CA00081E008958F929F92AF92BF92DF92EF9260
:101CB000FF920F931F93DF93CF93CDB7DEB7A0971B
:101CC0000FB6F894DEBF0FBECDBF7C014B01FC0107
:101CD000E953FE4F8081918101969183808325ECA9
:101CE00031E0E20EF31ED7018C91EBE3FEEFEE0E36
:101CF000FF1E87010E511E4F39ECA32E31E0B32E8B
:101D0000AE0CBF1C882321F1C8010E94500AD501E6
:101D10002D913D914D915C91621773078407950752
:101D20000CF4EAC0C8010E94500A6D5F7F4F8F4FCC
:101D30009F4FF501608371838283938364E670E033
:101D400080E090E00E94491CD62EFCE3DF0E29C003
:101D5000C8010E94500AD5012D913D914D915C9191
:101D600062177307840795070CF4C6C06CE370E034
:101D700080E090E00E94491CD62EC8010E94500AC3
:101D80002D2D30E040E050E02170307040705070F8
:101D9000260F371F481F591FF501208331834283C7
:101DA00053836D2D70E080E090E00E94A103F40168
:101DB000389622E232E0E20EF31ED40118962D91FD
:101DC0003D914D915C911B97D7012D933D934D9380
:101DD0005C9313972EED3DEFE20EF31E87010A5D33
:101DE0001D4F2481358146815781D8012D933D9324
:101DF0004D935C93139721ED31E0E20EF31E86853F
:101E00008F5FD7018C932BE030E0E20EF31E81E070
:101E100090E0D7018D939C9320E430E0E20EF31E16
:101E2000D40111968C91D7018C936089EFE0F0E09A
:101E3000EE0EFF1ED7016C93E8E9FFEFEE0EFF1EDA
:101E4000D7018D919C910E949714FE0139961886B6
:101E50009E012F5F3F4F80E2D9011D928A95E9F7DD
:101E600040E150E0E40EF51ED7018C918A8385E0B5
:101E70008983D40112968C9112978C8311968C9140
:101E800011978D8315968C918E834BE450E0E40E70
:101E9000F51ED7014D915D916D917C9149875A87CF
:101EA0006B877C87D8014D915D916D917C914483C6
:101EB00055836683778346EB5FEFE40EF51ED7010B
:101EC0008D919C91958784874EEF5FEFE40EF51E10
:101ED000D7018C91808B4FE050E0E40EF51ED701C6
:101EE0008C914FE15EEFE40EF51E8787C701B901C3
:101EF0000E94F80C81E001C080E0A0960FB6F89433
:101F0000DEBF0FBECDBFCF91DF911F910F91FF902C
:101F1000EF90DF90BF90AF909F908F900895EF92D9
:101F2000FF921F93DF93CF93CDB7DEB7A0970FB685
:101F3000F894DEBF0FBECDBF7C01162F0E94660C49
:101F4000F701ED53FE4FD701A45DBD4F8081918114
:101F50006C910E949714AE01475F5F4F1886FE0197
:101F6000319680E2DF011D928A95E9F7F701E1528F
:101F7000FE4F20812F5F20832150E3EDF1E0EE0E34
:101F8000FF1ED7013C91EBE4F0E0EE0EFF1EF701DF
:101F900080819181A281B38189879A87AB87BC8731
:101FA00068E070E0E60EF71EF70180819181A28162
:101FB000B381FA0184839583A683B7836EEA7FEFAA
:101FC000E60EF71ED7018D919C9195878487EEEFE1
:101FD000FFEFEE0EFF1ED7018C91FA01808B8E91E0
:101FE0007D01EFE2FEEFEE0EFF1EDA011E968C93EE
:101FF0001E97112321F01D961C921E921C973A8366
:102000002E8384E08983C701BE016F5F7F4F0E94EA
:10201000F80CA0960FB6F894DEBF0FBECDBFCF91DF
:10202000DF911F91FF90EF900895EF92FF920F9331
:102030001F938C017B01FC01ED53FE4F055D1D4F8D
:1020400080819181D8016C910E94971489E0F701F9
:10205000808308551040D8018C918183075B1F4F06
:10206000F80180810C511240D70113968C9313977D
:10207000F801E252FE4F808115968C9315978F5F81
:102080008083035E1D4FF80180810D51124014962C
:102090008C93C801B7010E94F80C1F910F91FF901B
:1020A000EF9008950F931F938C010B531E4FF8016F
:1020B0001082015F1F4F81E090E0F80191838083DF
:1020C00012928F01075B1F4FF801108202541040DB
:1020D00083E090E0F801819391938F011182108247
:1020E00005511040F801119211928F011082118256
:1020F00012821382075F1F4FF80110820C501040AC
:1021000081E0F8018083065C1140C8010E94190A31
:10211000025E1D4FF80140815181628173810E5131
:102120001240C8012FEF0E948F0903531E4FF80180
:1021300010821182128213820F591F4FF8011082F0
:102140000E521240C8018E519E4F0E94560AC8017D
:1021500061E00E948F0F64E170E080E090E00E94F7
:10216000A103C8010E94430C1F910F910895EF92A3
:10217000FF920F931F93DF93CF93CDB7DEB7649792
:102180000FB6F894DEBF0FBECDBF8C017B01AB0153
:10219000485F5F4FDE011196FA0184E101900D92D4
:1021A0008150E1F7D70112962C9112978C9185FFFF
:1021B00019C0035E1D4FF801808114968C930A5458
:1021C0001040D8018C91F701818300511040D80153
:1021D000ED91FC91035C1140EE5AFF4F8081FA01B2
:1021E000878720E049815A816B817C81C8010E94E8
:1021F0008F09882351F4C8010E945210F801ED5351
:10220000FE4F808191810E94B314C801B7010E94E2
:10221000EE0D64960FB6F894DEBF0FBECDBFCF9122
:10222000DF911F910F91FF90EF900895EF92FF9231
:102230000F931F93CF93DF93EC017B018B01085F1A
:102240001F4FCB53DE4F8881C55CD140882379F185
:10225000CE5DDD4F288139814A815B81C252D240F7
:10226000FB0180859185A285B385281739074A0728
:102270005B0709F053C0CC52DE4FF8012485358549
:1022800088819981C45DD1402817390719F0CE01A2
:102290000E9452100E948303AB01BC014C5D504070
:1022A00060407040CE018E519E4F0E941D0AF80181
:1022B00084859585892B91F1CE018E519E4F0E9488
:1022C000500AC353DE4F645C7F4F8F4F9F4F68832C
:1022D00079838A839B832796F801848595859983E2
:1022E0008883C45DD140DE01AF51BE4FCD53DE4F78
:1022F000E881F981C35CD140EE5AFF4F80818C9315
:10230000CE01B7010E94520E882329F0CE010E940F
:10231000430C81E004C0CE010E94C60C80E0DF9136
:10232000CF911F910F91FF90EF900895CF92DF9280
:10233000EF92FF920F931F93CF93DF93EC01CB5358
:10234000DE4F8881C55CD14042EEC42E41E0D42EE0
:10235000CC0EDD1E882399F1C753DE4FE880F9804B
:102360000A811B81C95CD14083E190E0A0E0B0E02C
:10237000E80EF91E0A1F1B1FC6010E94500AE6162E
:10238000F706080719071CF0CE010E94A70CC6012A
:102390000E94500AC753DE4F288139814A815B81F0
:1023A000C95CD1402C593F4F4F4F5F4F261737071D
:1023B00048075907DCF4CE010E94521017C0C6012D
:1023C0000E94500AC353DE4F288139814A815B81C4
:1023D000CD5CD140245C3F4F4F4F5F4F26173707EE
:1023E000480759071CF4CE010E94A70CDF91CF913A
:1023F0001F910F91FF90EF90DF90CF9008950F9372
:102400001F93CF93DF93EC01C25DDD4F8881CE52E5
:10241000D2408823C9F0CE010E94660C8E010D5374
:102420001E4FCE52DE4FF8018081918168810E945B
:102430009714CE01409666E60E94C00AF80180819A
:1024400091810E94D11403C0CE010E949611DF91A8
:10245000CF911F910F9108950F931F938C0161E00D
:1024600070E080E090E00E94A103C8010E94FF118B
:102470001F910F9108950F931F93CF93DF93EC015A
:102480008C010E511E4FC80160EB74E00E945A0A85
:10249000882351F0CE010E945210FE01ED53FE4FF1
:1024A000808191810E94B314CB53DE4F8881C55C3B
:1024B000D140882309F1C25DDD4F8881CE52D240E0
:1024C0008823B1F0C8010E94500A2AE030E040E0C1
:1024D00050E00E94C81C611571058105910529F421
:1024E000CE0160E00E948F0F26C0CE010E94FF1136
:1024F000CE010E94C60C1FC0C8010E94500A2AE0EB
:1025000030E040E050E00E94C81C61157105810573
:10251000910589F4FE01E452FE4F80819181892B5F
:1025200019F01182108207C0CE0161E00E948F0F66
:10253000CE010E94430CDF91CF911F910F9108951E
:10254000CF93DF93EC01CD53DE4F888199810E94B8
:10255000D914882329F0888199810E94981481E0F8
:10256000DF91CF910895CF92DF92EF92FF920F9378
:102570001F938C01DB01CA019A0168EDC62E61E050
:10258000D62EC00ED11EF6019183808352EEE52E29
:1025900051E0F52EE00EF11E0A521E4FF801808127
:1025A0009181281B390B2C573C4F40E050E0C7016C
:1025B00064E00E94B10AF6012081318120553B4F31
:1025C000F80180819181281B390B40E050E0C70160
:1025D00065E00E94B10AC70163E02CE231E040E00F
:1025E00050E00E94B10A1F910F91FF90EF90DF9091
:1025F000CF900895CF92DF92EF92FF920F931F93A7
:10260000CF93DF93EC018B0198E0E92EF12CE60EDD
:10261000F71EC25EDD4FDB0118962D913D914D9165
:102620005C911B9788819981AA81BB81CE51D24050
:10263000281739074A075B0729F0CE010E94610D70
:1026400080E09BC082EEC82E81E0D82ECC0EDD1E2D
:10265000C6010E94560AC35EDD4FF801818188835E
:10266000CA54D040D7011E968C911E978883C35DB3
:10267000D140FE01EE52FE4F51962C91519720838E
:10268000C052DE4F1F962C9128836E978883C759BE
:10269000DF4F1882CB52D24010828E010A521E4F59
:1026A000F80111821082CB53DE4F21E02883C55CF4
:1026B000D14090E080719070AC01B3E0440F551FA1
:1026C000BA95E1F7880F991F480F591F662757FDE4
:1026D0006095762FCE010E94B312D70152966D916C
:1026E0007C915397CE010E94F40BCF52DE4F88812C
:1026F000C15DD140823029F488EC90E0F8019183EB
:102700008083C6010E94500AFCEDEF2EF1E0FF2EFF
:10271000EC0EFD1ECD52DE4F2881C35DD140620F0D
:10272000711D811D911D8E0106521E4FD8012D91E4
:102730003C9140E050E00E94C81CF7017183608327
:10274000C6010E94500AC753DE4FD8012D913C911B
:10275000E4E0220F331FEA95E1F740E050E0260F56
:10276000371F481F591F288339834A835B83C95CFD
:10277000D140CE010E94C60C81E0DF91CF911F9124
:102780000F91FF90EF90DF90CF9008950F931F93DC
:10279000CF93DF938C01EB019881892F8F70843068
:1027A00021F4C8010E94161125C0953021F4C801FA
:1027B0000E94B71018C0963031F4C8010E94FA1276
:1027C000882389F017C0C8010E942F0E882359F46E
:1027D0008881883041F0807C71F0C801BE010E9480
:1027E0002E0D80E008C00D531E4FF80180819181AD
:1027F0000E94D11481E0DF91CF911F910F91089534
:10280000CF93DF93DC01AD53BE4FED91FC91119757
:10281000A35CB140CDEED3E0399680E201900992FD
:102820008150E1F7EDEEF3E09AE28191980F84E0B8
:10283000ED30F807D1F7992311F080E006C0CD0103
:10284000BF01605270400E94C613DF91CF9108957E
:102850008E519E4F62E028EC30E040E050E00E9454
:10286000B10A0895CF93DF93EC01CD53DE4F798306
:102870006883809164008B7F80936400C659DF4F2A
:102880008881CD52D240882319F4CB010E941D15B6
:10289000FE01ED53FE4F8081918163EC7AE00E944E
:1028A0009214CE0140E050E060E070E00E94B3126C
:1028B000CE010E945210DF91CF9108950F931F9384
:1028C0008C018E519E4F0E94CA0BF8940E94B40452
:1028D0000E946B1C1093EC030093EB03055D1D4FEE
:1028E000F801108209551040F8011082065A1F4F56
:1028F000F801108204551040F801119211928F01D5
:1029000083E090E09183808304501040F8011182AD
:102910001082065D1140C8010E9428141F910F917A
:10292000089508957093100460930F040895089516
:10293000089589E091E090930E0480930D048AE05D
:102940008093110491E090939704109214048CE109
:10295000809315049093160481E994E190931004F8
:1029600080930F0408958DE094E00E94C7160895A7
:102970000F931F938C018DE094E00E943A15F801AB
:1029800016821F910F9108950F931F938C018DE074
:1029900094E00E942F1589E0F80186831F910F9122
:1029A0000895FC0181E086838DE094E00E943C164E
:1029B0000895CF93DF93EC018DE094E00E945315CE
:1029C000482F882341F180919D0490919E04CE5A16
:1029D000DF4F99838883249780E290E099838883EE
:1029E00090919B049295990F907680919B048F5FB4
:1029F00080939B04DE01A554B04020E030E0E92F35
:102A0000E20FF0E0E95EFB4F80818D932F5F3F4F37
:102A100020323105A1F7842FDF91CF910895FC0179
:102A2000848182E0868380E283A7BC968DE094E077
:102A3000BF0140E20E94951708950F931F930DE088
:102A400014E0C80166E541E024E60E944B18C80185
:102A500061E00E94D6161F910F9108950895FC0120
:102A6000A081B1811E962D913C911F9760E0F901E4
:102A700009950895FC01A081B1811E962D913C918C
:102A80001F9761E0F90109950895E0919F04F09185
:102A9000A004A081B18118962D913C911997CF0186
:102AA000F9010995089590919A0480919B0420E082
:102AB000981321E0822F0895DC01809197048330E0
:102AC000C9F480919C048823A9F0ED91FC911197A1
:102AD0000684F785E02DCD0161E0099581E0089538
:102AE000ED91FC9111970280F381E02DCD010995C4
:102AF00080E0089580919704833091F780E00895F5
:102B00001F93CF93DF93EC01162FE881F9810288A0
:102B1000F389E02D09951F771EBD0DB407FEFDCF8B
:102B20008EB51EBC0DB407FEFDCF1EB5E881F98140
:102B30000488F589E02DCE010995812FDF91CF9191
:102B40001F9108950F931F93CF93DF93EC01162FDE
:102B5000042FE881F9810288F389E02D0995106836
:102B60001EBD0DB407FEFDCF8EB50EBD0DB407FE24
:102B7000FDCF8EB5E881F9810488F589E02DCE017D
:102B80000995DF91CF911F910F910895CF93DF9316
:102B9000EC01662351F063E241E00E94A215CE01F0
:102BA00063E20E94801581FFFACFCE0164E20E94A9
:102BB0008015CE0164E20E94801590E0DF91CF91F4
:102BC00008950F931F93CF93DF93EC018B01E8815E
:102BD000F9810684F785E02D61E00995011511055D
:102BE00021F1E881F9810288F389E02DCE01099570
:102BF0008EEB8EBD0DB407FEFDCF8EB520E030E02C
:102C0000F801E20FF31F80818EBD0DB407FEFDCFEA
:102C10008EB52F5F3F4F2031310591F7E881F98163
:102C20000488F589E02DCE010995CE016DE30E945F
:102C30008015482F4E7F80E0012B09F081E0482B62
:102C4000CE016DE30E94A215DF91CF911F910F91EC
:102C500008950F931F938C0165E240E40E94A21532
:102C6000D801ED91FC910684F785E02DC80163E061
:102C700009951F910F9108950E9429160895CF93E9
:102C8000DF93EC01603208F06FE168878985882363
:102C900011F066956887CE0161E10E948015482F8A
:102CA000407E8885482BCE0161E10E94A215DF910C
:102CB000CF9108951F93CF93DF93EC01162F80914E
:102CC0009704681709F45FC06230D9F1633038F4B3
:102CD000662309F442C0613009F055C03AC0633040
:102CE000C9F0643009F04FC0CE0161E00E94801548
:102CF000482F437E4C60CE0161E00E94A215898579
:102D00008823A9F1E881F9810088F189E02DCE01BD
:102D100061E015C0CE0161E00E948015482F437E1E
:102D20004061CE0161E00E94A21589858823F9F0F7
:102D3000E881F9810088F189E02DCE0160E00995F4
:102D400016C0CE0161E00E948015482F437E486086
:102D50000AC0CE0161E044E008C0CE0161E00E94FB
:102D60008015482F437ECE0161E00E94A21580911C
:102D70009704882331F4CE0167E20E9480158823EE
:102D8000B4F710939704DF91CF911F9108950F939B
:102D90001F938C0161E044E00E94A215C80168E223
:102DA00040E10E94A2151F910F910895FC016783D5
:102DB0000895CF93DF93EC016987662311F44AE10C
:102DC00001C04FE0CE0163E10E94A21589858823EE
:102DD00041F0CE0161E10E948015482F4F7140669D
:102DE00002C048854068CE0161E10E94A215DF91D2
:102DF000CF9108951F93CF93DF93EC01162F662395
:102E000011F445E501C04DE5CE016AE50E94A21529
:102E1000112311F440E701C04CE7CE016CE50E949C
:102E2000A215DF91CF911F910895FC01848161E08B
:102E30000E94901B0895FC01848160E00E94901B19
:102E400008951F93CF93DF93EC01809199048F5FD6
:102E50008093990480919704833009F062C085E0E3
:102E600061E00E94901BCE0160E00E94C615909325
:102E70009E0480939D0485E060E00E94901B10E01A
:102E8000CE0168E20E9480151F5F82FFF9CF1D31DD
:102E9000B8F7CE0168E20E948015182FE881F98109
:102EA0000684F785E02DCE0161E0099580E28093EC
:102EB0009C04E881F9810288F389E02DCE0109950F
:102EC0001EBC0DB407FEFDCF8EB590919A0492956D
:102ED000990F907620E030E0E92FE20F1EBC0DB490
:102EE00007FEFDCF8EB5F0E0E95EFB4F80832F5FDC
:102EF0003F4F2032310581F780919A048F5F809394
:102F00009A04E881F9810488F589E02DCE010995BC
:102F100010939804CE010E942916EA81FB8180E279
:102F20000995DF91CF911F910895BF92CF92DF92C3
:102F3000EF92FF920F931F93CF93DF93EC016B01FE
:102F4000B42E6DE30E948015482F4460CE016DE3DE
:102F50000E94A2150E9483037B018C01809197043B
:102F6000813079F080919704833059F00E94830377
:102F70006E197F09800B910B685E73408040904012
:102F800068F3E881F9810484F585E02DCE0160E0E5
:102F9000A6012B2D099581E0DF91CF911F910F9113
:102FA000FF90EF90DF90CF90BF900895EF92FF9247
:102FB0000F931F93CF93DF93EC01042FF52E122F65
:102FC000E881F9810684F785E02D61E00995CE015D
:102FD00067E20E94801587FFFACFCE0165E240E0EC
:102FE0000E94A2151E3308F01DE3E881F9810288D2
:102FF000F389E02DCE01099580E88EBD0DB407FE62
:10300000FDCF8EB5802F9F2D9C01F90190E008C067
:1030100080818EBD0DB407FEFDCF8EB59F5F3196CA
:103020009117B0F3E881F9810488F589E02DCE018C
:103030000995E881F9810684F785E02DCE0164E0E9
:1030400009950E9483037B018C0183E00E94E41BAD
:10305000892B59F40E9483036E197F09800B910B11
:10306000643671058105910580F3E881F981068454
:10307000F785E02DCE0161E00995E881F9810280B4
:10308000F381E02DCE010995DF91CF911F910F9132
:10309000FF90EF900895BF92CF92DF92EF92FF9250
:1030A0000F931F93DF93CF93CDB7DEB7E4970FB69F
:1030B000F894DEBF0FBECDBF6C01B42E522F6F311E
:1030C00019F430EC4EE40EC06B3211F44CE622C120
:1030D000663509F01BC149ED04C0663511F030ECCE
:1030E00001C030E0FE01319684E3DF011D928A9534
:1030F000E9F791E0998324E02A8382E08B839C8323
:1031000083E08D839E832F8380E4888785E0898791
:1031100086E08A878B8786E68C8797E09D8728E004
:103120002F8789E0898B81E18B8B8BED8C8B89E1FB
:103130008D8B82E48E8B85E28F8B80EC888F86E28C
:10314000898F9A8F88E28B8F80E18C8F89E28D8FB7
:1031500084EB8E8F9DE29F8F28A38EE289A380E966
:103160008AA38FE28BA39CA390E39DA381E38FA30B
:103170008AEA88A787E389A788E18AA788E38BA7DB
:1031800080E28CA78CE38DA78FE88EA78DE38FA7B5
:1031900082E188AB8FE689AB9AAB8FEF8BAB4E8722
:1031A000388B5EA3F601848161E00E94901BD601FA
:1031B00014968C9161E00E94511B0E94180780E0D8
:1031C0000E94020781E00E94F90680E00E94070742
:1031D0000E945D1A7B018C01C6016FE24AEA0E94DF
:1031E000A215C6016FE20E9480158A3A09F476C0E2
:1031F0000E945D1A6E197F09800B910B6233710575
:103200008105910508F06AC0E7CFC6016FE245E588
:103210000E94A215C6016FE20E948015853509F44F
:1032200062C00E945D1A6E197F09800B910B623398
:1032300071058105910508F056C0E7CFC6014181AF
:103240000E94A2151F5FE12FF0E0EE0FFF1FEE0DB1
:10325000FF1D60816F3F91F7C60160E070E00E9442
:10326000E115D601ED91FC910684F785E02DC601AC
:1032700061E009950E945D1A7B018C01C60167E23D
:103280000E94801587FD35C00E945D1A6E197F0966
:10329000800B910B623371058105910550F5EECFDE
:1032A00081E065E475E143E050E00E948C19D09222
:1032B000A004C0929F04F601B68281E0E4960FB6A6
:1032C000F894DEBF0FBECDBFCF91DF911F910F915C
:1032D000FF90EF90DF90CF90BF9008950E945D1A0D
:1032E0007B018C0192CF10E07E010894E11CF11C5F
:1032F000AACF0E945D1A6E197F09800B910B623371
:1033000071058105910560F280E0D8CF44EE6B3203
:1033100009F0E3CE30E4E6CE823000F5E82FF0E0AD
:10332000EE0FFF1FEF55FB4F71836083882319F069
:103330008130A1F408C0809169008C7F842B809338
:103340006900E89A089580916900440F551F440F61
:10335000551F837F842B80936900E99A08951F92FB
:103360000F920FB60F9211242F933F934F935F93B9
:103370006F937F938F939F93AF93BF93EF93FF933D
:103380008091A1049091A204892B29F0E091A104DD
:10339000F091A2040995FF91EF91BF91AF919F9198
:1033A0008F917F916F915F914F913F912F910F90EE
:1033B0000FBE0F901F9018951F920F920FB60F928D
:1033C00011242F933F934F935F936F937F938F932A
:1033D0009F93AF93BF93EF93FF938091A30490913A
:1033E000A404892B29F0E091A304F091A404099589
:1033F000FF91EF91BF91AF919F918F917F916F91CD
:103400005F914F913F912F910F900FBE0F901F90A2
:1034100018951F920F920FB60F9211242F933F937E
:103420004F935F936F937F938F939F93AF93BF93CC
:103430002091A9043091AA044091AB045091AC04AE
:103440007091AD04DA01C9010296A11DB11D672F6B
:103450006A5F6D3730F06D57DA01C9010396A11D1F
:10346000B11D6093AD048093A9049093AA04A09326
:10347000AB04B093AC048091A5049091A604A091F4
:10348000A704B091A8040196A11DB11D8093A504C5
:103490009093A604A093A704B093A804BF91AF9102
:1034A0009F918F917F916F915F914F913F912F915C
:1034B0000F900FBE0F901F9018958FB7F894209122
:1034C000A9043091AA044091AB045091AC048FBF81
:1034D000B901CA0108959FB7F8942091A5043091CD
:1034E000A6044091A7045091A80486B5A89B06C0E5
:1034F0008F3F21F02F5F3F4F4F4F5F4F9FBF542FA4
:10350000432F322F2227280F311D411D511D83E0EB
:10351000220F331F441F551F8A95D1F7B901CA01E5
:1035200008959B01AC017FB7F8948091A504909118
:10353000A604A091A704B091A80466B5A89B05C0F5
:103540006F3F19F00196A11DB11D7FBFBA2FA92FA2
:10355000982F8827860F911DA11DB11D63E0880F4C
:10356000991FAA1FBB1F6A95D1F7BC012DC0FFB7D9
:10357000F8948091A5049091A604A091A704B0911D
:10358000A804E6B5A89B05C0EF3F19F00196A11D60
:10359000B11DFFBFBA2FA92F982F88278E0F911D1D
:1035A000A11DB11DE3E0880F991FAA1FBB1FEA955B
:1035B000D1F7861B970B885E9340C8F221503040AC
:1035C0004040504068517C4F21153105410551055F
:1035D00071F60895019739F0019729F0880F991F26
:1035E00001970197F1F70895789484B5826084BDBE
:1035F00084B5816084BD85B5826085BD85B58160F7
:1036000085BDEEE6F0E0808181608083E1E8F0E056
:103610001082808182608083808181608083E0E885
:10362000F0E0808181608083E1EBF0E08081846064
:103630008083E0EBF0E0808181608083EAE7F0E066
:1036400080818460808380818260808380818160CA
:1036500080838081806880831092C1000895982FB4
:103660008E3008F09E509770809104018295880FEB
:10367000880F807C892B80937C0080917A00806405
:1036800080937A0080917A0086FDFCCF20917800AB
:1036900040917900942F80E030E0282B392BC9012C
:1036A0000895CF93DF93482F50E0CA0186569E4F6E
:1036B000FC0134914A575E4FFA018491882369F1E5
:1036C00090E0880F991FFC01E859FE4FA591B49135
:1036D000FC01EE58FE4FC591D491662351F42FB7EB
:1036E000F8948C91932F909589238C9388818923CA
:1036F0000BC0623061F42FB7F8948C91932F9095A2
:1037000089238C938881832B88832FBF06C09FB722
:10371000F8948C91832B8C939FBFDF91CF91089568
:10372000482F50E0CA0182559E4FFC012491CA01E6
:1037300086569E4FFC0194914A575E4FFA01349190
:10374000332309F440C0222351F1233071F0243097
:1037500028F42130A1F0223011F514C02630B1F048
:103760002730C1F02430D9F404C0809180008F77D5
:1037700003C0809180008F7D8093800010C084B54D
:103780008F7702C084B58F7D84BD09C08091B00061
:103790008F7703C08091B0008F7D8093B000E32FBE
:1037A000F0E0EE0FFF1FEE58FE4FA591B4912FB73A
:1037B000F894662321F48C919095892302C08C9112
:1037C000892B8C932FBF0895682F70E0CB01825511
:1037D0009E4FFC012491CB0186569E4FFC014491E3
:1037E0006A577E4FFB019491992319F420E030E051
:1037F0003CC0222351F1233071F0243028F42130D1
:10380000A1F0223011F514C02630B1F02730C1F0FC
:103810002430D9F404C0809180008F7703C0809158
:1038200080008F7D8093800010C084B58F7702C0A8
:1038300084B58F7D84BD09C08091B0008F7703C0AF
:103840008091B0008F7D8093B000892F90E0880F29
:10385000991F84589E4FFC01A591B4918C9120E052
:1038600030E0842311F021E030E0C901089508958B
:10387000CF93DF930E94F41A0E94371C0E945702D4
:10388000C0E0D0E00E9420022097E1F30E940000F7
:10389000F9CFEF92FF920F931F937B018C0161157B
:1038A00071058105910529F420E030E040E050E009
:1038B0000BC00E946001A80197010E94C81CAC01C6
:1038C000CB01DA019C01AD01B901CA011F910F9131
:1038D000FF90EF900895009729F0BC0180E090E000
:1038E0000E9465010895629FD001739FF001829F3D
:1038F000E00DF11D649FE00DF11D929FF00D839F7F
:10390000F00D749FF00D659FF00D9927729FB00D1B
:10391000E11DF91F639FB00DE11DF91FBD01CF012E
:1039200011240895AA1BBB1B51E107C0AA1FBB1F8E
:10393000A617B70710F0A61BB70B881F991F5A953B
:10394000A9F780959095BC01CD010895A1E21A2EAA
:10395000AA1BBB1BFD010DC0AA1FBB1FEE1FFF1F33
:10396000A217B307E407F50720F0A21BB30BE40B83
:10397000F50B661F771F881F991F1A9469F76095CA
:103980007095809590959B01AC01BD01CF01089584
:1039900097FB092E05260ED057FD04D0D7DF0AD09D
:1039A000001C38F450954095309521953F4F4F4F6E
:1039B0005F4F0895F6F790958095709561957F4FCC
:1039C0008F4F9F4F0895EE0FFF1F0590F491E02D4C
:1039D00009942F923F924F925F926F927F928F92B3
:1039E0009F92AF92BF92CF92DF92EF92FF920F938E
:1039F0001F93CF93DF93CDB7DEB7CA1BDB0B0FB698
:103A0000F894DEBF0FBECDBF09942A883988488854
:103A10005F846E847D848C849B84AA84B984C884EA
:103A2000DF80EE80FD800C811B81AA81B981CE0FE1
:103A3000D11D0FB6F894DEBF0FBECDBFED010895C6
:043A4000F894FFCF28
:103A44000100000001000000005C153C16D9163F7F
:103A54001621172E15D6175A16FA161B1715170006
:00000001FF
