:100000000C9463000C94F5150C9422160C948B0040
:100010000C948B000C948B000C948B000C943C057E
:100020000C948B000C948B000C948B000C948B0024
:100030000C948B000C948B000C948B000C948B0014
:100040000C944F160C948B000C948B000C948B002A
:100050000C948B000C948B000C948B000C948B00F4
:100060000C948B000C948B000000000024002700EF
:100070002A0000000000250028002B0000000000DE
:1000800023002600290004040404040404040202DA
:100090000202020203030303030301020408102007
:1000A0004080010204081020010204081020000012
:1000B0000007000201000003040600000000000029
:1000C0000000EE008C1011241FBECFEFD8E0DEBF81
:1000D000CDBF11E0A0E0B1E0E4E9F2E302C0059099
:1000E0000D92A032B107D9F714E0A0E2B1E001C04F
:1000F0001D92A43BB107E1F710E0C6ECD0E004C0CC
:100100002297FE010E940D19C23CD107C9F70E9437
:1001100074180C9448190C940000A0E0B0E0E3E9D6
:10012000F0E00C941919EC01A880B980CA80DB803A
:10013000A114B104C104D10441F484E2A82E89EDD4
:10014000B82E8BE5C82E87E0D82EC601B5012DE16B
:1001500033EF41E050E00E94F01827EA31E440E03C
:1001600050E00E94AF187B018C01C601B5012DE162
:1001700033EF41E050E00E94F018CA01B9012CEEC3
:1001800034EF4FEF5FEF0E94AF186E0D7F1D801FA1
:10019000911F97FF04C06150704080409048688371
:1001A00079838A839B839B01AC015F77B901CA0184
:1001B000CDB7DEB7EAE00C9435190E948D000895A2
:1001C00080E091E00E948D0008956093000170939B
:1001D00001018093020190930301089580E291E070
:1001E0000E944B1083E68093600308950E940C03E5
:1001F0008AE061E00E948D178AE061E00E94CC17DE
:100200005D9A5D9888E10FB6F89480936000109233
:1002100060000FBE5D9A5D980E947B025D9A8DE042
:1002200061E00E948D178DE060E00E94CC170E9473
:100230005602E4E6F0E080818F7D8083789468EE5A
:1002400073E080E090E00E94D71680E290E0A3E1A6
:10025000B0E08093480390934903A0934A03B0937E
:100260004B0380E291E069E573E00E940A1083E0AD
:1002700080935403E4E6F0E08081806280830E94F2
:100280007B02089504C080E291E00E94EF0F80E2BB
:1002900091E00E94560E8823B1F70895EF92FF92E5
:1002A0000F931F9380E291E00E942107882309F4B5
:1002B00042C089E061E00E94CC1780E291E00E9498
:1002C00069071092B6038FEAE82E83E0F82E80E2E9
:1002D000F70111928A95E9F78091AD039091AE03F1
:1002E00001969093AE038093AD038701085F1F4F83
:1002F00024E630E03093B8032093B703F8018483F9
:10030000958321E030E0378326838087918780E2E0
:1003100091E00E94C606F8018487158680E291E08C
:10032000B7010E943A0C80E291E00E94570889E0F0
:1003300060E00E94CC171F910F91FF90EF900895FD
:10034000853049F1863038F48330C1F08430F8F4D8
:10035000823061F507C0853621F1863611F1843689
:1003600029F522C05D9A80E291E00E944E0D5D98D1
:100370005D9A80E291E00E944E0D07C05D9A5D9803
:1003800080E291E00E94160C5D9A5D9808955D9A56
:100390000E944E0108955D9880E291E00E94A707B7
:1003A00008950E94420108950E94420108951F93FA
:1003B000A89588E093E00E940206182F0E94A001F1
:1003C0001123B9F71F9108952091CF033091D003E5
:1003D0004091D1035091D203B901CA0108952091EF
:1003E000CF033091D0034091D1035091D20380913B
:1003F000B200280F311D411D511DB901CA010895D8
:1004000083B7817F866083BF08958091B60083FDA6
:10041000FCCF83B7816083BF7894889583B78E7F44
:1004200083BF78940895EF92FF920F931F937B01FF
:100430008C012091CF033091D0034091D103509192
:10044000D203DC01CB01820F931FA41FB51F809341
:10045000D3039093D403A093D503B093D60383B76B
:10046000817F866083BF8091B60083FDFCCF83B718
:10047000816083BF7894889583B78E7F83BF78949B
:100480008091CF039091D003A091D103B091D2037A
:10049000821B930BA40BB50BE816F9060A071B0782
:1004A00010F71F910F91FF90EF90089580E880BFA3
:1004B000EAE7F0E0108210828FEF80937E0083E005
:1004C00080937F0080E685BF80E485BFE4E6F0E0AE
:1004D0008081816080838081826080838081886068
:1004E000808380818068808380818F7B808380810E
:1004F0008B7F8083089521EB30E0F901108217BAD9
:10050000A0E7B0E08C918E7F8C938C918D7F8C9343
:10051000E0EBF0E080818C7F80838081826080834B
:10052000F9018081877F8083E6EBF0E08081806243
:10053000808383E0F901808381E08093B3008C9114
:1005400082608C9308952091CF033091D003409125
:10055000D1035091D20390E00196AA2797FDA09570
:10056000BA2F820F931FA41FB51F8093CF039093C0
:10057000D003A093D103B093D2032091CF03309145
:10058000D0034091D1035091D2038091D303909135
:10059000D403A091D503B091D603281739074A0791
:1005A0005B0710F080E008958091CF039091D00315
:1005B000A091D103B091D2032091D3033091D40301
:1005C0004091D5035091D60384529F4FAF4FBF4FF8
:1005D00082179307A407B50710F482ED08952091C0
:1005E000D3033091D4034091D5035091D603809129
:1005F000CF039091D003A091D103B091D203622F89
:10060000681B862F08956093D3037093D40380935F
:10061000D5039093D60308951F9314BE88E10FB6B7
:10062000F89480936000109260000FBE10E0812F5C
:1006300060E00E948D17812F61E00E948D17812F4D
:1006400060E00E94CC171F5F143189F71F91089555
:10065000EF92FF920F931F930E94B1167B018C01C2
:1006600080E00E946B179C01442737FD4095542F72
:100670002E0D3F1D401F511F87E015950795F794DC
:10068000E7948A95D1F72E0D3F1D401F511FC901D8
:100690001F910F91FF90EF900895CF93DF93C0E0EB
:1006A000D0E0FE01E952FC4F82EE93E0BE014081B2
:1006B0000E947C032196CB30D10599F7DF91CF9131
:1006C0000895CF93DF93C0E0D0E082EE93E0BE01C7
:1006D0000E947503FE01E952FC4F80832196CB30C6
:1006E000D10599F7DF91CF910895F999FECF72BDA9
:1006F00061BDF89A80B50895F999FECF1FBA72BD11
:1007000061BD40BD0FB6F894FA9AF99A0FBE0895EC
:10071000882319F48CB5806202C08CB58F7D8CBDA6
:1007200008959CB5937F982B9CBD08952CB5382FC8
:1007300033702C7F322B3CBD2DB590E0959587957D
:100740009595879581702E7F822B8DBD08958AE0C7
:1007500061E00E94CC178AE061E00E948D178CB5A1
:1007600080618CBD8CB580648CBD8DE061E00E94A1
:100770008D178BE061E00E948D170895DC014D918B
:100780005C91119721E00FC0FD01E80FF91FEE5BAE
:10079000FF4F8081E254F040861721F4EE57FE4F60
:1007A000808108952F5F822F90E08417950764F36E
:1007B00080E008950F931F93CF93DF938C01FC018A
:1007C000C081D18131E012C0EE0FFF1FEE0FFF1F7D
:1007D000E00FF11FEE57FF4F80819181A281B3811D
:1007E00084179507A607B70739F03F5FE32FF0E0BE
:1007F000EC17FD074CF302C0332301F5C034D105DB
:100800003CF080E290E0F8019183808380E017C0A3
:10081000CC0FDD1FCC0FDD1FC00FD11FCE57DF4F18
:10082000488359836A837B83F80180819181E80F33
:10083000F91F22830196F8019183808381E0DF9183
:10084000CF911F910F910895CF92DF92EF92FF9277
:100850000F93CF93DF93EC016A017B01522F6881E4
:10086000798141E013C0F901EE0FFF1FEE0FFF1F6A
:10087000EC0FFD1FEE57FF4F80819181A281B38164
:100880008C159D05AE05BF0539F04F5F242F30E074
:100890002617370744F30FC0442369F0FE01E20F27
:1008A000F31FEE5BFF4F5083E05CFE4F0083E25886
:1008B000F140828101C08FEFDF91CF910F91FF90C6
:1008C000EF90DF90CF900895FC011182108208957F
:1008D000CF92DF92EF92FF920F931F93CF93DF930C
:1008E000EC010A851B852C853D854A875B876C87D3
:1008F0007D87413187E2580780E0680780E078070C
:1009000070F08E899F89A88DB98D6A017B01C81A04
:10091000D90AEA0AFB0ACA86DB86EC86FD86401BFA
:10092000510B620B730BCB01BA0128EE33E040E0B0
:1009300050E00E94CE189B01AC01243F81E03807B3
:1009400080E0480780E0580738F48EA99FA9820FFD
:10095000931F9FAB8EAB08C088AD99AD88519C4F5B
:10096000821B930B99AF88AFDF91CF911F910F91AD
:10097000FF90EF90DF90CF900895FC016481758126
:10098000868197810895FC01118610860895FC01E7
:100990008085918501969187808720E06817790787
:1009A00008F421E0822F0895EF92FF920F931F9396
:1009B000CF93DF93FC01E288F38804891589868947
:1009C0009789A08DB18D0A97A109B109E816F9069A
:1009D0000A071B0728F021E0E22EF12C012D112D32
:1009E000828B938BA48BB58B118A108AEF0161E007
:1009F00070E02A8D3B8D4C8D5D8D82899389A48911
:100A0000B589281739074A075B0758F4E216F30639
:100A10000407150730F4228B338B448B558B718B75
:100A2000608B24966F5F7F4F6830710511F7DF91FF
:100A3000CF911F910F91FF90EF900895E62FF0E076
:100A4000EE0FFF1FEE0FFF1FE80FF91F268B378BEE
:100A5000408F518F0E94D4040895FC016687089549
:100A6000E091E403F091E50387858F5F878710822B
:100A700011821282138208951F920F920FB60F9265
:100A800011240F931F932F933F934F935F936F9373
:100A90007F938F939F93AF93BF93EF93FF9303EB5A
:100AA00010E0F80180810E94A302F8018083609128
:100AB000E30360956093E30386E00E94CC17FF9107
:100AC000EF91BF91AF919F918F917F916F915F91C6
:100AD0004F913F912F911F910F910F900FBE0F904B
:100AE0001F9018950F931F938C010E94E401F80149
:100AF0002285338544855585621B730B840B950BCA
:100B000026893789408D518D0E94CE181F910F91F3
:100B10000895AF92BF92CF92DF92EF92FF920F9320
:100B20001F93CF93DF93EC010E94E4015B016C0102
:100B30008A859B85AC85BD85A81AB90ACA0ADB0AD5
:100B400020E0A21620E0B20620E0C20620E1D20694
:100B5000A8F08E899F89A88DB98DA80EB91ECA1ECE
:100B6000DB1E20E0A21620E0B20620E0C20620E153
:100B7000D20620F0A80EB91ECA1EDB1ECE010E94AE
:100B80007205EA88FB880C891D89EA0CFB1C0C1D88
:100B90001D1DE61AF70A080B190B80E0E81680E025
:100BA000F80680E0080780E1180740F08E899F89E9
:100BB000A88DB98DE80EF91E0A1F1B1FEA14FB044D
:100BC0000C051D0540F48E899F89A88DB98DE80E0E
:100BD000F91E0A1F1B1F6A857B858C859D856E0DFE
:100BE0007F1D801F911F0E940303B701C801DF9181
:100BF000CF911F910F91FF90EF90DF90CF90BF901A
:100C0000AF900895EF92FF920F931F93CF93DF93CE
:100C1000EC010E9400027894CE010E9489057B01BC
:100C20008C0119C088819981AA81BB810196A11D7F
:100C3000B11D88839983AA83BB830E9405028F8597
:100C4000882349F01F866A857B858C859D850E9457
:100C500003031E853BC00E94E4012A853B854C8529
:100C60005D85621B730B840B950B6E157F058007EA
:100C70009107C0F278941889112329F58C819D8100
:100C8000AE81BF810196A11DB11D8C839D83AE8372
:100C9000BF836EE170E080E090E00E9413026C81FF
:100CA0007D818E819F8120EB34E040E050E00E9406
:100CB000F018611571058105910509F419EC188288
:100CC00019821A821B82CE010E94D404812FDF91E7
:100CD000CF911F910F91FF90EF9008950F931F9365
:100CE0008C019093E5038093E403F8940E947B02C7
:100CF000F80117AA16AA11AE10AE1186108614823A
:100D000015821682178280E09CE0A0E0B0E0868B1E
:100D1000978BA08FB18FC8010E94D4041F910F91AF
:100D20000895CF93DF93FC01EB01ED53FE4F40811B
:100D30005181E35CF1409B01475F5F4F80E2DA0144
:100D40000D90AD01D9010D929D018150C1F79B819C
:100D5000E952FE4F8081981739F0992329F08C8150
:100D6000882311F080E00FC0FE019AE221E030E01C
:100D70008191980F2F5F3F4F21323105C9F780E0F5
:100D8000992309F481E0DF91CF910895FC01EA53A2
:100D9000FE4F8081811181E00895FC01DC01A85C97
:100DA000BD4F1C9277FF02C081E08C93613049F403
:100DB000E352FE4F83E090E08193919387E790E0C8
:100DC0003DC0623049F4E352FE4F84E190E08193EC
:100DD00091938BE291E032C0633049F4E352FE4FCD
:100DE00084E690E08193919387E592E027C0643098
:100DF00049F4E352FE4F8CE291E091838083ED5DF4
:100E0000F14010C0DF01A352BE4F653029F480EBE2
:100E100094E08D939C9309C081E090E08D939C9326
:100E2000643019F4E152FE4F04C0E152FE4F6530C8
:100E300019F48FEA94E002C08BE390E09183808301
:100E40000895FF920F931F938C0188519E4F0E942B
:100E5000BD04FF2403521E4FF8012081318140E080
:100E600050E00E94F0180C5F1F4FF8012081318183
:100E700040E050E0621773078407950711F4FF24E0
:100E8000F3948F2D1F910F91FF900895EF92FF9291
:100E90000F931F938C0188519E4F65E60E942D058C
:100EA00083ECE82E81E0F82EE00EF11E0A5C1D4F67
:100EB000F70180819181F80160810E948A10F70119
:100EC000808191810E94C4101F910F91FF90EF903B
:100ED0000895FC01DC01A853BE4F8C91882361F07A
:100EE0001C92809164008B7F80936400ED53FE4FD1
:100EF000808191810E94AB100895CF93DF93EC0124
:100F0000FC01E853FE4F8081882391F481E08083C7
:100F1000CD53DE4F888199810E94B710CE0185960E
:100F200064E60E942D0580916400846080936400D3
:100F3000DF91CF910895FC01E953FE4F8081E75C7A
:100F4000F140882319F0CF010E947D070895EF92A8
:100F5000FF920F931F93CF93DF93EC01CA53DE4FA1
:100F60008881C65CD14098EEE92E91E0F92EEC0E16
:100F7000FD1E882309F448C0C7010E94BD04C35365
:100F8000DE4F288139814A815B81CD5CD140265F6B
:100F90003F4F4F4F5F4F26173707480759072CF42D
:100FA000C953DE4F1882C75CD140C953DE4F8881D8
:100FB000C75CD140882319F0CE010E947D07C7018C
:100FC0000E94BD048E0103531E4FF8012081318120
:100FD00042815381265F3F4F4F4F5F4F26173707A0
:100FE0004807590784F5C7010E94BD04645D7E4F20
:100FF0008F4F9F4FF8016083718382839383C9531E
:10100000DE4F81E088831FC0C7010E94BD048E01AE
:101010000F521E4FF8012081318142815381245D9E
:101020003E4F4F4F5F4F26173707480759075CF46D
:10103000C7010E94BD04F80160837183828393839A
:10104000C953DE4F1882DF91CF911F910F91FF900E
:10105000EF9008950F931F93CF93DF93EC01C85C3B
:10106000DD4F8881C853D2408823C9F0CE010E9449
:1010700069078E010D531E4FCA52DE4FF801808161
:10108000918168810E948A10CE01429666E60E9494
:101090002D05F801808191810E94C41003C0CE010A
:1010A0000E94A707DF91CF911F910F9108950F9391
:1010B0001F938C0161E070E080E090E00E941302D9
:1010C000C8010E942A081F910F910895CF93DF93C2
:1010D000FC01EB01E95CFD4F8081E753F24088237E
:1010E00011F080E026C0E952FE4F8081E75DF140BB
:1010F0008A831E82DB019AE221E030E08D91980F15
:101100002F5F3F4F21323105C9F791959E83ED53F3
:10111000FE4FA081B181E35CF1409C9680E2099092
:101120000D928150E1F7ED53FE4F808191810E9435
:101130000211DF91CF910895DF93CF93CDB7DEB742
:10114000A0970FB6F894DEBF0FBECDBFFC01AB0178
:101150009E012F5F3F4F80E2DB010D90BD01D90161
:101160000D929D018150C1F788E08983DA011196C3
:101170008C918D83E952FE4F8081E75DF1408A8337
:10118000CF01BE016F5F7F4F0E946608A0960FB629
:10119000F894DEBF0FBECDBFCF91DF9108956F925F
:1011A0007F928F929F92AF92BF92CF92DF92EF92F7
:1011B000FF920F931F93DF93CF93CDB7DEB7649762
:1011C0000FB6F894DEBF0FBECDBF7C015B01DE0120
:1011D0001196FB01389684E101900D928150E1F760
:1011E0007E2C6F2C49815A816B817C81C7012F85B0
:1011F0000A890E942404682F8F3F11F480E047C0C1
:1012000026ED31E0E20EF31EF70180812AE23EEF87
:10121000E20EF31E898BDE011196F5019E012B5E15
:101220003F4F8D9180873196A217B307D1F733ECEA
:10123000C32E31E0D32ECE0CDF1C26E3822E22E01B
:10124000922E8E0C9F1C662351F4F60180819181B1
:10125000F40160810E948A10F501138214C0F50127
:101260006383F60100811181872D962D0E94BE03B4
:10127000682FC8010E948A10F60180819181F401D3
:1012800060810E948A10C701B5010E9466086496B9
:101290000FB6F894DEBF0FBECDBFCF91DF911F9187
:1012A0000F91FF90EF90DF90CF90BF90AF909F9005
:1012B0008F907F906F900895EF92FF920F931F93FE
:1012C000DF93CF93CDB7DEB7A0970FB6F894DEBF0C
:1012D0000FBECDBF8C017B01DE011196FB0180E2C8
:1012E00001900D928150E1F7F801ED53FE4F0B5C38
:1012F0001D4F80819181F80160810E948A10F70161
:1013000080818062898303511040F80180810252FC
:1013100012408C83C801BE016F5F7F4F0E94660838
:10132000A0960FB6F894DEBF0FBECDBFCF91DF9170
:101330001F910F91FF90EF900895FC01DB01E9529E
:10134000FE4F9081E75DF14014968C9114978917B8
:1013500099F0992389F0E85CFD4F8081E853F240D1
:10136000882361F013968C911397891739F4CF0174
:101370000E945C0981E0089580E0089581E008956D
:101380008F929F92AF92BF92DF92EF92FF920F9354
:101390001F93DF93CF93CDB7DEB7A0970FB6F89426
:1013A000DEBF0FBECDBF7C014B0126EC31E0E20E6B
:1013B000F31ED7018C91EAE3FEEFEE0EFF1E8701CC
:1013C00008511E4F4DECA42E41E0B42EAE0CBF1CB4
:1013D000882321F1C8010E94BD04D5012D913D91C2
:1013E0004D915C9162177307840795070CF4F0C068
:1013F000C8010E94BD046D5F7F4F8F4F9F4FF50165
:10140000608371838283938364E670E080E090E080
:101410000E948518D62EFCE3DF0E29C0C8010E9469
:10142000BD04D5012D913D914D915C9162177307DB
:10143000840795070CF4CCC06CE370E080E090E08A
:101440000E948518D62EC8010E94BD042D2D30E0C3
:1014500040E050E02170307040705070260F371F10
:10146000481F591FF50120833183428353836D2D1B
:1014700070E080E090E00E941302F40138962CE2C4
:1014800032E0E20EF31ED40118962D913D914D915C
:101490005C911B97D7012D933D934D935C931397CC
:1014A00024ED3DEFE20EF31E8701005D1D4F248108
:1014B000358146815781D8012D933D934D935C939F
:1014C000139725ED31E0E20EF31E86858F5FD7017D
:1014D0008C932DE430E0E20EF31ED40111968C9132
:1014E000D7018C936089E3E1F0E0EE0EFF1ED70197
:1014F0006C93EEE8FFEFEE0EFF1ED7018D919C91ED
:101500000E948A109E01275F3F4F1886AE014F5FF1
:101510005F4F80E2FA0111928A95E9F764E170E089
:10152000E60EF71ED7018C918A8385E08983F4014A
:1015300082818C8381818D8385818E8361E570E0DA
:10154000E60EF71EF70180819181A281B381898720
:101550009A87AB87BC87F80180819181A281B38192
:10156000F90184839583A683B78361EB7FEFE60E51
:10157000F71ED7018D919C9195878487EDEFFFEF42
:10158000EE0EFF1ED7018C91F901808B61E170E0B6
:10159000E60EF71ED7018C91E9E1FEEFEE0EFF1E7D
:1015A000D9011F968C931F978CE090E053969C93E3
:1015B0008E935297F701EB51FE4F808151968C9399
:1015C0008F5F8083C701BA010E94660881E001C075
:1015D00080E0A0960FB6F894DEBF0FBECDBFCF91CE
:1015E000DF911F910F91FF90EF90DF90BF90AF9030
:1015F0009F908F900895EF92FF920F931F93CF9338
:10160000DF93EC017B018B01085F1F4FCA53DE4F54
:101610008881C65CD140882309F441C0C45DDD4F98
:10162000288139814A815B81CC52D240FB0180857F
:101630009185A285B385281739074A075B0709F00A
:1016400061C0C752DE4FF8012485358588819981B4
:10165000C95DD1402817390769F0CE0188519E4FE6
:101660000E94BD04C353DE4F688379838A839B83C2
:10167000CD5CD1405D9A0E94EF01AB01BC01425D9F
:10168000504060407040CE0188519E4F0E946804D7
:10169000C953DE4F81E08883C75CD1405D98F80173
:1016A00084859585892B71F1CE0188519E4F0E94CA
:1016B000BD04CF52DE4F688379838A839B8328964B
:1016C000F8018485958599838883C95DD140DE01C1
:1016D000A951BE4FCD53DE4FE881F981C35CD140A3
:1016E000EE5AFF4F80818C93CE01B7010E94C00952
:1016F000882329F0CE010E94460781E004C0CE0174
:101700000E949B0780E0DF91CF911F910F91FF9086
:10171000EF900895EF92FF921F93DF93CF93CDB791
:10172000DEB7A0970FB6F894DEBF0FBECDBF7C0129
:10173000162F0E946907F701ED53FE4FD701AA5CEF
:10174000BD4F808191816C910E948A10AE01475FEC
:101750005F4F1886FE01319680E2DF011D928A9567
:10176000E9F7F701EC51FE4F20812F5F20832150D4
:10177000E7EDF1E0EE0EFF1ED7013C91E1E5F0E070
:10178000EE0EFF1EF70180819181A281B3818987CE
:101790009A87AB87BC8768E070E0E60EF71EF7011A
:1017A00080819181A281B381FA0184839583A6838C
:1017B000B78369EA7FEFE60EF71ED7018D919C9102
:1017C00095878487EDEFFFEFEE0EFF1ED7018C911A
:1017D000FA01808B8E917D01EBE2FEEFEE0EFF1E93
:1017E000DA011E968C931E97112351F01D961C92C0
:1017F0001E921C978CE090E053969C938E93529788
:101800003A832E8384E08983C701BE016F5F7F4FD7
:101810000E946608A0960FB6F894DEBF0FBECDBF3B
:10182000CF91DF911F91FF90EF900895CF93DF93B9
:10183000EC01C85CDD4F8881C853D2408823B9F0E1
:10184000CE0188519E4F0E94BD042AE030E040E066
:1018500050E00E94F018611571058105910539F479
:10186000CE0160E00E948A0BCE010E944607DF9104
:10187000CF910895EF92FF920F931F938C017B01FC
:10188000FC01ED53FE4F0B5C1D4F80819181D8010F
:101890006C910E948A1089E0F70180830E551040F8
:1018A000D8018C918183055B1F4FF8018081025222
:1018B0001240D70113968C931397F801ED51FE4F08
:1018C000808115968C9315978F5F80830D5D1D4FDA
:1018D000F80180810352124014968C93C801B7011D
:1018E0000E9466081F910F91FF90EF900895EF926C
:1018F000FF920F931F938C010A531E4FF801108221
:101900000D5E1F4F81E090E0F801918380830C5FB2
:101910001F4F83E090E0F8018193919384E190E080
:10192000819391938F01118210820A511040F80126
:1019300010820A5F1F4FF8011082118212821382F7
:101940000D5C114058EEE52E51E0F52EE00EF11E33
:10195000C7010E94BD040F521E4FF80160837183BE
:10196000828393830B5F1F4FF80110820E5010404B
:1019700081E0F8018083085C1140C8010E94640482
:10198000085D1D4FF80140815181628173810852C9
:101990001240C8012FEF0E94DA03085C1D4FF801C6
:1019A000108208531240C7010E94C304C80161E0BD
:1019B0000E948A0B64E170E080E090E00E941302D4
:1019C000C8010E9446071F910F91FF90EF90089564
:1019D000EF92FF920F931F93DF93CF93CDB7DEB7B4
:1019E00064970FB6F894DEBF0FBECDBF8C017B01AC
:1019F000085C1D4FD8018C9108531240882309F4CC
:101A000040C0AB01485F5F4FDE011196FA0184E1EF
:101A100001900D928150E1F7F7012281808185FFCD
:101A200019C00D5D1D4FD8018C9184830C5410405A
:101A3000F8018081D70111968C9304511040D80190
:101A4000ED91FC91035C1140EE5AFF4F8081FA0149
:101A5000878720E049815A816B817C81C8010E947F
:101A6000DA03882351F4C8010E94770CF801ED5382
:101A7000FE4F808191810E94A610C801B7010E948B
:101A80005C0964960FB6F894DEBF0FBECDBFCF9150
:101A9000DF911F910F91FF90EF900895EF92FF92C9
:101AA0000F931F93CF93DF93EC0168EEE62E61E076
:101AB000F62EE80EF91EC7016CED75E00E94C70412
:101AC000882351F0CE010E94770CFE01ED53FE4FAA
:101AD000808191810E94A610CA53DE4F8881C65C26
:101AE000D140882339F1C7010E94BD048E01035300
:101AF0001E4FF801208131814281538162177307A3
:101B0000840795070CF43FC0C7010E94BD04F8018B
:101B10002081318142815381265F3F4F4F4F5F4F7C
:101B2000621773078407950741F5CE0161E00E94B3
:101B30008A0B26C0C7010E94BD04CF52DE4F288108
:101B400039814A815B81C15DD1402C5E3F4F4F4F4F
:101B50005F4F261737074807590754F4C953DE4F1C
:101B600081E08883C75CD140CE010E947D070BC015
:101B7000C7010E94BD0462FF06C0CE010E94690732
:101B8000CE010E944607DF91CF911F910F91FF90E8
:101B9000EF900895FC01E852FE4F808180930C0481
:101BA00010920D04829180930E048291809311040F
:101BB000E35BFF4F808180931004829180930F0438
:101BC000369680819181A281B3818093080490939D
:101BD0000904A0930A04B0930B04CF0183569040EC
:101BE0000E944D030895EF92FF920F931F93CF939E
:101BF000DF93EC01FB0178E0E72EF12CEE0EFF1EE7
:101C00008C01085D1D4F2085318542855385F80183
:101C100080819181A281B381281739074A075B0728
:101C200011F080E016C0CE0188519E4F0E94C3047F
:101C3000F70184819581A681B781F8018083918322
:101C4000A283B383CE010E94CA0DCE010E949B07DE
:101C500081E0DF91CF911F910F91FF90EF90089558
:101C60000F931F938C018B539E4F0E946103095267
:101C70001E4F80910E04F8018083055B1F4F8091F9
:101C80000F04F80181938F018091100480830B541D
:101C9000104080910C04F801808302501040809124
:101CA0001104F80180831F910F910895CF93DF9362
:101CB000EC01CD53DE4F888199810E94CC1088239E
:101CC00029F0888199810E948B1081E0DF91CF916A
:101CD0000895AF92BF92CF92DF92EF92FF920F934F
:101CE0001F936C017A018B01E8EEAE2EE1E0BE2E6F
:101CF000A80EB91E8BED91E0C80ED91ED6018D91AC
:101D00009C91A0E0B0E09A01AB01281B390B4A0B73
:101D10005B0B285A3D4F4F4F5F4FC50164E00E9457
:101D20001E05F60180819181A0E0B0E0A801970135
:101D3000281B390B4A0B5B0B205E3C4F4F4F5F4F0C
:101D4000C50165E00E941E05D6018D919C91A0E021
:101D5000B0E0E81AF90A0A0B1B0B8CE291E0A0E054
:101D6000B0E0E80EF91E0A1F1B1FC50163E0A801C1
:101D700097010E941E051F910F91FF90EF90DF9039
:101D8000CF90BF90AF9008950F931F938C01FC01EB
:101D9000EE53FE4F09521E4FD8016C916083025AD8
:101DA0001F4FF80110820F551040D8011C920B5F95
:101DB0001F4FF801118210820B5D114070E080E02E
:101DC00090E0F3E0660F771F881F991FFA95D1F70F
:101DD00028EE33E040E050E00E94CE18AB01BC0199
:101DE000C8010E94690E08521E4FD8016C91085D0F
:101DF0001140C80170E00E94CD061F910F91089517
:101E0000AF92BF92CF92DF92EF92FF920F931F9308
:101E1000CF93DF93EC018B0188E0E82EF12CE60EE6
:101E2000F71EC85DDD4FFB01208531854285538556
:101E300088819981AA81BB81C852D240281739076D
:101E40004A075B0729F0CE010E94CF0880E07CC0E2
:101E5000B8EECB2EB1E0DB2ECC0EDD1EC6010E940B
:101E6000C304CD5DDD4FF80181818883C352D24028
:101E7000A7EDAA2EA1E0BA2EAC0EBD1EF7018685F5
:101E8000F5018083CA52DE4FF7018189888322964B
:101E9000828988832E9687858883C65ED140CE014D
:101EA0000E94C40ECA53DE4F8881C65CD14088238D
:101EB000C9F4C6010E94BD048E010F511E4FF501E9
:101EC0002081620F711D811D911DC352DE4F28813B
:101ED0003981CD5DD14040E050E00E94F018F8011A
:101EE00071836083CA53DE4F81E08883C65CD14032
:101EF000C6010E94BD04FE01E353FE4FC152DE4FF6
:101F000028813981CF5DD14040E050E0260F371F56
:101F1000481F591F2083318342835383CE010E947F
:101F2000CA0DCB52DE4F8881C55DD140823041F46D
:101F3000C552DE4F88EC90E099838883CB5DD14019
:101F4000CE010E949B0781E0DF91CF911F910F91FD
:101F5000FF90EF90DF90CF90BF90AF9008950F93D8
:101F60001F93CF93DF938C01EB019881892F8F70A2
:101F7000843021F4C8010E94FB0A2BC0953021F463
:101F8000C8010E94E80C1EC0963021F4C8010E94CE
:101F9000000F05C09C3031F4C8010E94F30D882366
:101FA00089F017C0C8010E949D09882359F48881CF
:101FB000883041F0807C71F0C801BE010E949C080D
:101FC00080E008C00D531E4FF801808191810E946E
:101FD000C41081E0DF91CF911F910F910895CF93AD
:101FE000DF93EC0168EE73E00E949106882329F0EC
:101FF000CE0168EE73E00E94AF0FDF91CF9108959C
:1020000088519E4F62E028EC30E040E050E00E94B2
:102010001E050895CF93DF93EC01CD53DE4F7983F6
:102020006883809164008B7F80936400CC58DF4F7D
:102030008881C753D240882319F4CB010E94101124
:10204000FE01ED53FE4F8081918160E375E00E94B7
:102050008510CE0140E050E060E070E00E94690E23
:10206000CE010E94770CFE01EC5DFD4FC85DDD4F97
:1020700088819981AA81BB81C852D2408083918393
:10208000A283B383CE010E94300ECE010E94C40E03
:10209000DF91CF9108950F931F938C0188519E4F2C
:1020A0000E946E06F8940E9428030E94A7181093BD
:1020B000E7030093E6030B5C1D4FF80110820F55F8
:1020C0001040F8011082005A1F4FF80110820F567D
:1020D0001040F80110820A5E1F4F83E090E0F80183
:1020E000819391938F0184E190E0918380830450E8
:1020F0001040F801118210820B5D1140C8010E944E
:1021000000101F910F910895089570931604609325
:10211000150408950895089589E091E090931404BA
:10212000809313048AE08093170491E090939D04B8
:1021300010921A048CE180931B0490931C0484E891
:1021400090E19093160480931504089583E194E040
:102150000E94531308950F931F938C0183E194E021
:102160000E943711F80116821F910F9108950F9365
:102170001F938C0183E194E00E94221189E0F80111
:1021800086831F910F910895FC0181E0868383E18E
:1021900094E00E943F120895CF93DF93EC0183E116
:1021A00094E00E945A11482F882341F18091A304A2
:1021B0009091A404CE5ADF4F99838883249780E2BC
:1021C00090E0998388839091A1049295990F9076DD
:1021D0008091A1048F5F8093A104DE01A554B040DB
:1021E00020E030E0E92FE20FF0E0E35EFB4F80817A
:1021F0008D932F5F3F4F20323105A1F7842FDF9160
:10220000CF910895FC01848182E0868380E283A7D8
:10221000BC9683E194E0BF0140E20E94AD130895B3
:102220000F931F9303E114E0C80166E541E024E643
:102230000E948714C80161E00E9462131F910F91F0
:1022400008950895DC018091A2048F5F8093A20419
:10225000ED91FC9111970684F785E02DCD0160E0AA
:1022600009958091A20481508093A2040895DC0115
:102270008091A2048F5F8093A204ED91FC9111974D
:102280000684F785E02DCD0161E009958091A204D7
:1022900081508093A2040895E091A504F091A604D2
:1022A000A081B18118962D913C911997CF01F90128
:1022B000099508959091A0048091A10420E09813BD
:1022C00021E0822F0895DC0180919D04833059F430
:1022D000ED91FC9111970684F785E02DCD0161E029
:1022E000099581E0089580919D04833011F480E088
:1022F0000895ED91FC9111970280F381E02DCD01BD
:10230000099580E008951F93CF93DF93EC01162F7A
:10231000E881F9810288F389E02D09951F771EBDB8
:102320000DB407FEFDCF8EB51EBC0DB407FEFDCF6C
:102330001EB5E881F9810488F589E02DCE01099563
:10234000812FDF91CF911F9108950F931F93CF930A
:10235000DF93EC01162F042FE881F9810288F389BD
:10236000E02D099510681EBD0DB407FEFDCF8EB59A
:102370000EBD0DB407FEFDCF8EB5E881F98104884E
:10238000F589E02DCE010995DF91CF911F910F9135
:102390000895CF93DF93EC01662351F063E241E0AF
:1023A0000E94A511CE0163E20E94831181FFFACF42
:1023B000CE0164E20E948311CE0164E20E94831187
:1023C00090E0DF91CF9108950F931F93CF93DF9308
:1023D000EC018B01E881F9810684F785E02D61E04D
:1023E00009950115110521F1E881F9810288F38928
:1023F000E02DCE0109958EEB8EBD0DB407FEFDCF0D
:102400008EB520E030E0F801E20FF31F80818EBD31
:102410000DB407FEFDCF8EB52F5F3F4F2031310544
:1024200091F7E881F9810488F589E02DCE010995BD
:10243000CE016DE30E948311482F4E7F80E0012B77
:1024400009F081E0482BCE016DE30E94A511DF91D8
:10245000CF911F910F9108950F931F938C0165E207
:1024600040E40E94A511D801ED91FC910684F78506
:10247000E02DC80163E009951F910F9108950E9416
:102480002C1208951F93CF93DF93EC0180919F044A
:102490008F5F80939F0480919D04833009F066C014
:1024A0008091A204882309F061C08091A2048F5F0B
:1024B0008093A204CE0160E00E94C9119093A4040D
:1024C0008093A30410E0CE0168E20E9483111F5F95
:1024D00082FFF9CF1D31B8F7CE0168E20E94831167
:1024E000182FE881F9810684F785E02DCE0161E09F
:1024F0000995E881F9810288F389E02DCE010995DB
:102500001EBC0DB407FEFDCF8EB59091A004929530
:10251000990F907620E030E0E92FE20F1EBC0DB459
:1025200007FEFDCF8EB5F0E0E35EFB4F80832F5FAB
:102530003F4F2032310581F78091A0048F5F809357
:10254000A004E881F9810488F589E02DCE01099580
:1025500010939E04CE010E942C12EA81FB8180E23E
:1025600009958091A20481508093A204DF91CF91BC
:102570001F910895CF93DF93EC01603208F06FE173
:1025800068878985882311F066956887CE0161E1A7
:102590000E948311482F407E8885482BCE0161E13F
:1025A0000E94A511DF91CF910895FF920F931F9381
:1025B000CF93DF93EC01F62E80919D04681709F408
:1025C0006CC082E0681709F440C0861740F06623AB
:1025D00009F447C081E0681709F05FC03EC083E09E
:1025E0006817E9F084E0681709F057C0CE0161E090
:1025F0000E948311482F437E4C60CE0161E00E940F
:10260000A5118985882341F0E881F9810088F18945
:10261000E02DCE0161E0099500E010E02DC0CE0173
:1026200061E00E948311482F437E4061CE0161E04A
:102630000E94A5118985882379F3E881F9810088B2
:10264000F189E02DCE0160E0E6CFCE0161E00E948D
:102650008311482F437E48600AC0CE0161E044E008
:1026600008C0CE0161E00E948311482F437ECE0155
:1026700061E00E94A511D0CF80919D04882359F478
:10268000CE0167E20E94831187FD05C00F5F1F4FD7
:102690000536110589F7F0929D04DF91CF911F91C6
:1026A0000F91FF9008950F931F938C0161E044E018
:1026B0000E94A511C80168E240E10E94A5111F9186
:1026C0000F910895FC0167830895CF93DF93EC0188
:1026D0006987662311F44AE101C04FE0CE0163E14E
:1026E0000E94A5118985882341F0CE0161E10E94F5
:1026F0008311482F4F71406602C048854068CE0163
:1027000061E10E94A511DF91CF9108951F93CF93AE
:10271000DF93EC01162F662311F445E501C04DE56A
:10272000CE016AE50E94A511112311F440E701C012
:102730004CE7CE016CE50E94A511DF91CF911F916E
:102740000895FC01848161E00E94CC170895FC018A
:10275000848160E00E94CC170895BF92CF92DF92EF
:10276000EF92FF920F931F93CF93DF93EC016B01D6
:10277000B42E6DE30E948311482F4460CE016DE3B7
:102780000E94A5110E94E4017B018C0180919D04AF
:10279000813099F08091A204882321F480919D04D6
:1027A000833059F00E94E4016E197F09800B910B70
:1027B000685E73408040904048F38091A2048F5F30
:1027C0008093A204E881F9810484F585E02DCE018F
:1027D00060E0A6012B2D09958091A2048150809381
:1027E000A20481E0DF91CF911F910F91FF90EF90B4
:1027F000DF90CF90BF900895CF92DF92EF92FF923B
:102800000F931F93CF93DF938C01E42ED52EF22EDE
:10281000DC01ED91FC910684F785E02D61E00995DE
:10282000C0E0D0E0C80167E20E94831187FD40C08C
:102830002196B3E0C93EDB07D9F1F4CF0DB407FE12
:10284000FDCF8EB58E2D9D2D9C01F90190E008C025
:1028500080818EBD0DB407FEFDCF8EB59F5F319692
:102860009F15B0F3D801ED91FC910488F589E02D16
:10287000C8010995D801ED91FC910684F785E02DFA
:10288000C80164E009950E94E4016B017C0183E0CA
:102890000E942018892B09F50E94E4016C197D091A
:1028A0008E099F096436710581059105B0F4EFCF5B
:1028B000C80165E240E00E94A511BDE3BF1510F418
:1028C0004DE3F42ED801ED91FC910288F389E02DBF
:1028D000C801099580E88EBDB1CFD801ED91FC917A
:1028E0000684F785E02DC80161E00995D801ED91D6
:1028F000FC910280F381E02DC8010995DF91CF9111
:102900001F910F91FF90EF90DF90CF900895BF92AD
:10291000CF92DF92EF92FF920F931F93DF93CF93AB
:10292000CDB7DEB7E4970FB6F894DEBF0FBECDBFCC
:102930006C01B42E522F6F3119F430EC4EE40EC0FE
:102940006B3211F44CE62CC1663509F025C149ED16
:1029500004C0663511F030EC01C030E0FE01319664
:1029600084E3DF011D928A95E9F791E0998324E0E1
:102970002A8382E08B839C8383E08D839E832F83D5
:1029800080E4888785E0898786E08A878B8786E66A
:102990008C8797E09D8728E02F8789E0898B81E1EC
:1029A0008B8B81E58C8B89E18D8B82E48E8B85E22C
:1029B0008F8B80EC888F86E2898F9A8F88E28B8F4D
:1029C00080E18C8F89E28D8F84EB8E8F9DE29F8FCB
:1029D00028A38EE289A380E98AA38FE28BA39CA31C
:1029E00090E39DA381E38FA38AEA88A787E389A761
:1029F00088E18AA788E38BA780E28CA78CE38DA768
:102A00008FE88EA78DE38FA782E188AB8FE689AB35
:102A10009AAB8FEF8BAB4E87388B5EA384E060E080
:102A20000E94CC1784E061E00E948D17F60184813A
:102A300061E00E94CC17D60114968C9161E00E944F
:102A40008D170E94A70380E00E94910381E00E94FD
:102A5000880380E00E9496031092A2040E94A316AD
:102A60007B018C01C6016FE24AEA0E94A511C601F2
:102A70006FE20E9483118A3A09F476C00E94A3167D
:102A80006E197F09800B910B6639710581059105DF
:102A900008F06AC0E7CFC6016FE245E50E94A511C4
:102AA000C6016FE20E948311853509F462C00E945D
:102AB000A3166E197F09800B910B6639710581058C
:102AC000910508F056C0E7CFC60141810E94A511CB
:102AD0001F5FE12FF0E0EE0FFF1FEE0DFF1D608185
:102AE0006F3F91F7C60160E070E00E94E411D601EB
:102AF000ED91FC910684F785E02DC60161E0099512
:102B00000E94A3167B018C01C60167E20E9483111B
:102B100087FD35C00E94A3166E197F09800B910BAB
:102B2000663971058105910550F5EECF81E06CE4C1
:102B300071E143E050E00E94D215D092A604C09209
:102B4000A504F601B68281E0E4960FB6F894DEBFE4
:102B50000FBECDBFCF91DF911F910F91FF90EF90EE
:102B6000DF90CF90BF9008950E94A3167B018C0147
:102B700092CF10E07E010894E11CF11CAACF0E94C4
:102B8000A3166E197F09800B910B663971058105BB
:102B9000910560F280E0D8CF44EE6B3209F0D9CED7
:102BA00030E4DCCE823000F5E82FF0E0EE0FFF1FBE
:102BB000E955FB4F71836083882319F08130A1F4BC
:102BC00008C0809169008C7F842B80936900E89A0B
:102BD000089580916900440F551F440F551F837F4E
:102BE000842B80936900E99A08951F920F920FB683
:102BF0000F9211242F933F934F935F936F937F9383
:102C00008F939F93AF93BF93EF93FF938091A7040C
:102C10009091A804892B29F0E091A704F091A804D1
:102C20000995FF91EF91BF91AF919F918F917F9106
:102C30006F915F914F913F912F910F900FBE0F9029
:102C40001F9018951F920F920FB60F9211242F9379
:102C50003F934F935F936F937F938F939F93AF9324
:102C6000BF93EF93FF938091A9049091AA04892BBD
:102C700029F0E091A904F091AA040995FF91EF9140
:102C8000BF91AF919F918F917F916F915F914F9184
:102C90003F912F910F900FBE0F901F9018951F928C
:102CA0000F920FB60F9211242F933F934F935F9380
:102CB0006F937F938F939F93AF93BF932091AF04B4
:102CC0003091B0044091B1045091B2047091B304BA
:102CD000DA01C9010296A11DB11D672F6A5F6D3728
:102CE00030F06D57DA01C9010396A11DB11D609343
:102CF000B3048093AF049093B004A093B104B09355
:102D0000B2048091AB049091AC04A091AD04B09159
:102D1000AE040196A11DB11D8093AB049093AC0449
:102D2000A093AD04B093AE04BF91AF919F918F91EA
:102D30007F916F915F914F913F912F910F900FBEB7
:102D40000F901F9018958FB7F8942091AF04309191
:102D5000B0044091B1045091B2048FBFB901CA01CF
:102D600008959FB7F8942091AB043091AC04409142
:102D7000AD045091AE0486B5A89B06C08F3F21F0EC
:102D80002F5F3F4F4F4F5F4F9FBF542F432F322F27
:102D90002227280F311D411D511D83E0220F331FB3
:102DA000441F551F8A95D1F7B901CA0108959B01A7
:102DB000AC017FB7F8948091AB049091AC04A091E2
:102DC000AD04B091AE0466B5A89B05C06F3F19F085
:102DD0000196A11DB11D7FBFBA2FA92F982F88275B
:102DE000860F911DA11DB11D63E0880F991FAA1FB9
:102DF000BB1F6A95D1F7BC012DC0FFB7F894809135
:102E0000AB049091AC04A091AD04B091AE04E6B5D2
:102E1000A89B05C0EF3F19F00196A11DB11DFFBF92
:102E2000BA2FA92F982F88278E0F911DA11DB11D94
:102E3000E3E0880F991FAA1FBB1FEA95D1F7861BF5
:102E4000970B885E9340C8F221503040404050407C
:102E500068517C4F211531054105510571F60895E2
:102E6000789484B5826084BD84B5816084BD85B565
:102E7000826085BD85B5816085BDEEE6F0E080812C
:102E800081608083E1E8F0E010828081826080834D
:102E9000808181608083E0E8F0E0808181608083D0
:102EA000E1EBF0E0808184608083E0EBF0E0808102
:102EB00081608083EAE7F0E08081846080838081A4
:102EC000826080838081816080838081806880834C
:102ED0001092C1000895982F8E3008F09E50977080
:102EE000809104018295880F880F807C892B8093C4
:102EF0007C0080917A00806480937A0080917A00CF
:102F000086FDFCCF2091780040917900942F80E0DD
:102F100030E0282B392BC9010895CF93DF93482F38
:102F200050E0CA0186569F4FFC0134914A575F4FCB
:102F3000FA018491882369F190E0880F991FFC01C0
:102F4000E859FF4FA591B491FC01EE58FF4FC59190
:102F5000D491662351F42FB7F8948C91932F9095C8
:102F600089238C93888189230BC0623061F42FB749
:102F7000F8948C91932F909589238C938881832B3F
:102F800088832FBF06C09FB7F8948C91832B8C93B6
:102F90009FBFDF91CF910895482F50E0CA0182551D
:102FA0009F4FFC012491CA0186569F4FFC019491CA
:102FB0004A575F4FFA013491332309F440C022236A
:102FC00051F1233071F0243028F42130A1F0223067
:102FD00011F514C02630B1F02730C1F02430D9F4F7
:102FE00004C0809180008F7703C0809180008F7D26
:102FF0008093800010C084B58F7702C084B58F7D28
:1030000084BD09C08091B0008F7703C08091B0006B
:103010008F7D8093B000E32FF0E0EE0FFF1FEE589E
:10302000FF4FA591B4912FB7F894662321F48C91AA
:103030009095892302C08C91892B8C932FBF089582
:10304000682F70E0CB0182559F4FFC012491CB018A
:1030500086569F4FFC0144916A577F4FFB01949124
:10306000992319F420E030E03CC0222351F12330B1
:1030700071F0243028F42130A1F0223011F514C071
:103080002630B1F02730C1F02430D9F404C080914B
:1030900080008F7703C0809180008F7D80938000B7
:1030A00010C084B58F7702C084B58F7D84BD09C000
:1030B0008091B0008F7703C08091B0008F7D8093A6
:1030C000B000892F90E0880F991F84589F4FFC0112
:1030D000A591B4918C9120E030E0842311F021E09F
:1030E00030E0C90108950895CF93DF930E9430170F
:1030F0000E9473180E94F600C0E0D0E00E94D70141
:103100002097E1F30E940000F9CFEF92FF920F9316
:103110001F937B018C01611571058105910529F4CF
:1031200020E030E040E050E00BC00E94E000A80149
:1031300097010E94F018AC01CB01DA019C01AD01AE
:10314000B901CA011F910F91FF90EF900895009768
:1031500029F0BC0180E090E00E94E5000895629FA4
:10316000D001739FF001829FE00DF11D649FE00D7F
:10317000F11D929FF00D839FF00D749FF00D659FE0
:10318000F00D9927729FB00DE11DF91F639FB00DDF
:10319000E11DF91FBD01CF0111240895A1E21A2EEE
:1031A000AA1BBB1BFD010DC0AA1FBB1FEE1FFF1FEB
:1031B000A217B307E407F50720F0A21BB30BE40B3B
:1031C000F50B661F771F881F991F1A9469F7609582
:1031D0007095809590959B01AC01BD01CF0108953C
:1031E00097FB092E05260ED057FD04D0D7DF0AD055
:1031F000001C38F450954095309521953F4F4F4F26
:103200005F4F0895F6F790958095709561957F4F83
:103210008F4F9F4F0895EE0FFF1F0590F491E02D03
:1032200009942F923F924F925F926F927F928F926A
:103230009F92AF92BF92CF92DF92EF92FF920F9345
:103240001F93CF93DF93CDB7DEB7CA1BDB0B0FB64F
:10325000F894DEBF0FBECDBF09942A88398848880C
:103260005F846E847D848C849B84AA84B984C884A2
:10327000DF80EE80FD800C811B81AA81B981CE0F99
:10328000D11D0FB6F894DEBF0FBECDBFED0108957E
:04329000F894FFCFE0
:1032940001000000010000000063113F126513BA31
:1032A4001242122111FC13D5128613A713A1130085
:00000001FF
