:100000000C9464000C9491120C94BE120C948C000D
:100010000C948C000C948C000C948C000C94840434
:100020000C948C000C948C000C948C000C948C0020
:100030000C948C000C948C000C948C000C948C0010
:100040000C94EB120C948C000C94C8140C941A159C
:100050000C948C000C948C000C948C000C948C00F0
:100060000C948C000C948C000000000024002700ED
:100070002A0000000000250028002B0000000000DE
:1000800023002600290004040404040404040202DA
:100090000202020203030303030301020408102007
:1000A0004080010204081020010204081020000012
:1000B0000007000201000003040600000000000029
:1000C0000000EF00670D021611241FBECFEFD8E02D
:1000D000DEBFCDBF11E0A0E0B1E0E0E5F0E302C09B
:1000E00005900D92A036B107D9F715E0A0E6B1E072
:1000F00001C01D92A637B107E1F710E0C8ECD0E0CF
:1001000004C02297FE010E94EB17C23CD107C9F739
:100110000E9459160C9426180C940000A0E0B0E040
:10012000E4E9F0E00C94F717EC01A880B980CA80EC
:10013000DB80A114B104C104D10441F484E2A82EEF
:1001400089EDB82E8BE5C82E87E0D82EC601B50103
:100150002DE133EF41E050E00E94CE1727EA31E471
:1001600040E050E00E945A177B018C01C601B501A6
:100170002DE133EF41E050E00E94CE17CA01B901F2
:100180002CEE34EF4FEF5FEF0E945A176E0D7F1D7C
:10019000801F911F97FF04C06150704080409048BD
:1001A000688379838A839B839B01AC015F77B90164
:1001B000CA01CDB7DEB7EAE00C9413180E948E0096
:1001C000089581E391E00E948E00089560933101CB
:1001D000709332018093330190933401089580E647
:1001E00091E00E94300D83E68093930308950F936E
:1001F0001F93F89486E061E00E94E11386E061E0DD
:100200000E94201486E060E00E94201488E10FB66E
:10021000F89480936000109260000FBE86E061E069
:100220000E94201486E060E00E94201484E061E0D7
:100230000E9420148DE061E00E94E1138DE060E0F7
:100240000E94201484E060E00E942014789480E2F0
:1002500090E0A3E1B0E080937B0390937C03A093B4
:100260007D03B0937E0380E691E06CE873E00E942A
:10027000090D83E0809387030E943F130E94E501EC
:100280008DE061E00E94201468EC70E080E090E076
:100290000E944D138DE060E00E94201400E00CC02D
:1002A0008FE393E064E670E00E940F041F5F10315B
:1002B000B9F70F5F083011F010E0F2CF1F910F91E6
:1002C000089504C080E691E00E94C90C80E691E0A8
:1002D0000E94670B8823B1F7089580E691E00E94A1
:1002E0004405882399F180E691E00E944C0588231B
:1002F00041F11092E903A2EEB3E080E2FD01119218
:100300008A95E9F78091E0039091E103019690933B
:10031000E1038093E003FD01389624E630E030935A
:10032000EB032093EA038483958321E030E0378355
:1003300026838087918780E691E0BD010E94910924
:10034000089580E691E00E944B05089580E691E0D3
:100350000E9418060895853009F1863038F48330FC
:1003600089F08430A0F4823019F507C08536D9F0C1
:100370008636C9F08436E1F419C080E691E00E9427
:100380001806089580E691E00E947B0A089580E6B1
:1003900091E00E946E060E946D01089580E691E052
:1003A0000E94B10508950E94610108950E946101B3
:1003B00008951F938FE393E00E94C704182F0E94B3
:1003C000AB011123B9F71F910895209102043091D8
:1003D00003044091040450910504B901CA01089531
:1003E00020910204309103044091040450910504CB
:1003F0002F5F3F4F4F4F5F4F209302043093030412
:100400004093040450930504215030404040504034
:10041000B901CA01089583B7817F866083BF0895BB
:100420008091020490910304A0910404B09105040A
:100430000196A11DB11D8093020490930304A09323
:100440000404B09305048091020490910304A091E8
:100450000404B09105040196A11DB11D809302040E
:1004600090930304A0930404B093050483B78160C0
:1004700083BF7894889583B78E7F83BF78940895DF
:10048000EF92FF920F931F937B018C012091020446
:1004900030910304409104045091050483B7817F97
:1004A000866083BF8091020490910304A0910404AC
:1004B000B09105040196A11DB11D80930204909393
:1004C0000304A0930404B093050480910204909166
:1004D0000304A0910404B09105040196A11DB11D6F
:1004E0008093020490930304A0930404B093050442
:1004F00083B7816083BF7894889583B78E7F83BFED
:1005000078948091020490910304A0910404B09126
:100510000504821B930BA40BB50BE816F9060A071A
:100520001B0708F0BFCF1F910F91FF90EF90089528
:10053000A1EBB0E01C9217BA20E730E0F90180810E
:100540008E7F8083E0EBF0E080818C7F80838081F0
:10055000826080838C91877F8C93E6EBF0E08081D2
:100560008F7D8083F90180818D7F80838C91856070
:100570008C938C918D7F8C938C918E7F8C938CE758
:100580008093B3008081826080830895AF92BF9290
:10059000CF92DF92EF92FF920F931F935B016C015A
:1005A0000E943F137B018C0183B7817F83BF83B798
:1005B000816083BF889583B78E7F83BF0E943F137E
:1005C0006E197F09800B910BA616B706C806D906CF
:1005D00070F71F910F91FF90EF90DF90CF90BF9039
:1005E000AF900895882319F48CB5806202C08CB551
:1005F0008F7D8CBD08959CB5937F982B9CBD0895ED
:100600002CB5382F33702C7F322B3CBD2DB590E0AC
:10061000959587959595879581702E7F822B8DBDB9
:1006200008958AE061E00E9420148AE061E00E945F
:10063000E1138CB580618CBD8CB580648CBD8DE080
:1006400061E00E94E1138BE061E00E94E1130895F4
:10065000DC014D915C91119721E00FC0FD01E80F85
:10066000F91FEE5BFF4F8081E254F040861721F4C2
:10067000EE57FE4F808108952F5F822F90E0841700
:10068000950764F380E008950F931F93CF93DF9352
:100690008C01FC01C081D18131E012C0EE0FFF1F3F
:1006A000EE0FFF1FE00FF11FEE57FF4F808191818A
:1006B000A281B38184179507A607B70739F03F5F7A
:1006C000E32FF0E0EC17FD074CF302C0332301F5F4
:1006D000C034D1053CF080E290E0F8019183808342
:1006E00080E017C0CC0FDD1FCC0FDD1FC00FD11F66
:1006F000CE57DF4F488359836A837B83F80180811B
:100700009181E80FF91F22830196F801918380837C
:1007100081E0DF91CF911F910F910895CF92DF92E9
:10072000EF92FF920F93CF93DF93EC016A017B016D
:10073000522F6881798141E013C0F901EE0FFF1F4C
:10074000EE0FFF1FEC0FFD1FEE57FF4F80819181D1
:10075000A281B3818C159D05AE05BF0539F04F5FB1
:10076000242F30E02617370744F30FC0442369F0E5
:10077000FE01E20FF31FEE5BFF4F5083E05CFE4F84
:100780000083E258F140828101C08FEFDF91CF9169
:100790000F91FF90EF90DF90CF900895FC011182B0
:1007A00010820895CF93DF93EC018A859B85AC85F9
:1007B000BD854A875B876C877D87481B590B6A0B11
:1007C0007B0BCB01BA0128EE33E040E050E00E9401
:1007D000AC179B01AC01243F81E0380780E048075B
:1007E00080E0580738F48EA99FA9820F931F9FAB12
:1007F0008EAB08C088AD99AD88519C4F821B930B7E
:1008000099AF88AFDF91CF910895FC016481758124
:10081000868197810895FC01118610860895FC0158
:100820008085918501969187808720E068177907F8
:1008300008F421E0822F0895EF92FF920F931F9307
:10084000CF93DF93FC01E288F388048915898689B8
:100850009789A08DB18D0A97A109B109E816F9060B
:100860000A071B0728F021E0E22EF12C012D112DA3
:10087000828B938BA48BB58B118A108AEF0161E078
:1008800070E02A8D3B8D4C8D5D8D82899389A48982
:10089000B589281739074A075B0758F4E216F306AB
:1008A0000407150730F4228B338B448B558B718BE7
:1008B000608B24966F5F7F4F6830710511F7DF9171
:1008C000CF911F910F91FF90EF900895E62FF0E0E8
:1008D000EE0FFF1FEE0FFF1FE80FF91F268B378B60
:1008E000408F518F0E941C040895FC016687089573
:1008F000E0910604F091070487858F5F8787108257
:1009000011821282138208951F920F920FB60F92D6
:1009100011242F933F934F935F936F937F938F9304
:100920009F93AF93BF93EF93FF930E94F001609169
:10093000080460956093080486E00E942014FF91EB
:10094000EF91BF91AF919F918F917F916F915F9147
:100950004F913F912F910F900FBE0F901F901895C0
:100960000F931F938C010E94E501F80122853385C6
:1009700044855585621B730B840B950B268937893B
:10098000408D518D0E94AC171F910F910895EF92E9
:10099000FF920F931F93CF93DF93EC010E940B0202
:1009A000789413C088819981AA81BB810196A11D89
:1009B000B11D88839983AA83BB830E9410028F850F
:1009C000882319F01F861E8540C0EA88FB880C89A1
:1009D0001D89CE010E94B0046E157F058007910726
:1009E00008F378941889112369F58C819D81AE8173
:1009F000BF810196A11DB11D8C839D83AE83BF83F2
:100A00006EE170E080E090E00E9440022E893F8914
:100A1000488D598D60E87EEE86E390E00E94AC1729
:100A200040E050E06C817D818E819F810E94CE17D5
:100A3000611571058105910509F419EC1882198277
:100A40001A821B82CE010E941C04812FDF91CF915C
:100A50001F910F91FF90EF9008950F931F938C01BA
:100A600090930704809306040E949802F80117AA45
:100A700016AA11AE10AE1186108614821582168247
:100A800017821F910F910895FC01EB53FE4F808157
:100A9000811181E008950895FF920F931F938C01B7
:100AA00081529E4F0E940504FF2409521E4FF801F7
:100AB000219131918F0140E050E00E94CE17F80162
:100AC0002081318140E050E0621773078407950769
:100AD00011F4FF24F3948F2D1F910F91FF9008952F
:100AE000CF92DF92EF92FF920F931F93CF93DF93FA
:100AF000EC01CB53DE4F8881C55CD140882341F1A6
:100B0000C653DE4FE880F9800A811B81CA5CD14060
:100B100086E090E0A0E0B0E0E80EF91E0A1F1B1F7F
:100B20008FEDC82E81E0D82ECC0EDD1EC6010E94AE
:100B30000504E616F7060807190754F0CD53DE4FF3
:100B4000888199810E94920DC60164E60E94750415
:100B5000DF91CF911F910F91FF90EF90DF90CF9099
:100B60000895CF92DF92EF92FF920F931F93CF934E
:100B7000DF93EC01CB53DE4F8881C55CD1408823E5
:100B800041F1C653DE4FE880F9800A811B81CA5CBF
:100B9000D14086E090E0A0E0B0E0E80EF91E0A1F28
:100BA0001B1F9FEDC92E91E0D92ECC0EDD1EC60174
:100BB0000E940504E616F7060807190754F0CD53FE
:100BC000DE4F888199810E94920DC60164E60E94E1
:100BD0007504DF91CF911F910F91FF90EF90DF90FF
:100BE000CF9008950F931F93CF93DF93EC01C55DD2
:100BF000DD4F8881CB52D2408823A9F08E010D535E
:100C00001E4FC153DE4FF8018081918168810E949F
:100C1000650DCE01409666E60E947504F80180815C
:100C200091810E949F0DDF91CF911F910F910895A7
:100C3000EF92FF920F931F93CF93DF93EC01CB536F
:100C4000DE4F8881C55CD140882359F12FEDE22E1B
:100C500021E0F22EEC0EFD1EC7010E9405048E015C
:100C600006531E4FF8012081318142815381621B5E
:100C7000730B840B950B613071058105910539F17A
:100C8000C7010E940504F80120813181428153810E
:100C9000621B730B840B950B623071058105910506
:100CA000B1F0CE0181529E4F65E60E9475048E011F
:100CB0000D531E4FC75DDD4FF80180819181688122
:100CC0000E94650DF801808191810E949F0DDF9146
:100CD000CF911F910F91FF90EF900895FC01ED537C
:100CE000FE4F808191810E94860D0895CF93DF93FE
:100CF000FC01EB01E65DFD4F8081EA52F240882362
:100D000011F080E026C0E053FE4F8081E05DF140AD
:100D10008A831E82DB019AE221E030E08D91980FF8
:100D20002F5F3F4F21323105C9F791959E83ED53D7
:100D3000FE4FA081B181E35CF1409C9680E2099076
:100D40000D928150E1F7ED53FE4F808191810E9419
:100D5000DD0DDF91CF910895DF93CF93CDB7DEB74F
:100D6000A0970FB6F894DEBF0FBECDBFFC01AB015C
:100D70009E012F5F3F4F80E2DB010D90BD01D90145
:100D80000D929D018150C1F788E08983DA011196A7
:100D90008C918D83E053FE4F8081E05DF1408A832A
:100DA000CF01BE016F5F7F4F0E947606A0960FB6FF
:100DB000F894DEBF0FBECDBFCF91DF9108956F9243
:100DC0007F928F929F92AF92BF92CF92DF92EF92DB
:100DD000FF920F931F93DF93CF93CDB7DEB7649746
:100DE0000FB6F894DEBF0FBECDBF7C015B01DE0104
:100DF0001196FB01389684E101900D928150E1F744
:100E00007E2C6F2C49815A816B817C81C7012F8593
:100E10000A890E948E03682F8F3F11F480E047C03B
:100E20002FEC31E0E20EF31EF701808121E33EEF6B
:100E3000E20EF31E898BDE011196F5019E012B5EF9
:100E40003F4F8D9180873196A217B307D1F743ECBE
:100E5000C42E41E0D42ECE0CDF1C39E2832E32E0CA
:100E6000932E8E0C9F1C662351F4F6018081918194
:100E7000F40160810E94650DF501138214C0F50133
:100E80006383F60100811181872D962D0E9428032E
:100E9000682FC8010E94650DF60180819181F401DF
:100EA00060810E94650DC701B5010E9476066496B7
:100EB0000FB6F894DEBF0FBECDBFCF91DF911F916B
:100EC0000F91FF90EF90DF90CF90BF90AF909F90E9
:100ED0008F907F906F900895EF92FF920F931F93E2
:100EE000DF93CF93CDB7DEB7A0970FB6F894DEBFF0
:100EF0000FBECDBF8C017B01DE011196FB0180E2AC
:100F000001900D928150E1F7F801ED53FE4F085D1D
:100F10001D4F80819181F80160810E94650DF7016C
:100F20008081806289830F501040F80180810951CF
:100F300012408C83C801BE016F5F7F4F0E9476060E
:100F4000A0960FB6F894DEBF0FBECDBFCF91DF9154
:100F50001F910F91FF90EF900895FC01DB01E0538A
:100F6000FE4F9081E05DF14014968C9114978917A3
:100F700099F0992389F0EB53FE4F8081E55CF140B5
:100F8000882361F013968C911397891739F4CF0158
:100F90000E946C0781E0089580E0089581E0089543
:100FA000AF92BF92CF92DF92EF92FF920F931F9377
:100FB000DF93CF93CDB7DEB7A0970FB6F894DEBF1F
:100FC0000FBECDBF7C015B018C010A531E4FD801BF
:100FD0002D913C9111972F5F3F4F2D933C93E5EC62
:100FE000F1E0EE0EFF1ED7018C91EBE3FEEFEE0E6B
:100FF000FF1E8823C9F147ED51E0E40EF51ED7012D
:101000006D917C91E9E2FEEFEE0EFF1EE4E0660FCB
:10101000771FEA95E1F7C9010E948517892B79F0BE
:1010200048EC51E0E40EF51ED7018D919C91E8E368
:10103000FEEFEE0EFF1E281739070CF4DCC048EC5B
:1010400051E0E40EF51E2D5F3F4FD7012D933C93E9
:10105000E8E3FEEFEE0EFF1E64E670E080E090E055
:101060000E943817645C1DC058ECC52E51E0D52E87
:10107000CE0CDF1CD6018D919C91281739070CF4FA
:10108000BAC06CE370E080E090E00E943817262F31
:101090002370F80180819181820F911DD6018D937B
:1010A0009C9370E080E090E00E94C602F5013896C3
:1010B0004FE152E0E40EF51ED50118962D913D91B9
:1010C0004D915C911B97D7012D933D934D935C936C
:1010D000139741EE5DEFE40EF51E87010D5D1D4F88
:1010E0002481358146815781D8012D933D934D93BD
:1010F0005C9313974EEC51E0E40EF51E86858F5FEE
:10110000D7018C934BE050E0E40EF51E81E090E0B7
:10111000D7018D939C9340E450E0E40EF51ED50179
:1011200011968C91D7018C936089EFE0F0E0EE0E80
:10113000FF1ED7016C93EBE9FFEFEE0EFF1ED70108
:101140008D919C910E94650DFE01399618869E0135
:101150002F5F3F4F80E2D9011D928A95E9F74DE05C
:1011600050E0E40EF51ED7018C918A8385E08983D7
:10117000D50112968C9112978C8311968C911197B0
:101180008D8315968C918E834BE450E0E40EF51E12
:10119000D7014D915D916D917C9149875A876B87FD
:1011A0007C87D8014D915D916D917C9144835583ED
:1011B0006683778346EB5FEFE40EF51ED7018D91D2
:1011C0009C91958784874EEF5FEFE40EF51ED70163
:1011D0008C91808B4FE050E0E40EF51ED7018C918E
:1011E00042E25EEFE40EF51E8787C701B9010E9457
:1011F000760681E001C080E0A0960FB6F894DEBFCD
:101200000FBECDBFCF91DF911F910F91FF90EF9057
:10121000DF90CF90BF90AF900895EF92FF921F9311
:10122000DF93CF93CDB7DEB7A0970FB6F894DEBFAC
:101230000FBECDBF7C01162FFC01ED53FE4FDC012C
:10124000A75DBD4F808191816C910E94650DAE01BB
:10125000475F5F4F1886FE01319680E2DF011D92E5
:101260008A95E9F7F701E452FE4F20812F5F208332
:101270002150E0EDF1E0EE0EFF1ED7013C91EBE4D2
:10128000F0E0EE0EFF1EF70180819181A281B38113
:1012900089879A87AB87BC8768E070E0E60EF71E07
:1012A000F70180819181A281B381FA0184839583C2
:1012B000A683B7836EEA7FEFE60EF71ED7018D9106
:1012C0009C9195878487EEEFFFEFEE0EFF1ED7010E
:1012D0008C91FA01808B8E917D01E2E3FEEFEE0EA0
:1012E000FF1EDA011E968C931E97112321F01D9686
:1012F0001C921E921C973A832E8384E08983C70137
:10130000BE016F5F7F4F0E947606A0960FB6F894DD
:10131000DEBF0FBECDBFCF91DF911F91FF90EF9049
:101320000895EF92FF920F931F938C017B01FC01B4
:10133000ED53FE4F085D1D4F80819181D8016C9166
:101340000E94650D89E0F701808308551040D8019F
:101350008C918183075B1F4FF801808109511240F6
:10136000D70113968C931397F801E552FE4F8081B5
:1013700015968C9315978F5F8083065E1D4FF8013D
:1013800080810A51124014968C93C801B7010E94C3
:1013900076061F910F91FF90EF9008950F931F9382
:1013A0008C010B531E4FF8011082045F1F4F81E028
:1013B00090E0F8019183808312928F01075B1F4FA9
:1013C000F80110820254104083E090E0F80191830C
:1013D000808301511040F801119211928F01118206
:1013E0001082095F1F4FF80110820F5C1140C80185
:1013F0000E94CE03055E1D4FF8014081518162813C
:1014000073810B511240C8012FEF0E944403C801A1
:1014100081529E4F0E940B04C80161E00E940D0999
:1014200064E170E080E090E00E944002C8010E9408
:1014300018061F910F910895EF92FF920F931F933B
:10144000DF93CF93CDB7DEB764970FB6F894DEBFC6
:101450000FBECDBF8C017B01AB01485F5F4FDE014A
:101460001196FA0184E101900D928150E1F7D701C4
:1014700012962C9112978C9185FF19C0065E1D4F14
:10148000F801808114968C930A541040D8018C91F5
:10149000F70181830D501040D801ED91FC91035C60
:1014A0001140EE5AFF4F8081FA01878720E0498181
:1014B0005A816B817C81C8010E944403882351F4C6
:1014C000C8010E94CE09F801ED53FE4F8081918141
:1014D0000E94810DC801B7010E946C0764960FB687
:1014E000F894DEBF0FBECDBFCF91DF911F910F915A
:1014F000FF90EF9008950F931F93CF93DF93EC012C
:101500008C0101521E4FC952DE4F68817981C75D3F
:10151000D140F6E0660F771FFA95E1F7645C7F4FE4
:10152000C8010E940F04882351F0CE010E94CE0909
:10153000FE01ED53FE4F808191810E94810DCB53BE
:10154000DE4F8881C55CD140882309F1C55DDD4F40
:101550008881CB52D2408823B1F0C8010E94050493
:101560002AE030E040E050E00E94CE17611571059E
:101570008105910521F4CE0160E00E940D09CE01A4
:101580000E94F20523C0CE010E9470051FC0C80151
:101590000E9405042AE030E040E050E00E94CE17AF
:1015A000611571058105910571F4FE01E752FE4F49
:1015B00080819181892B19F01182108204C0CE01A3
:1015C00061E00E940D09CE010E941806DF91CF91C3
:1015D0001F910F910895EF92FF920F931F93CF9356
:1015E000DF93EC017B018B01085F1F4FCB53DE4F74
:1015F0008881C55CD140882379F1C15EDD4F2881A7
:1016000039814A815B81CF51D240FB018085918530
:10161000A285B385281739074A075B0709F04FC031
:10162000CF52DE4FF8012485358588819981C15DCF
:10163000D1402817390719F0CE010E94CE090E9427
:10164000E501AB01BC01405F504060407040CE01FD
:1016500081529E4F0E94D203F80184859585892B83
:1016600071F1CE0181529E4F0E940504C653DE4F98
:10167000688379838A839B832796F801848595857F
:1016800099838883C15DD140DE01A252BE4FCD5304
:10169000DE4FE881F981C35CD140EE5AFF4F808173
:1016A0008C93CE01B7010E94D007882329F0CE0188
:1016B0000E94180681E004C0CE010E94700580E0FF
:1016C000DF91CF911F910F91FF90EF900895CF93ED
:1016D000DF93EC01CD53DE4F888199810E94A70DE5
:1016E000882329F0888199810E94660D81E0DF912D
:1016F000CF910895CF92DF92EF92FF920F931F93B5
:101700008C01DB01CA019A01B5EDEB2EB1E0FB2E95
:10171000E00EF11EF70191838083AFEDCA2EA1E0A8
:10172000DA2EC00ED11E0D521E4FF801808191811C
:10173000281B390B2C573C4F40E050E0C60164E0B9
:101740000E946604F7012081318120553B4FF8014A
:1017500080819181281B390B40E050E0C60165E093
:101760000E946604F7012081318120573E4F40E0FE
:1017700050E0C60163E00E9466041F910F91FF9044
:10178000EF90DF90CF900895CF92DF92EF92FF928B
:101790000F931F93CF93DF93EC018B0198E0E92E19
:1017A000F12CE60EF71EC55EDD4FDB0118962D917C
:1017B0003D914D915C911B9788819981AA81BB8154
:1017C000CB51D240281739074A075B0721F0CE01D9
:1017D0000E94DF0694C0FE01E853FE4FCA53DE4F5D
:1017E00088819981C65CD14088539F4F91838083C3
:1017F0008FEDC82E81E0D82ECC0EDD1EC6010E94D2
:101800000B04C65EDD4FF80181818883CA54D04045
:10181000D7011E968C911E978883C05DD140FE0132
:10182000E153FE4F51969C9151979083C352DE4FE6
:101830001F969C9198836B978883CA59DF4F1882B3
:101840001082C356D04011E01883C55CD14069E0D6
:101850000E94791788E2989FA0011124662757FDFE
:101860006095762FCE010E947A0BF70182899389C9
:10187000FE01E55DFD4F108297FD1083813029F454
:10188000C952DE4F84E190E006C0823049F4C9526B
:10189000DE4F84E690E099838883C75DD1400CC019
:1018A000FE01E952FE4F833019F480EB94E002C050
:1018B00083E090E091838083C253DE4F8881CE5CC9
:1018C000D140823041F4CD52DE4F88EC90E09983D4
:1018D0008883C35DD140C6010E940504C053DE4F1A
:1018E0002881620F711D811D911D279629913991C3
:1018F00040E050E00E94CE177983688381E0DF9159
:10190000CF911F910F91FF90EF90DF90CF900895AE
:101910000F931F93CF93DF93EC018B01FB01908119
:10192000892F8F70843021F4CE010E94EB0A2BC0E6
:10193000953021F4CE010E941C0A17C0963021F484
:10194000CE010E94C40B11C0CE010E94AD078823B6
:1019500061F4F8018081883041F0807CA9F0CE01EB
:10196000B8010E94AC0680E00FC0CB53DE4F8881E7
:10197000C55CD140882321F0CE010E94F20503C04E
:10198000CE010E94180681E0DF91CF911F910F9147
:101990000895CF93DF93DC01AD53BE4FED91FC91E1
:1019A0001197A35CB140CBE0D4E0399680E201907E
:1019B00009928150E1F7EBE0F4E09AE28191980F0F
:1019C00084E0EB32F807D1F7992311F080E006C0EC
:1019D000CD01BF01605270400E94880CDF91CF9111
:1019E00008950F931F938C0101521E4FC80162E0AE
:1019F00028EC30E040E050E00E946604C80160E05E
:101A000028EB3BE040E050E00E9466041F910F91FC
:101A10000895EF92FF920F931F938C01CB0123EC5B
:101A2000E22E21E0F22EE00EF11EF70171836083B9
:101A30000E94EB0DF7018081918168E774E00E94BC
:101A4000600DC80140E050E060E070E00E947A0B59
:101A5000C8010E94CE091F910F91FF90EF90089549
:101A60000F931F938C0181529E4F0E942D05F89475
:101A700010930A0400930904085D1D4FF8011082B9
:101A800009551040F8011082065A1F4FF8011082C4
:101A900004551040F801119211928F0183E090E0FB
:101AA0009183808304501040F80111821082035DFD
:101AB0001140C8010E94F10C1F910F9108950895E3
:101AC00070932E0460932D0408950895089589E37A
:101AD00091E090932C0480932B048AE080932F0450
:101AE00091E09093B504109232048CE1809333041A
:101AF000909334048FE59DE090932E0480932D0401
:101B000008958BE294E00E947A0F08950F931F933B
:101B10008C018BE294E00E94080EF80116821F915E
:101B20000F9108950F931F938C018BE294E00E9414
:101B3000FD0D89E0F80186831F910F910895FC0146
:101B400081E086838BE294E00E94EF0E0895CF93AC
:101B5000DF93EC018BE294E00E94210E482F882352
:101B600041F18091BB049091BC04CE5ADF4F998320
:101B70008883249780E290E0998388839091B904C8
:101B80009295990F90768091B9048F5F8093B904F4
:101B9000DE01A554B04020E030E0E92FE20FF0E094
:101BA000EB5CFB4F80818D932F5F3F4F20323105DF
:101BB000A1F7842FDF91CF910895FC01848182E009
:101BC000868380E283A7BC968BE294E0BF0140E26B
:101BD0000E94621008950F931F930BE214E0C80156
:101BE00066E541E024E60E942711C80161E00E94F9
:101BF000890F1F910F9108950895FC01A081B18173
:101C00001E962D913C911F9760E0F901099508956A
:101C1000FC01A081B1811E962D913C911F9761E03E
:101C2000F90109950895E091BD04F091BE04A081E9
:101C3000B18118962D913C911997CF01F901099521
:101C400008959091B8048091B90420E0981321E0A0
:101C5000822F0895DC018091B5048330C9F480910E
:101C6000BA048823A9F0ED91FC9111970684F785B9
:101C7000E02DCD0161E0099581E00895ED91FC91A1
:101C800011970280F381E02DCD01099580E0089540
:101C90008091B504833091F780E008951F93CF932E
:101CA000DF93EC01162FE881F9810288F389E02D9A
:101CB00009951F771EBD0DB407FEFDCF8EB51EBC66
:101CC0000DB407FEFDCF1EB5E881F9810488F589C2
:101CD000E02DCE010995812FDF91CF911F910895BD
:101CE0000F931F93CF93DF93EC01162F042FE881FE
:101CF000F9810288F389E02D099510681EBD0DB4A5
:101D000007FEFDCF8EB50EBD0DB407FEFDCF8EB51F
:101D1000E881F9810488F589E02DCE010995DF91EC
:101D2000CF911F910F9108950F931F93CF93DF933E
:101D3000EC018B01E881F9810684F785E02D61E0F3
:101D400009950115110521F1E881F9810288F389CE
:101D5000E02DCE0109958EEB8EBD0DB407FEFDCFB3
:101D60008EB520E030E0F801E20FF31F80818EBDD8
:101D70000DB407FEFDCF8EB52F5F3F4F20313105EB
:101D800091F7E881F9810488F589E02DCE01099564
:101D9000CE016DE30E944E0E482F4E7F80E0012B56
:101DA00009F081E0482BCE016DE30E94700EDF91B7
:101DB000CF911F910F9108950F931F938C0165E2AE
:101DC00040E40E94700ED801ED91FC910684F785E5
:101DD000E02DC80163E009951F910F9108950E94BD
:101DE000DC0E0895CF93DF93EC01603208F06FE1D1
:101DF00068878985882311F066956887CE0161E13F
:101E00000E944E0E482F407E8885482BCE0161E10E
:101E10000E94700EDF91CF9108951F93CF93DF93AF
:101E2000EC01162F8091B504681709F45FC0623089
:101E3000D9F1633038F4662309F442C0613009F007
:101E400055C03AC06330C9F0643009F04FC0CE01CC
:101E500061E00E944E0E482F437E4C60CE0161E04F
:101E60000E94700E89858823A9F1E881F981008894
:101E7000F189E02DCE0161E015C0CE0161E00E9444
:101E80004E0E482F437E4061CE0161E00E94700EED
:101E900089858823F9F0E881F9810088F189E02DAE
:101EA000CE0160E0099516C0CE0161E00E944E0EA1
:101EB000482F437E48600AC0CE0161E044E008C07C
:101EC000CE0161E00E944E0E482F437ECE0161E0BC
:101ED0000E94700E8091B504882331F4CE0167E230
:101EE0000E944E0E8823B4F71093B504DF91CF9172
:101EF0001F9108950F931F938C0161E044E00E94AD
:101F0000700EC80168E240E10E94700E1F910F91AF
:101F10000895FC0167830895CF93DF93EC016987EF
:101F2000662311F44AE101C04FE0CE0163E10E9453
:101F3000700E8985882341F0CE0161E10E944E0E2A
:101F4000482F4F71406602C048854068CE0161E16C
:101F50000E94700EDF91CF9108951F93CF93DF936E
:101F6000EC01162F662311F445E501C04DE5CE01C5
:101F70006AE50E94700E112311F440E701C04CE79E
:101F8000CE016CE50E94700EDF91CF911F910895F4
:101F9000CF93DF93EC01662389F084E595E060E060
:101FA00071E00E943517CE0163E241E00E94700E9D
:101FB000CE0163E20E944E0E81FFFACFCE0164E2B1
:101FC0000E944E0ECE0164E20E944E0E90E0DF9120
:101FD000CF9108951F93CF93DF93EC018091B704C5
:101FE0008F5F8093B7048091B504833009F05AC0A5
:101FF000CE0160E00E94C80F9093BC048093BB04A4
:1020000010E0CE0168E20E944E0E1F5F82FFF9CF02
:102010001D31B8F7CE0168E20E944E0E182FE881FC
:10202000F9810684F785E02DCE0161E0099580E213
:102030008093BA04E881F9810288F389E02DCE010A
:1020400009951EBC0DB407FEFDCF8EB59091B80466
:102050009295990F907620E030E0E92FE20F1EBCB8
:102060000DB407FEFDCF8EB5F0E0EB5CFB4F808337
:102070002F5F3F4F2032310581F78091B8048F5F89
:102080008093B804E881F9810488F589E02DCE01B8
:1020900009951093B604EA81FB8180E20995CE018F
:1020A0000E94DC0EDF91CF911F910895FC01848185
:1020B00061E00E9420140895FC01848160E00E9488
:1020C00020140895BF92CF92DF92EF92FF920F9368
:1020D0001F93CF93DF93EC016B01B42E6091B70493
:1020E00084E595E04AE050E00E94231784E595E0FE
:1020F0006AE171E00E943517CE016DE30E944E0E39
:10210000482F4460CE016DE30E94700E0E94E501ED
:102110007B018C018091B504813079F08091B50408
:10212000833059F00E94E5016E197F09800B910BF5
:10213000685E73408040904068F3E881F9810484D0
:10214000F585E02DCE0160E0A6012B2D099581E0FB
:10215000DF91CF911F910F91FF90EF90DF90CF9083
:10216000BF900895EF92FF920F931F93CF93DF9349
:10217000EC01042FF52E122FE881F9810684F785F2
:10218000E02D61E00995CE0167E20E944E0E87FFC7
:10219000FACFCE0165E240E00E94700E1E3308F0D7
:1021A0001DE3E881F9810288F389E02DCE010995CC
:1021B00080E88EBD0DB407FEFDCF8EB5802F9F2D1C
:1021C0009C01F90190E008C080818EBD0DB407FE2E
:1021D000FDCF8EB59F5F31969117B0F3E881F981FD
:1021E0000488F589E02DCE010995E881F9810684FE
:1021F000F785E02DCE0164E009950E94E5017B01A1
:102200008C0183E00E947414892B59F40E94E5012B
:102210006E197F09800B910B64367105810591055C
:1022200080F3E881F9810684F785E02DCE0161E035
:102230000995E881F9810280F381E02DCE010995AD
:10224000DF91CF911F910F91FF90EF900895BF9272
:10225000CF92DF92EF92FF920F931F93DF93CF9372
:10226000CDB7DEB7E4970FB6F894DEBF0FBECDBF93
:102270006C01B42E522F6F3119F430EC4EE40EC0C5
:102280006B3211F44CE628C1663509F021C149EDE5
:1022900004C0663511F030EC01C030E0FE0131962B
:1022A00084E3DF011D928A95E9F791E0998324E0A8
:1022B0002A8382E08B839C8383E08D839E832F839C
:1022C00080E4888785E0898786E08A878B8786E631
:1022D0008C8797E09D8728E02F8789E0898B81E1B3
:1022E0008B8B8BED8C8B89E18D8B82E48E8B85E2E1
:1022F0008F8B80EC888F86E2898F9A8F88E28B8F14
:1023000080E18C8F89E28D8F84EB8E8F9DE29F8F91
:1023100028A38EE289A380E98AA38FE28BA39CA3E2
:1023200090E39DA381E38FA38AEA88A787E389A727
:1023300088E18AA788E38BA780E28CA78CE38DA72E
:102340008FE88EA78DE38FA782E188AB8FE689ABFC
:102350009AAB8FEF8BAB4E87388B5EA3F6018481EF
:1023600061E00E942014D60114968C9161E00E94D5
:10237000E1130E94110380E00E94FB0281E00E94B1
:10238000F20280E00E9400030E943F137B018C0157
:10239000C6016FE24AEA0E94700EC6016FE20E9417
:1023A0004E0E8A3A09F47CC00E943F136E197F09D1
:1023B000800B910B623371058105910508F070C0A7
:1023C000E7CFC6016FE245E50E94700EC6016FE2DD
:1023D0000E944E0E853509F468C00E943F136E19A5
:1023E0007F09800B910B623371058105910508F01F
:1023F0005CC0E7CFC60141810E94700E1F5FE12FD4
:10240000F0E0EE0FFF1FEE0DFF1D60816F3F91F7B3
:10241000C60160E070E00E94940ED601ED91FC913F
:102420000684F785E02DC60161E009950E943F13FF
:102430007B018C01C60167E20E944E0E87FD3BC006
:102440000E943F136E197F09800B910B6233710557
:102450008105910580F5EECF84E595E062E271E0BB
:102460000E94351781E063E17EE043E050E00E9486
:102470006E12D092BE04C092BD04F601B68281E015
:10248000E4960FB6F894DEBF0FBECDBFCF91DF91BB
:102490001F910F91FF90EF90DF90CF90BF90089524
:1024A0000E943F137B018C018CCF10E07E010894C9
:1024B000E11CF11CA4CF0E943F136E197F09800B11
:1024C000910B623371058105910530F280E0D8CF20
:1024D00044EE6B3209F0DDCE30E4E0CE823000F520
:1024E000E82FF0E0EE0FFF1FE154FB4F7183608394
:1024F000882319F08130A1F408C0809169008C7F95
:10250000842B80936900E89A089580916900440FB4
:10251000551F440F551F837F842B80936900E99AD0
:1025200008951F920F920FB60F9211242F933F938D
:102530004F935F936F937F938F939F93AF93BF93CB
:10254000EF93FF938091BF049091C004892B29F0F1
:10255000E091BF04F091C0040995FF91EF91BF9104
:10256000AF919F918F917F916F915F914F913F912B
:102570002F910F900FBE0F901F9018951F920F92E2
:102580000FB60F9211242F933F934F935F936F9346
:102590007F938F939F93AF93BF93EF93FF9380911C
:1025A000C1049091C204892B29F0E091C104F091FB
:1025B000C2040995FF91EF91BF91AF919F918F91C7
:1025C0007F916F915F914F913F912F910F900FBE2F
:1025D0000F901F9018951F920F920FB60F92112413
:1025E0002F933F934F935F936F937F938F939F931B
:1025F000AF93BF932091C7043091C8044091C904A0
:102600005091CA047091CB04DA01C9010296A11D50
:10261000B11D672F6A5F6D3730F06D57DA01C90160
:102620000396A11DB11D6093CB048093C7049093C2
:10263000C804A093C904B093CA048091C3049091C4
:10264000C404A091C504B091C6040196A11DB11D9A
:102650008093C3049093C404A093C504B093C604AC
:10266000BF91AF919F918F917F916F915F914F91AA
:102670003F912F910F900FBE0F901F9018958FB71D
:10268000F8942091C7043091C8044091C904509136
:10269000CA048FBFB901CA0108959B01AC017FB77D
:1026A000F8948091C3049091C404A091C504B091A2
:1026B000C60466B5A89B05C06F3F19F00196A11D21
:1026C000B11D7FBFBA2FA92F982F8827860F911D84
:1026D000A11DB11D63E0880F991FAA1FBB1F6A953A
:1026E000D1F7BC012DC0FFB7F8948091C30490913D
:1026F000C404A091C504B091C604E6B5A89B05C06A
:10270000EF3F19F00196A11DB11DFFBFBA2FA92FF0
:10271000982F88278E0F911DA11DB11DE3E0880F12
:10272000991FAA1FBB1FEA95D1F7861B970B885EDE
:102730009340C8F2215030404040504068517C4F97
:10274000211531054105510571F60895789484B538
:10275000826084BD84B5816084BD85B5826085BD9D
:1027600085B5816085BDEEE6F0E080818160808383
:10277000E1E8F0E010828081826080838081816066
:102780008083E0E8F0E0808181608083E1EBF0E02D
:10279000808184608083E0EBF0E0808181608083D1
:1027A000EAE7F0E0808184608083808182608083BA
:1027B0008081816080838081806880831092C100E5
:1027C0000895CF93DF93482F50E0CA0186569F4F5C
:1027D000FC0134914A575F4FFA018491882369F1D3
:1027E00090E0880F991FFC01E859FF4FA591B49123
:1027F000FC01EE58FF4FC591D491662351F42FB7D9
:10280000F8948C91932F909589238C9388818923B8
:102810000BC0623061F42FB7F8948C91932F909590
:1028200089238C938881832B88832FBF06C09FB711
:10283000F8948C91832B8C939FBFDF91CF91089557
:10284000482F50E0CA0182559F4FFC012491CA01D4
:1028500086569F4FFC0194914A575F4FFA0134917D
:10286000332309F440C0222351F1233071F0243086
:1028700028F42130A1F0223011F514C02630B1F037
:102880002730C1F02430D9F404C0809180008F77C4
:1028900003C0809180008F7D8093800010C084B53C
:1028A0008F7702C084B58F7D84BD09C08091B00050
:1028B0008F7703C08091B0008F7D8093B000E32FAD
:1028C000F0E0EE0FFF1FEE58FF4FA591B4912FB728
:1028D000F894662321F48C919095892302C08C9101
:1028E000892B8C932FBF0895682F70E0CB01825500
:1028F0009F4FFC012491CB0186569F4FFC014491D0
:102900006A577F4FFB019491992319F420E030E03E
:102910003CC0222351F1233071F0243028F42130BF
:10292000A1F0223011F514C02630B1F02730C1F0EB
:102930002430D9F404C0809180008F7703C0809147
:1029400080008F7D8093800010C084B58F7702C097
:1029500084B58F7D84BD09C08091B0008F7703C09E
:102960008091B0008F7D8093B000892F90E0880F18
:10297000991F84589F4FFC01A591B4918C9120E040
:1029800030E0842311F021E030E0C901089508957A
:102990001F920F920FB60F9211242F933F934F93D4
:1029A0008F939F93EF93FF938091C00082FD1DC092
:1029B0004091C60020910C0530910D052F5F3F4FCF
:1029C0002F73307080910E0590910F0528173907ED
:1029D00071F0E0910C05F0910D05E453FB4F40833D
:1029E00030930D0520930C0502C08091C600FF9125
:1029F000EF919F918F914F913F912F910F900FBE2B
:102A00000F901F901895E0916005F0916105E05CD2
:102A1000FF4F8191919120813181805C9F4F821B7A
:102A2000930B60E470E00E949917892B11F00E94CB
:102A3000C71408951F920F920FB60F9211242F936F
:102A40003F938F939F93EF93FF9320915005309185
:102A5000510580915205909153052817390731F49B
:102A60008091C1008F7D8093C10014C0E091520518
:102A7000F0915305E05FFA4F2081809152059091CB
:102A8000530501968F739070909353058093520570
:102A90002093C600FF91EF919F918F913F912F91CD
:102AA0000F900FBE0F901F901895DC011C96ED91B2
:102AB000FC911D97E05CFF4F8191919120813181C4
:102AC000805C9F4F821B930B60E470E00E9499171B
:102AD0000895DC011C96ED91FC911D97E05CFF4F81
:102AE00020813181E054F040DF01AE5BBF4F8D911A
:102AF0009C9111972817390719F42FEF3FEF07C062
:102B00008D919C91E80FF91F8081282F30E0C90139
:102B10000895DC011C96ED91FC911D97E05CFF4F40
:102B200020813181E054F040DF01AE5BBF4F8D91D9
:102B30009C9111972817390719F42FEF3FEF10C018
:102B40008D919C911197E80FF91F20818D919C9197
:102B5000119701968F73907011969C938E9330E02D
:102B6000C9010895DC0191968C919197882339F0E1
:102B70005496ED91FC915597808186FFF9CF9196FF
:102B80001C920895CF93DF93EC01EE85FF85E05C06
:102B9000FF4F20813181E054F0402F5F3F4F2F7372
:102BA0003070DF01AE5BBF4F8D919C91119728175C
:102BB0003907D1F3E05CFF4F80819181E054F04010
:102BC000E80FF91F6083EE85FF85E05CFF4F3183DE
:102BD0002083EE89FF89208181E090E00F8C02C084
:102BE000880F991F0A94E2F7282B208381E089A39C
:102BF000EC89FD8980818064808381E090E0DF91B1
:102C0000CF910895109257051092560588EE93E0E3
:102C1000A0E0B0E08093580590935905A0935A0521
:102C2000B0935B0583E591E090935505809354053F
:102C30008CEC94E0909361058093600580E195E0D1
:102C4000909363058093620585EC90E09093650511
:102C50008093640584EC90E090936705809366050B
:102C600080EC90E0909369058093680581EC90E09A
:102C700090936B0580936A0582EC90E090936D05CC
:102C800080936C0586EC90E090936F0580936E05C1
:102C900084E08093700583E08093710587E08093E2
:102CA000720585E08093730581E080937405089533
:102CB0000895CF93DF930E94A6130E9458160E9496
:102CC000F700C3E0D5E10E94D9012097E1F30E940B
:102CD0000315F9CFCF92DF92EF92FF920F931F93DC
:102CE000CF93DF937C016B018A01C0E0D0E00FC07D
:102CF000D6016D916D01D701ED91FC910190F081AC
:102D0000E02DC7010995C80FD91F015010400115CA
:102D1000110571F7CE01DF91CF911F910F91FF90B7
:102D2000EF90DF90CF900895CF93DF93EC01611582
:102D3000710519F420E030E00FC0DB010D90002098
:102D4000E9F71197A61BB70BE881F9810280F3819F
:102D5000E02DAD0109959C01C901DF91CF91089546
:102D60004F925F927F928F929F92AF92BF92CF923B
:102D7000DF92EF92FF920F931F93DF93CF93CDB724
:102D8000DEB7A1970FB6F894DEBF0FBECDBF2C0102
:102D9000742ECB01223008F42AE019A231E2C32EAE
:102DA000D12CCC0EDD1E822E9924AA24BB24672DA3
:102DB000752FA50194010E94AC1779018A01C80101
:102DC000B701A50194010E945A17472D461B08948C
:102DD000C108D1084A3014F4405D01C0495CF601D5
:102DE0004083E114F1040105110521F07E2C5F2DD3
:102DF000C801DDCFC201B6010E949416A1960FB69C
:102E0000F894DEBF0FBECDBFCF91DF911F910F9120
:102E1000FF90EF90DF90CF90BF90AF909F908F90FA
:102E20007F905F904F900895DC012115310541F4AA
:102E3000ED91FC910190F081E02D642F09950895AA
:102E40000E94B0160895EF92FF920F931F939A017C
:102E5000E62EFF2400E010E0B801A7010E9414173D
:102E60001F910F91FF90EF9008950E94941608957E
:102E7000EF92FF920F931F937B018C0161157105F7
:102E80008105910529F420E030E040E050E00BC0DE
:102E90000E94E100A80197010E94CE17AC01CB016E
:102EA000DA019C01AD01B901CA011F910F91FF9098
:102EB000EF900895629FD001739FF001829FE00D13
:102EC000F11D649FE00DF11D929FF00D839FF00DA9
:102ED000749FF00D659FF00D9927729FB00DE11D55
:102EE000F91F639FB00DE11DF91FBD01CF01112432
:102EF0000895991B79E004C0991F961708F0961B56
:102F0000881F7A95C9F780950895AA1BBB1B51E1CC
:102F100007C0AA1FBB1FA617B70710F0A61BB70B49
:102F2000881F991F5A95A9F780959095BC01CD01EE
:102F3000089597FB092E07260AD077FD04D0E5DF18
:102F400006D000201AF4709561957F4F0895F6F72A
:102F5000909581959F4F0895A1E21A2EAA1BBB1B45
:102F6000FD010DC0AA1FBB1FEE1FFF1FA217B30755
:102F7000E407F50720F0A21BB30BE40BF50B661F6B
:102F8000771F881F991F1A9469F76095709580952F
:102F900090959B01AC01BD01CF01089597FB092ECF
:102FA00005260ED057FD04D0D7DF0AD0001C38F418
:102FB00050954095309521953F4F4F4F5F4F089565
:102FC000F6F790958095709561957F4F8F4F9F4F45
:102FD0000895EE0FFF1F0590F491E02D09942F92B4
:102FE0003F924F925F926F927F928F929F92AF9299
:102FF000BF92CF92DF92EF92FF920F931F93CF93E6
:10300000DF93CDB7DEB7CA1BDB0B0FB6F894DEBF7C
:103010000FBECDBF09942A88398848885F846E84A2
:103020007D848C849B84AA84B984C884DF80EE80EC
:10303000FD800C811B81AA81B981CE0FD11D0FB6F5
:10304000F894DEBF0FBECDBFED010895F894FFCF19
:103050002A0041646472657373202D20484558200E
:103060002D2042494E00202D200049524E4E404016
:10307000400052464D20696E697469616C697A65D9
:103080000001000000000000002A0EEF0E8C0FF27D
:103090000EEA0FFC0DB2100D0FAD0F5C10561000B4
:1030A000000000C2156A16551589156915B215007C
:00000001FF
