:100000000C9464000C9435110C9462110C948C00C7
:100010000C948C000C948C000C948C000C941704A1
:100020000C948C000C948C000C948C000C948C0020
:100030000C948C000C948C000C948C000C948C0010
:100040000C948F110C948C000C946C130C94BE13B4
:100050000C948C000C948C000C948C000C948C00F0
:100060000C948C000C948C000000000024002700ED
:100070002A0000000000250028002B0000000000DE
:1000800023002600290004040404040404040202DA
:100090000202020203030303030301020408102007
:1000A0004080010204081020010204081020000012
:1000B0000007000201000003040600000000000029
:1000C0000000EF000B0CA61411241FBECFEFD8E0E8
:1000D000DEBFCDBF11E0A0E0B1E0E8E9FDE202C083
:1000E00005900D92A036B107D9F715E0A0E6B1E072
:1000F00001C01D92A435B107E1F710E0C8ECD0E0D3
:1001000004C02297FE010E948F16C23CD107C9F796
:100110000E94FD140C94CA160C940000A0E0B0E0FC
:10012000E4E9F0E00C949B16EC01A880B980CA8049
:10013000DB80A114B104C104D10441F484E2A82EEF
:1001400089EDB82E8BE5C82E87E0D82EC601B50103
:100150002DE133EF41E050E00E94721627EA31E4CE
:1001600040E050E00E94FE157B018C01C601B50104
:100170002DE133EF41E050E00E947216CA01B9014F
:100180002CEE34EF4FEF5FEF0E94FE156E0D7F1DDA
:10019000801F911F97FF04C06150704080409048BD
:1001A000688379838A839B839B01AC015F77B90164
:1001B000CA01CDB7DEB7EAE00C94B7160E948E00F4
:1001C000089581E391E00E948E00089560933101CB
:1001D000709332018093330190933401089583E644
:1001E0008093670184EB91E00E94D50B089586E02F
:1001F00061E00E94851285E061E00E94851284E042
:1002000062E00E9485128AE061E00E9485128AE025
:1002100061E00E94C41286E061E00E94C41286E0A0
:1002200060E00E94C41288E10FB6F89480936000E9
:10023000109260000FBE86E061E00E94C41286E06A
:1002400060E00E94C4120E94220286E061E00E94E7
:10025000C4128DE061E00E9485128DE060E00E9492
:10026000C4120E94130286E060E00E94C4127894D7
:1002700081E090E0A0E2B0E08093CF039093D003C0
:10028000A093D103B093D20381E08093DE0384EB8B
:1002900091E060E671E00E94AE0B87E08093DB03A3
:1002A0000E94E3110E947F028DE061E00E94C4126F
:1002B00068EC70E080E090E00E94F1118DE060E079
:1002C0000E94C41268EC70E080E090E00E94F1119E
:1002D000089562E370E080E090E00E94F1110895DB
:1002E00004C084EB91E00E946E0B84EB91E00E94CD
:1002F0000C0A8823B1F70895853079F1863038F4F7
:100300008330D9F08430F0F4823089F507C0853627
:1003100049F1863639F1843651F527C084EB91E0F6
:100320000E946A0585E061E00E94C41262E370E009
:1003300080E090E00E94F111089585E060E00E9465
:10034000C412089584EB91E00E94C0050E946901E7
:1003500084EB91E00E944405089584EB91E00E94B3
:10036000030508950E94700108950E947001089588
:100370001F9383E993E00E945C04182F0E947C0184
:100380001123B9F71F9108952091E0033091E10303
:100390004091E2035091E3032F5F3F4F4F4F5F4F78
:1003A0002093E0033093E1034093E2035093E3038F
:1003B0002150304040405040B901CA01089583B7F0
:1003C000817F83BF08958091E0039091E103A09124
:1003D000E203B091E3030196A11DB11D8093E003F8
:1003E0009093E103A093E203B093E3038091E003D1
:1003F0009091E103A091E203B091E3030196A11D66
:10040000B11D8093E0039093E103A093E203B093C6
:10041000E30383B7816083BF7894889583B78E7F29
:1004200083BF7894089510927A0080E685BF80E4B7
:1004300085BFE4E6F0E08081816080838081806810
:1004400080830895A1EBB0E01C9217BA20E730E05A
:10045000F90180818E7F8083E0EBF0E080818C7FEA
:1004600080838081826080838C91877F8C93E6EB90
:10047000F0E080818F7D8083F90180818D7F808392
:100480008C9185608C938C918D7F8C938C918E7FD9
:100490008C938CE78093B300808182608083089581
:1004A000AF92BF92CF92DF92EF92FF920F931F9382
:1004B0005B016C010E94E3117B018C0183B7817F9A
:1004C00083BF83B7816083BF889583B78E7F83BFE7
:1004D0000E94E3116E197F09800B910BA616B706D7
:1004E000C806D90670F71F910F91FF90EF90DF902B
:1004F000CF90BF90AF9008950E94500208950E943F
:10050000E3110895882319F48CB5806202C08CB57C
:100510008F7D8CBD08959CB5937F982B9CBD0895CD
:100520002CB5382F33702C7F322B3CBD2DB590E08D
:10053000959587959595879581702E7F822B8DBD9A
:1005400008958AE061E00E94C4128AE061E00E949E
:1005500085128CB580618CBD8CB580648CBD8DE0BE
:1005600061E00E9485128BE061E00E94851208958F
:10057000DC014D915C91119721E00FC0FD01E80F66
:10058000F91FEE5BFF4F8081E254F040861721F4A3
:10059000EE57FE4F808108952F5F822F90E08417E1
:1005A000950764F380E008950F931F93CF93DF9333
:1005B0008C01FC01C081D18131E012C0EE0FFF1F20
:1005C000EE0FFF1FE00FF11FEE57FF4F808191816B
:1005D000A281B38184179507A607B70739F03F5F5B
:1005E000E32FF0E0EC17FD074CF302C0332301F5D5
:1005F000C034D1053CF080E290E0F8019183808323
:1006000080E017C0CC0FDD1FCC0FDD1FC00FD11F46
:10061000CE57DF4F488359836A837B83F8018081FB
:100620009181E80FF91F22830196F801918380835D
:1006300081E0DF91CF911F910F910895CF92DF92CA
:10064000EF92FF920F93CF93DF93EC016A017B014E
:10065000522F6881798141E013C0F901EE0FFF1F2D
:10066000EE0FFF1FEC0FFD1FEE57FF4F80819181B2
:10067000A281B3818C159D05AE05BF0539F04F5F92
:10068000242F30E02617370744F30FC0442369F0C6
:10069000FE01E20FF31FEE5BFF4F5083E05CFE4F65
:1006A0000083E258F140828101C08FEFDF91CF914A
:1006B0000F91FF90EF90DF90CF900895FC01118291
:1006C00010820895FC019093E5038093E40317AA38
:1006D00016AA11AE10AE11861086148215821682EB
:1006E00017820895CF93DF93EC018A859B85AC85B3
:1006F000BD854A875B876C877D87481B590B6A0BD2
:100700007B0BCB01BA0128EE33E040E050E00E94C1
:1007100050169B01AC01243F81E0380780E0480778
:1007200080E0580738F48EA99FA9820F931F9FABD2
:100730008EAB08C088AD99AD88519C4F821B930B3E
:1007400099AF88AFDF91CF910895FC0164817581E5
:10075000868197810895FC01118610860895EF9295
:10076000FF920F931F93CF93DF93FC01E288F388EE
:100770000489158986899789A08DB18D0A97A10969
:10078000B109E816F9060A071B0728F021E0E22E56
:10079000F12C012D112D828B938BA48BB58B118A9B
:1007A000108AEF0161E070E02A8D3B8D4C8D5D8DEC
:1007B00082899389A489B589281739074A075B0775
:1007C00058F4E216F3060407150730F4228B338B36
:1007D000448B558B718B608B24966F5F7F4F683095
:1007E000710511F7DF91CF911F910F91FF90EF905D
:1007F0000895E62FF0E0EE0FFF1FEE0FFF1FE80F4A
:10080000F91F268B378B408F518F0E94AF030895BD
:10081000FC0166870895E091E403F091E503878584
:100820008F5F8787108211821282138208951F9230
:100830000F920FB60F9211242F933F934F935F9314
:100840006F937F938F939F93AF93BF93EF93FF9398
:100850008091E60380958093E6030E94C40186E0C0
:100860006091E6030E94C412FF91EF91BF91AF9196
:100870009F918F917F916F915F914F913F912F91B8
:100880000F900FBE0F901F9018950F931F938C0120
:100890000E947F02F8012285338544855585621BBD
:1008A000730B840B950B26893789408D518D0E94DF
:1008B00050161F910F910895EF92FF920F931F937F
:1008C000CF93DF93EC010E94DF01789413C08881FD
:1008D0009981AA81BB810196A11DB11D888399834D
:1008E000AA83BB830E94E3018F85882319F01F86AA
:1008F0001E8540C0EA88FB880C891D89CE010E94B4
:1009000045046E157F058007910708F378941889D0
:10091000112369F58C819D81AE81BF810196A11D56
:10092000B11D8C839D83AE83BF836EE170E080E058
:1009300090E00E947C022E893F89488D598D60E8A5
:100940007EEE86E390E00E94501640E050E06C811D
:100950007D818E819F810E947216611571058105CE
:10096000910509F419EC188219821A821B82CE01B2
:100970000E94AF03812FDF91CF911F910F91FF90C4
:10098000EF900895CF92DF92EF92FF920F931F9313
:10099000CF93DF93EC01CB53DE4F8881C55CD14010
:1009A000882341F1C653DE4FE880F9800A811B811C
:1009B000CA5CD14086E090E0A0E0B0E0E80EF91E0D
:1009C0000A1F1B1F8FEDC82E81E0D82ECC0EDD1E16
:1009D000C6010E94A503E616F7060807190754F09A
:1009E000CD53DE4F888199810E94360CC60164E6A2
:1009F0000E940804DF91CF911F910F91FF90EF901B
:100A0000DF90CF900895CF92DF92EF92FF920F93F5
:100A10001F93CF93DF93EC01CB53DE4F8881C55CEE
:100A2000D140882341F1C653DE4FE880F9800A8126
:100A30001B81CA5CD14086E090E0A0E0B0E0E80E07
:100A4000F91E0A1F1B1F9FEDC92E91E0D92ECC0E57
:100A5000DD1EC6010E94A503E616F7060807190762
:100A600054F0CD53DE4F888199810E94360CC60127
:100A700064E60E940804DF91CF911F910F91FF90CF
:100A8000EF90DF90CF9008950F931F93CF93DF9354
:100A9000EC01C55DDD4F8881CB52D2408823A9F09F
:100AA0008E010D531E4FC153DE4FF801808191819D
:100AB00068810E94090CCE01409666E60E940804F7
:100AC000F801808191810E94430CDF91CF911F91A9
:100AD0000F910895EF92FF920F931F93CF93DF939F
:100AE000EC01CB53DE4F8881C55CD140882359F19E
:100AF0002FEDE22E21E0F22EEC0EFD1EC7010E942A
:100B0000A5038E0106531E4FF801208131814281D9
:100B10005381621B730B840B950B6130710581054A
:100B2000910539F1C7010E94A503F80120813181A7
:100B300042815381621B730B840B950B62307105EC
:100B400081059105B1F0CE0181529E4F65E60E946C
:100B500008048E010D531E4FC75DDD4FF8018081E3
:100B6000918168810E94090CF801808191810E9425
:100B7000430CDF91CF911F910F91FF90EF9008955B
:100B8000FC01ED53FE4F808191810E942A0C089553
:100B9000CF93DF93FC01EB01E65DFD4F8081EA52CC
:100BA000F240882311F080E026C0E053FE4F8081A0
:100BB000E05DF1408A831E82DB019AE221E030E0B1
:100BC0008D91980F2F5F3F4F21323105C9F79195D5
:100BD0009E83ED53FE4FA081B181E35CF1409C9672
:100BE00080E209900D928150E1F7ED53FE4F808134
:100BF00091810E94810CDF91CF910895DF93CF9373
:100C0000CDB7DEB7A0970FB6F894DEBF0FBECDBF4D
:100C1000FC01AB019E012F5F3F4F80E2DB010D9095
:100C2000BD01D9010D929D018150C1F788E08983F2
:100C3000DA0111968C918D83E053FE4F8081E05D47
:100C4000F1408A83CF01BE016F5F7F4F0E94C805CC
:100C5000A0960FB6F894DEBF0FBECDBFCF91DF9147
:100C600008956F927F928F929F92AF92BF92CF9290
:100C7000DF92EF92FF920F931F93DF93CF93CDB745
:100C8000DEB764970FB6F894DEBF0FBECDBF7C0110
:100C90005B01DE011196FB01389684E101900D9213
:100CA0008150E1F77E2C6F2C49815A816B817C81C8
:100CB000C7012F850A890E941E03682F8F3F11F4F8
:100CC00080E047C02FEC31E0E20EF31EF701808197
:100CD00021E33EEFE20EF31E898BDE011196F50152
:100CE0009E012B5E3F4F8D9180873196A217B307EF
:100CF000D1F743ECC42E41E0D42ECE0CDF1C39E2F8
:100D0000832E32E0932E8E0C9F1C662351F4F60145
:100D100080819181F40160810E94090CF5011382A8
:100D200014C0F5016383F60100811181872D962D92
:100D30000E94B802682FC8010E94090CF601808148
:100D40009181F40160810E94090CC701B5010E94E4
:100D5000C80564960FB6F894DEBF0FBECDBFCF9125
:100D6000DF911F910F91FF90EF90DF90CF90BF9098
:100D7000AF909F908F907F906F900895EF92FF9229
:100D80000F931F93DF93CF93CDB7DEB7A0970FB626
:100D9000F894DEBF0FBECDBF8C017B01DE01119642
:100DA000FB0180E201900D928150E1F7F801ED53D3
:100DB000FE4F085D1D4F80819181F80160810E9486
:100DC000090CF7018081806289830F501040F8017F
:100DD0008081095112408C83C801BE016F5F7F4F33
:100DE0000E94C805A0960FB6F894DEBF0FBECDBF17
:100DF000CF91DF911F910F91FF90EF900895FC012B
:100E0000DB01E053FE4F9081E05DF14014968C9140
:100E10001497891799F0992389F0EB53FE4F80813D
:100E2000E55CF140882361F013968C911397891744
:100E300039F4CF010E94BE0681E0089580E0089554
:100E400081E00895AF92BF92CF92DF92EF92FF922E
:100E50000F931F93DF93CF93CDB7DEB7A0970FB655
:100E6000F894DEBF0FBECDBF7C015B018C010A533D
:100E70001E4FD8012D913C9111972F5F3F4F2D931D
:100E80003C93E5ECF1E0EE0EFF1ED7018C91EBE315
:100E9000FEEFEE0EFF1E8823C9F147ED51E0E40E90
:100EA000F51ED7016D917C91E9E2FEEFEE0EFF1E7B
:100EB000E4E0660F771FEA95E1F7C9010E94291661
:100EC000892B79F048EC51E0E40EF51ED7018D91A5
:100ED0009C91E8E3FEEFEE0EFF1E281739070CF495
:100EE000DCC048EC51E0E40EF51E2D5F3F4FD7010A
:100EF0002D933C93E8E3FEEFEE0EFF1E64E670E0F8
:100F000080E090E00E94DC15645C1DC058ECC52EAA
:100F100051E0D52ECE0CDF1CD6018D919C91281767
:100F200039070CF4BAC06CE370E080E090E00E94F6
:100F3000DC15262F2370F80180819181820F911D8D
:100F4000D6018D939C9370E080E090E00E94500267
:100F5000F50138964FE152E0E40EF51ED5011896E2
:100F60002D913D914D915C911B97D7012D933D9310
:100F70004D935C93139741EE5DEFE40EF51E8701F0
:100F80000D5D1D4F2481358146815781D8012D93F8
:100F90003D934D935C9313974EEC51E0E40EF51E98
:100FA00086858F5FD7018C934BE050E0E40EF51EF1
:100FB00081E090E0D7018D939C9340E450E0E40EF3
:100FC000F51ED50111968C91D7018C936089EFE0C5
:100FD000F0E0EE0EFF1ED7016C93EBE9FFEFEE0E93
:100FE000FF1ED7018D919C910E94090CFE0139963C
:100FF00018869E012F5F3F4F80E2D9011D928A958E
:10100000E9F74DE050E0E40EF51ED7018C918A839C
:1010100085E08983D50112968C9112978C83119665
:101020008C9111978D8315968C918E834BE450E0B3
:10103000E40EF51ED7014D915D916D917C9149872C
:101040005A876B877C87D8014D915D916D917C911A
:10105000448355836683778346EB5FEFE40EF51E8A
:10106000D7018D919C91958784874EEF5FEFE40EB9
:10107000F51ED7018C91808B4FE050E0E40EF51EF9
:10108000D7018C9142E25EEFE40EF51E8787C7011F
:10109000B9010E94C80581E001C080E0A0960FB6AA
:1010A000F894DEBF0FBECDBFCF91DF911F910F919E
:1010B000FF90EF90DF90CF90BF90AF900895EF92A8
:1010C000FF921F93DF93CF93CDB7DEB7A0970FB6F4
:1010D000F894DEBF0FBECDBF7C01162FFC01ED538F
:1010E000FE4FDC01A75DBD4F808191816C910E9414
:1010F000090CAE01475F5F4F1886FE01319680E212
:10110000DF011D928A95E9F7F701E452FE4F208135
:101110002F5F20832150E0EDF1E0EE0EFF1ED7019E
:101120003C91EBE4F0E0EE0EFF1EF701808191812F
:10113000A281B38189879A87AB87BC8768E070E01A
:10114000E60EF71EF70180819181A281B381FA0139
:1011500084839583A683B7836EEA7FEFE60EF71E3E
:10116000D7018D919C9195878487EEEFFFEFEE0E6E
:10117000FF1ED7018C91FA01808B8E917D01E2E3F5
:10118000FEEFEE0EFF1EDA011E968C931E971123C2
:1011900021F01D961C921E921C973A832E8384E0A8
:1011A0008983C701BE016F5F7F4F0E94C805A0966B
:1011B0000FB6F894DEBF0FBECDBFCF91DF911F9168
:1011C000FF90EF9008950F931F938C010B531E4FC8
:1011D000F8011082045F1F4F81E090E0F8019183D5
:1011E000808312928F01075B1F4FF8011082025417
:1011F000104083E090E0F80191838083015110401A
:10120000F801119211928F0111821082095F1F4F14
:10121000F80110820F5C1140C8010E945E03055E58
:101220001D4FF80140815181628173810B51124041
:10123000C8012FEF0E94D402C80181529E4F0E9424
:10124000AB03C80161E00E945F0864E170E080E0E8
:1012500090E00E947C02C8010E946A051F910F91D4
:101260000895EF92FF920F931F93DF93CF93CDB723
:10127000DEB764970FB6F894DEBF0FBECDBF8C010A
:101280007B01AB01485F5F4FDE011196FA0184E1FB
:1012900001900D928150E1F7D70112962C9112978F
:1012A0008C9185FF19C0065E1D4FF8018081149650
:1012B0008C930A541040D8018C91F70181830D5012
:1012C0001040D801ED91FC91035C1140EE5AFF4FA4
:1012D0008081FA01878720E049815A816B817C8176
:1012E000C8010E94D402882351F4C8010E94E30877
:1012F000F801ED53FE4F808191810E94250CC801B9
:10130000B7010E94BE0664960FB6F894DEBF0FBE0A
:10131000CDBFCF91DF911F910F91FF90EF90089576
:10132000EF92FF920F931F93CF93DF93EC017B011A
:101330008B01085F1F4FCB53DE4F8881C55CD140C6
:10134000882379F1C15EDD4F288139814A815B8133
:10135000CF51D240FB0180859185A285B3852817A6
:1013600039074A075B0709F04FC0CF52DE4FF8013B
:101370002485358588819981C15DD1402817390739
:1013800019F0CE010E94E3080E947F02AB01BC016C
:10139000405F504060407040CE0181529E4F0E949D
:1013A0007203F80184859585892B71F1CE018152F4
:1013B0009E4F0E94A503C653DE4F688379838A83BC
:1013C0009B832796F8018485958599838883C15DE1
:1013D000D140DE01A252BE4FCD53DE4FE881F981EC
:1013E000C35CD140EE5AFF4F80818C93CE01B70190
:1013F0000E942207882329F0CE010E946A0581E01D
:1014000004C0CE010E94C20480E0DF91CF911F9101
:101410000F91FF90EF900895CF93DF93EC01CD53A0
:10142000DE4F888199810E944B0C882329F08881A6
:1014300099810E940A0C81E0DF91CF910895CF92AB
:10144000DF92EF92FF920F931F938C01DB01CA0191
:101450009A01B5EDEB2EB1E0FB2EE00EF11EF70187
:1014600091838083AFEDCA2EA1E0DA2EC00ED11E8B
:101470000D521E4FF80180819181281B390B2C578A
:101480003C4F40E050E0C60164E00E94F903F701E0
:101490002081318120553B4FF80180819181281BAB
:1014A000390B40E050E0C60165E00E94F903F70106
:1014B0002081318120573E4F40E050E0C60163E07B
:1014C0000E94F9031F910F91FF90EF90DF90CF9052
:1014D0000895CF92DF92EF92FF920F931F93CF93D5
:1014E000DF93EC018B0198E0E92EF12CE60EF71E5C
:1014F000C55EDD4FDB0118962D913D914D915C91BC
:101500001B9788819981AA81BB81CB51D240281732
:1015100039074A075B0721F0CE010E94310694C0CB
:10152000FE01E853FE4FCA53DE4F88819981C65CA5
:10153000D14088539F4F918380838FEDC82E81E0E7
:10154000D82ECC0EDD1EC6010E94AB03C65EDD4F59
:10155000F80181818883CA54D040D7011E968C91AE
:101560001E978883C05DD140FE01E153FE4F519626
:101570009C9151979083C352DE4F1F969C91988304
:101580006B978883CA59DF4F18821082C356D040A8
:1015900011E01883C55CD14069E00E941D1688E205
:1015A000989FA0011124662757FD6095762FCE01E4
:1015B0000E941F0AF70182899389FE01E55DFD4FB4
:1015C000108297FD1083813029F4C952DE4F84E1E7
:1015D00090E006C0823049F4C952DE4F84E690E0C4
:1015E00099838883C75DD1400CC0FE01E952FE4F4C
:1015F000833019F480EB94E002C083E090E09183A3
:101600008083C253DE4F8881CE5CD140823041F46A
:10161000CD52DE4F88EC90E099838883C35DD14042
:10162000C6010E94A503C053DE4F2881620F711DC1
:10163000811D911D27962991399140E050E00E942B
:1016400072167983688381E0DF91CF911F910F91AA
:10165000FF90EF90DF90CF9008950F931F93CF935B
:10166000DF93EC018B01FB019081892F8F70843017
:1016700021F4CE010E9490092BC0953021F4CE01B7
:101680000E94310917C0963021F4CE010E94690AE8
:1016900011C0CE010E94FF06882361F4F801808109
:1016A000883041F0807CA9F0CE01B8010E94FE058F
:1016B00080E00FC0CB53DE4F8881C55CD1408823CA
:1016C00021F0CE010E94440503C0CE010E946A05AC
:1016D00081E0DF91CF911F910F910895CF93DF9318
:1016E000DC01AD53BE4FED91FC911197A35CB1406D
:1016F000C9EED3E0399680E2019009928150E1F77A
:10170000E9EEF3E09AE28191980F84E0E930F8077E
:10171000D1F7992311F080E006C0CD01BF016052DE
:1017200070400E942D0BDF91CF9108950F931F936E
:101730008C0101521E4FC80162E028EC30E040E00D
:1017400050E00E94F903C80160E028EB3BE040E074
:1017500050E00E94F9031F910F910895EF92FF92BC
:101760000F931F938C01CB0123ECE22E21E0F22E8C
:10177000E00EF11EF701718360830E948F0CF70168
:10178000808191816BE074E00E94040CC80140E00C
:1017900050E060E070E00E941F0AC8010E94E30868
:1017A0001F910F91FF90EF9008950F931F938C015D
:1017B00081529E4F0E9462031093E8030093E70357
:1017C000085D1D4FF801108209551040F801108284
:1017D000065A1F4FF801108204551040F80111926B
:1017E00011928F0183E090E0918380830450104038
:1017F000F80111821082035D1140C8010E94960B0E
:101800001F910F910895089570930C0460930B0439
:1018100008950895089589E391E090930A048093D0
:1018200009048AE080930D0491E090939304109250
:1018300010048CE1809311049093120483E09CE0E7
:1018400090930C0480930B04089589E094E00E9427
:101850001E0E08950F931F938C0189E094E00E945F
:10186000AC0CF80116821F910F9108950F931F93EE
:101870008C0189E094E00E94A10C89E0F801868344
:101880001F910F910895FC0181E0868389E094E027
:101890000E94930D0895CF93DF93EC0189E094E0CB
:1018A0000E94C50C482F882341F1809199049091A2
:1018B0009A04CE5ADF4F99838883249780E290E080
:1018C00099838883909197049295990F907680914F
:1018D00097048F5F80939704DE01A554B04020E009
:1018E00030E0E92FE20FF0E0ED5EFB4F80818D9359
:1018F0002F5F3F4F20323105A1F7842FDF91CF9129
:101900000895FC01848182E0868380E283A7BC96EF
:1019100089E094E0BF0140E20E94060F08950F9312
:101920001F9309E014E0C80166E541E024E60E9447
:10193000CB0FC80161E00E942D0E1F910F910895F9
:101940000895FC01A081B1811E962D913C911F97B5
:1019500060E0F90109950895FC01A081B1811E960E
:101960002D913C911F9761E0F90109950895E0914F
:101970009B04F0919C04A081B18118962D913C911B
:101980001997CF01F90109950895909196048091D6
:10199000970420E0981321E0822F0895DC018091C4
:1019A00093048330C9F4809198048823A9F0ED91C1
:1019B000FC9111970684F785E02DCD0161E0099532
:1019C00081E00895ED91FC9111970280F381E02D63
:1019D000CD01099580E0089580919304833091F7BB
:1019E00080E008951F93CF93DF93EC01162FE881D9
:1019F000F9810288F389E02D09951F771EBD0DB48A
:101A000007FEFDCF8EB51EBC0DB407FEFDCF1EB583
:101A1000E881F9810488F589E02DCE010995812FAF
:101A2000DF91CF911F9108950F931F93CF93DF9371
:101A3000EC01162F042FE881F9810288F389E02D4B
:101A4000099510681EBD0DB407FEFDCF8EB50EBD05
:101A50000DB407FEFDCF8EB5E881F9810488F589C4
:101A6000E02DCE010995DF91CF911F910F9108953F
:101A70000F931F93CF93DF93EC018B01E881F981E2
:101A80000684F785E02D61E009950115110521F126
:101A9000E881F9810288F389E02DCE0109958EEB6A
:101AA0008EBD0DB407FEFDCF8EB520E030E0F8010D
:101AB000E20FF31F80818EBD0DB407FEFDCF8EB502
:101AC0002F5F3F4F2031310591F7E881F98104887C
:101AD000F589E02DCE010995CE016DE30E94F20C4F
:101AE000482F4E7F80E0012B09F081E0482BCE018A
:101AF0006DE30E94140DDF91CF911F910F91089516
:101B00000F931F938C0165E240E40E94140DD801ED
:101B1000ED91FC910684F785E02DC80163E00995FD
:101B20001F910F9108950E94800D0895CF93DF9328
:101B3000EC01603208F06FE168878985882311F035
:101B400066956887CE0161E10E94F20C482F407EC5
:101B50008885482BCE0161E10E94140DDF91CF9161
:101B600008951F93CF93DF93EC01162F8091930478
:101B7000681709F45FC06230D9F1633038F4662326
:101B800009F442C0613009F055C03AC06330C9F071
:101B9000643009F04FC0CE0161E00E94F20C482F82
:101BA000437E4C60CE0161E00E94140D898588233C
:101BB000A9F1E881F9810088F189E02DCE0161E089
:101BC00015C0CE0161E00E94F20C482F437E4061B7
:101BD000CE0161E00E94140D89858823F9F0E88127
:101BE000F9810088F189E02DCE0160E0099516C0E9
:101BF000CE0161E00E94F20C482F437E48600AC08B
:101C0000CE0161E044E008C0CE0161E00E94F20C28
:101C1000482F437ECE0161E00E94140D8091930411
:101C2000882331F4CE0167E20E94F20C8823B4F7D6
:101C300010939304DF91CF911F9108950F931F93F9
:101C40008C0161E044E00E94140DC80168E240E1AB
:101C50000E94140D1F910F910895FC016783089550
:101C6000CF93DF93EC016987662311F44AE101C049
:101C70004FE0CE0163E10E94140D8985882341F075
:101C8000CE0161E10E94F20C482F4F71406602C004
:101C900048854068CE0161E10E94140DDF91CF912B
:101CA00008951F93CF93DF93EC01162F662311F451
:101CB00045E501C04DE5CE016AE50E94140D1123F2
:101CC00011F440E701C04CE7CE016CE50E94140D11
:101CD000DF91CF911F910895CF93DF93EC0166239D
:101CE00089F082E395E060E071E00E94D915CE01B1
:101CF00063E241E00E94140DCE0163E20E94F20C07
:101D000081FFFACFCE0164E20E94F20CCE0164E2C0
:101D10000E94F20C90E0DF91CF9108951F93CF9332
:101D2000DF93EC01809195048F5F809395048091FF
:101D30009304833009F05AC0CE0160E00E946C0E1B
:101D400090939A048093990410E0CE0168E20E9477
:101D5000F20C1F5F82FFF9CF1D31B8F7CE0168E2A8
:101D60000E94F20C182FE881F9810684F785E02D96
:101D7000CE0161E0099580E280939804E881F981C1
:101D80000288F389E02DCE0109951EBC0DB407FE33
:101D9000FDCF8EB5909196049295990F907620E0A4
:101DA00030E0E92FE20F1EBC0DB407FEFDCF8EB56B
:101DB000F0E0ED5EFB4F80832F5F3F4F2032310517
:101DC00081F7809196048F5F80939604E881F98172
:101DD0000488F589E02DCE01099510939404EA81D9
:101DE000FB8180E20995CE010E94800DDF91CF91A9
:101DF0001F910895FC01848161E00E94C41208953E
:101E0000FC01848160E00E94C4120895BF92CF92C9
:101E1000DF92EF92FF920F931F93CF93DF93EC012A
:101E20006B01B42E6091950482E395E04AE050E0A6
:101E30000E94C71582E395E06AE171E00E94D9151E
:101E4000CE016DE30E94F20C482F4460CE016DE399
:101E50000E94140D0E947F027B018C0180919304EB
:101E6000813079F080919304833059F00E947F0291
:101E70006E197F09800B910B685E73408040904023
:101E800068F3E881F9810484F585E02DCE0160E0F6
:101E9000A6012B2D099581E0DF91CF911F910F9124
:101EA000FF90EF90DF90CF90BF900895EF92FF9258
:101EB0000F931F93CF93DF93EC01042FF52E122F76
:101EC000E881F9810684F785E02D61E00995CE016E
:101ED00067E20E94F20C87FFFACFCE0165E240E094
:101EE0000E94140D1E3308F01DE3E881F981028879
:101EF000F389E02DCE01099580E88EBD0DB407FE73
:101F0000FDCF8EB5802F9F2D9C01F90190E008C078
:101F100080818EBD0DB407FEFDCF8EB59F5F3196DB
:101F20009117B0F3E881F9810488F589E02DCE019D
:101F30000995E881F9810684F785E02DCE0164E0FA
:101F400009950E947F027B018C0183E00E94181397
:101F5000892B59F40E947F026E197F09800B910B27
:101F6000643671058105910580F3E881F981068465
:101F7000F785E02DCE0161E00995E881F9810280C5
:101F8000F381E02DCE010995DF91CF911F910F9143
:101F9000FF90EF900895BF92CF92DF92EF92FF9261
:101FA0000F931F93DF93CF93CDB7DEB7E4970FB6B0
:101FB000F894DEBF0FBECDBF6C01B42E522F6F312F
:101FC00019F430EC4EE40EC06B3211F44CE628C12B
:101FD000663509F021C149ED04C0663511F030ECD9
:101FE00001C030E0FE01319684E3DF011D928A9545
:101FF000E9F791E0998324E02A8382E08B839C8334
:1020000083E08D839E832F8380E4888785E08987A2
:1020100086E08A878B8786E68C8797E09D8728E015
:102020002F8789E0898B81E18B8B8BE98C8B89E110
:102030008D8B82E48E8B85E28F8B80EC888F86E29D
:10204000898F9A8F88E28B8F80E18C8F89E28D8FC8
:1020500084EB8E8F9DE29F8F28A38EE289A380E977
:102060008AA38FE28BA39CA390E39DA381E38FA31C
:102070008AEA88A787E389A788E18AA788E38BA7EC
:1020800080E28CA78CE38DA78FE88EA78DE38FA7C6
:1020900082E188AB8FE689AB9AAB8FEF8BAB4E8733
:1020A000388B5EA3F601848161E00E94C412D601E0
:1020B00014968C9161E00E9485120E94A10280E03A
:1020C0000E948B0281E00E94820280E00E949002C6
:1020D0000E94E3117B018C01C6016FE24AEA0E9473
:1020E000140DC6016FE20E94F20C8A3A09F47CC01A
:1020F0000E94E3116E197F09800B910B6233710509
:102100008105910508F070C0E7CFC6016FE245E593
:102110000E94140DC6016FE20E94F20C853509F48D
:1021200068C00E94E3116E197F09800B910B623326
:1021300071058105910508F05CC0E7CFC6014181BA
:102140000E94140D1F5FE12FF0E0EE0FFF1FEE0D58
:10215000FF1D60816F3F91F7C60160E070E00E9453
:10216000380DD601ED91FC910684F785E02DC6016E
:1021700061E009950E94E3117B018C01C60167E2D1
:102180000E94F20C87FD3BC00E94E3116E197F098B
:10219000800B910B623371058105910580F5EECFBF
:1021A00082E395E062E271E00E94D91581E067EB7D
:1021B0007CE043E050E00E941211D0929C04C09257
:1021C0009B04F601B68281E0E4960FB6F894DEBF78
:1021D0000FBECDBFCF91DF911F910F91FF90EF9078
:1021E000DF90CF90BF9008950E94E3117B018C0196
:1021F0008CCF10E07E010894E11CF11CA4CF0E945A
:10220000E3116E197F09800B910B62337105810513
:10221000910530F280E0D8CF44EE6B3209F0DDCE8C
:1022200030E4E0CE823000F5E82FF0E0EE0FFF1F43
:10223000E356FB4F71836083882319F08130A1F44A
:1022400008C0809169008C7F842B80936900E89A94
:10225000089580916900440F551F440F551F837FD7
:10226000842B80936900E99A08951F920F920FB60C
:102270000F9211242F933F934F935F936F937F930C
:102280008F939F93AF93BF93EF93FF9380919D04A0
:1022900090919E04892B29F0E0919D04F0919E0479
:1022A0000995FF91EF91BF91AF919F918F917F9190
:1022B0006F915F914F913F912F910F900FBE0F90B3
:1022C0001F9018951F920F920FB60F9211242F9303
:1022D0003F934F935F936F937F938F939F93AF93AE
:1022E000BF93EF93FF9380919F049091A004892B5B
:1022F00029F0E0919F04F091A0040995FF91EF91DE
:10230000BF91AF919F918F917F916F915F914F910D
:102310003F912F910F900FBE0F901F9018951F9215
:102320000F920FB60F9211242F933F934F935F9309
:102330006F937F938F939F93AF93BF932091A50447
:102340003091A6044091A7045091A8047091A9046B
:10235000DA01C9010296A11DB11D672F6A5F6D37B1
:1023600030F06D57DA01C9010396A11DB11D6093CC
:10237000A9048093A5049093A604A093A704B09306
:10238000A8048091A1049091A204A091A304B0910B
:10239000A4040196A11DB11D8093A1049093A204F1
:1023A000A093A304B093A404BF91AF919F918F9188
:1023B0007F916F915F914F913F912F910F900FBE41
:1023C0000F901F9018958FB7F8942091A504309125
:1023D000A6044091A7045091A8048FBFB901CA0177
:1023E00008959B01AC017FB7F8948091A10490916E
:1023F000A204A091A304B091A40466B5A89B05C053
:102400006F3F19F00196A11DB11D7FBFBA2FA92FF3
:10241000982F8827860F911DA11DB11D63E0880F9D
:10242000991FAA1FBB1F6A95D1F7BC012DC0FFB72A
:10243000F8948091A1049091A204A091A304B0917A
:10244000A404E6B5A89B05C0EF3F19F00196A11DB5
:10245000B11DFFBFBA2FA92F982F88278E0F911D6E
:10246000A11DB11DE3E0880F991FAA1FBB1FEA95AC
:10247000D1F7861B970B885E9340C8F221503040FD
:102480004040504068517C4F2115310541055105B0
:1024900071F60895789484B5826084BD84B58160B6
:1024A00084BD85B5826085BD85B5816085BDEEE65C
:1024B000F0E0808181608083E1E8F0E0108280813B
:1024C00082608083808181608083E0E8F0E08081A9
:1024D00081608083E1EBF0E0808184608083E0EBC9
:1024E000F0E0808181608083EAE7F0E080818460B1
:1024F000808380818260808380818160808380810D
:10250000806880831092C1000895CF93DF93482F95
:1025100050E0CA0186569F4FFC0134914A575F4FE5
:10252000FA018491882369F190E0880F991FFC01DA
:10253000E859FF4FA591B491FC01EE58FF4FC591AA
:10254000D491662351F42FB7F8948C91932F9095E2
:1025500089238C93888189230BC0623061F42FB763
:10256000F8948C91932F909589238C938881832B59
:1025700088832FBF06C09FB7F8948C91832B8C93D0
:102580009FBFDF91CF910895482F50E0CA01825537
:102590009F4FFC012491CA0186569F4FFC019491E4
:1025A0004A575F4FFA013491332309F440C0222384
:1025B00051F1233071F0243028F42130A1F0223081
:1025C00011F514C02630B1F02730C1F02430D9F411
:1025D00004C0809180008F7703C0809180008F7D40
:1025E0008093800010C084B58F7702C084B58F7D42
:1025F00084BD09C08091B0008F7703C08091B00086
:102600008F7D8093B000E32FF0E0EE0FFF1FEE58B8
:10261000FF4FA591B4912FB7F894662321F48C91C4
:102620009095892302C08C91892B8C932FBF08959C
:10263000682F70E0CB0182559F4FFC012491CB01A4
:1026400086569F4FFC0144916A577F4FFB0194913E
:10265000992319F420E030E03CC0222351F12330CB
:1026600071F0243028F42130A1F0223011F514C08B
:102670002630B1F02730C1F02430D9F404C0809165
:1026800080008F7703C0809180008F7D80938000D1
:1026900010C084B58F7702C084B58F7D84BD09C01A
:1026A0008091B0008F7703C08091B0008F7D8093C0
:1026B000B000892F90E0880F991F84589F4FFC012C
:1026C000A591B4918C9120E030E0842311F021E0B9
:1026D00030E0C901089508951F920F920FB60F922E
:1026E00011242F933F934F938F939F93EF93FF93D7
:1026F0008091C00082FD1DC04091C6002091EA0477
:102700003091EB042F5F3F4F2F7330708091EC04BA
:102710009091ED042817390771F0E091EA04F091E7
:10272000EB04E655FB4F40833093EB042093EA041F
:1027300002C08091C600FF91EF919F918F914F91C0
:102740003F912F910F900FBE0F901F901895E09121
:102750003E05F0913F05E05CFF4F81919191208112
:102760003181805C9F4F821B930B60E470E00E947C
:102770003D16892B11F00E946B1308951F920F9242
:102780000FB60F9211242F933F938F939F93EF9344
:10279000FF9320912E0530912F0580913005909167
:1027A00031052817390731F48091C1008F7D80935E
:1027B000C10014C0E0913005F0913105E251FB4FAA
:1027C0002081809130059091310501968F73907032
:1027D00090933105809330052093C600FF91EF91CF
:1027E0009F918F913F912F910F900FBE0F901F904F
:1027F0001895DC011C96ED91FC911D97E05CFF4F54
:102800008191919120813181805C9F4F821B930B3C
:1028100060E470E00E943D160895DC011C96ED9185
:10282000FC911D97E05CFF4F20813181E054F04026
:10283000DF01AE5BBF4F8D919C911197281739072F
:1028400019F42FEF3FEF07C08D919C91E80FF91F0E
:102850008081282F30E0C9010895DC011C96ED919C
:10286000FC911D97E05CFF4F20813181E054F040E6
:10287000DF01AE5BBF4F8D919C91119728173907EF
:1028800019F42FEF3FEF10C08D919C911197E80F35
:10289000F91F20818D919C91119701968F739070F3
:1028A00011969C938E9330E0C9010895DC019196B6
:1028B0008C919197882339F05496ED91FC9155971E
:1028C000808186FFF9CF91961C920895CF93DF9374
:1028D000EC01EE85FF85E05CFF4F20813181E05403
:1028E000F0402F5F3F4F2F733070DF01AE5BBF4F63
:1028F0008D919C91119728173907D1F3E05CFF4F18
:1029000080819181E054F040E80FF91F6083EE85EB
:10291000FF85E05CFF4F31832083EE89FF892081B2
:1029200081E090E00F8C02C0880F991F0A94E2F7B3
:10293000282B208381E089A3EC89FD898081806434
:10294000808381E090E0DF91CF910895109235056A
:102950001092340588EE93E0A0E0B0E08093360555
:1029600090933705A0933805B093390583E591E03E
:1029700090933305809332058AEA94E090933F0563
:1029800080933E058EEE94E0909341058093400540
:1029900085EC90E0909343058093420584EC90E0B1
:1029A000909345058093440580EC90E09093470513
:1029B0008093460581EC90E090934905809348050B
:1029C00082EC90E090934B0580934A0586EC90E072
:1029D00090934D0580934C0584E080934E0583E0F1
:1029E00080934F0587E08093500585E080935105E3
:1029F00081E08093520508950895CF93DF930E945C
:102A00004A120E94FC140E94F700C7EAD3E10E9418
:102A1000B8012097E1F30E94A713F9CFCF92DF927C
:102A2000EF92FF920F931F93CF93DF937C016B0183
:102A30008A01C0E0D0E00FC0D6016D916D01D701D1
:102A4000ED91FC910190F081E02DC7010995C80F2F
:102A5000D91F015010400115110571F7CE01DF910A
:102A6000CF911F910F91FF90EF90DF90CF9008953D
:102A7000CF93DF93EC016115710519F420E030E08C
:102A80000FC0DB010D900020E9F71197A61BB70BD3
:102A9000E881F9810280F381E02DAD0109959C0167
:102AA000C901DF91CF9108954F925F927F928F92EB
:102AB0009F92AF92BF92CF92DF92EF92FF920F93CD
:102AC0001F93DF93CF93CDB7DEB7A1970FB6F894DE
:102AD000DEBF0FBECDBF2C01742ECB01223008F417
:102AE0002AE019A231E2C32ED12CCC0EDD1E822E9B
:102AF0009924AA24BB24672D752FA50194010E9457
:102B0000501679018A01C801B701A50194010E94FC
:102B1000FE15472D461B0894C108D1084A3014F40D
:102B2000405D01C0495CF6014083E114F1040105F8
:102B3000110521F07E2C5F2DC801DDCFC201B60149
:102B40000E943815A1960FB6F894DEBF0FBECDBF18
:102B5000CF91DF911F910F91FF90EF90DF90CF9079
:102B6000BF90AF909F908F907F905F904F9008950F
:102B7000DC012115310541F4ED91FC910190F081CA
:102B8000E02D642F099508950E9454150895EF9241
:102B9000FF920F931F939A01E62EFF2400E010E0AE
:102BA000B801A7010E94B8151F910F91FF90EF90F7
:102BB00008950E9438150895EF92FF920F931F9386
:102BC0007B018C01611571058105910529F420E0D7
:102BD00030E040E050E00BC00E94E100A801970106
:102BE0000E947216AC01CB01DA019C01AD01B90162
:102BF000CA011F910F91FF90EF900895629FD0013D
:102C0000739FF001829FE00DF11D649FE00DF11DA7
:102C1000929FF00D839FF00D749FF00D659FF00D56
:102C20009927729FB00DE11DF91F639FB00DE11D43
:102C3000F91FBD01CF0111240895991B79E004C04B
:102C4000991F961708F0961B881F7A95C9F78095EB
:102C50000895AA1BBB1B51E107C0AA1FBB1FA617E3
:102C6000B70710F0A61BB70B881F991F5A95A9F735
:102C700080959095BC01CD01089597FB092E0726FC
:102C80000AD077FD04D0E5DF06D000201AF4709555
:102C900061957F4F0895F6F7909581959F4F089520
:102CA000A1E21A2EAA1BBB1BFD010DC0AA1FBB1F50
:102CB000EE1FFF1FA217B307E407F50720F0A21BC2
:102CC000B30BE40BF50B661F771F881F991F1A942F
:102CD00069F760957095809590959B01AC01BD0159
:102CE000CF01089597FB092E05260ED057FD04D07D
:102CF000D7DF0AD0001C38F45095409530952195C7
:102D00003F4F4F4F5F4F0895F6F790958095709520
:102D100061957F4F8F4F9F4F0895EE0FFF1F0590D6
:102D2000F491E02D09942F923F924F925F926F920F
:102D30007F928F929F92AF92BF92CF92DF92EF924B
:102D4000FF920F931F93CF93DF93CDB7DEB7CA1BCC
:102D5000DB0B0FB6F894DEBF0FBECDBF09942A88F7
:102D6000398848885F846E847D848C849B84AA849F
:102D7000B984C884DF80EE80FD800C811B81AA812C
:102D8000B981CE0FD11D0FB6F894DEBF0FBECDBFF7
:082D9000ED010895F894FFCF56
:102D98002A0041646472657373202D2048455820C9
:102DA8002D2042494E00202D200049524E4E4040D1
:102DB800400052464D20696E697469616C697A6594
:102DC800000100000000000000CE0C930D300E96AC
:102DD8000D8E0EA00C560FB10D510E000FFA0E00FD
:102DE80000000066140E15F9132D140D1456140066
:00000001FF
